:020000040800F2
:10000000284500207D020008692A0008471E0008D4
:100010003525000895040008F53D000800000000A3
:10002000000000000000000000000000C101000806
:10003000010600080000000015020008273600082D
:10004000970200089702000897020008970200082C
:10005000970200089702000897020008970200081C
:10006000970200089702000897020008970200080C
:1000700097020008970200089702000897020008FC
:1000800097020008970200089702000897020008EC
:1000900097020008970200089702000897020008DC
:1000A0009702000825370008970200089702000809
:1000B00097020008970200089702000897020008BC
:1000C00097020008970200089702000897020008AC
:1000D00097020008E13D0008970200089702000817
:1000E000970200089702000897020008970200088C
:1000F000970200089702000897020008970200087C
:10010000970200089702000897020008970200086B
:10011000970200089702000897020008970200085B
:10012000970200089702000851050008970200088E
:10013000970200089702000897020008970200083B
:10014000970200089702000897020008970200082B
:10015000970200089702000897020008970200081B
:10016000970200089702000897020008970200080B
:10017000970200089702000897020008000000009C
:1001800097020008970200089702000897020008EB
:1001900097020008970200089702000897020008DB
:1001A000000000000000000097020008DFF80CD0FB
:1001B00000F05EF90048004775410008284500201E
:1001C0002B4B19680868B0E8F04F80F30988BFF33B
:1001D0006F8F4FF0000080F311887047000000001F
:1001E00006480068006880F3088862B661B6BFF30D
:1001F0004F8FBFF36F8F00DF00BF00BF08ED00E03F
:10020000DFF80C00016841F470010160704700BF25
:1002100088ED00E0EFF30980BFF36F8F144B1A688D
:100220001EF0100F08BF20ED108A20E9F04F10607B
:1002300008B44FF0500080F31188BFF34F8FBFF325
:100240006F8F04F03FFE4FF0000080F3118808BC70
:1002500019680868B0E8F04F1EF0100F08BFB0EC46
:10026000108A80F30988BFF36F8F704700BF00BF0B
:100270003C000020EFF305807047000006488047EF
:1002800006480047FEE7FEE7FEE7FEE7FEE7FEE77B
:10029000FEE7FEE7FEE7FEE7D1360008AD01000805
:1002A0002DE9F05F0546002092469B4688460646AB
:1002B000814640241BE0284641464746224600F03E
:1002C0006AF853465A46C01A914110D3114618464F
:1002D000224600F051F82D1A67EB01084F462246DE
:1002E0000120002100F048F817EB00094E41201EC4
:1002F000A4F10104DFDC484631462A464346BDE806
:10030000F09F40EA01039B0703D009E008C9121FD0
:1003100008C0042AFAD203E011F8013B00F8013BBF
:10032000521EF9D270470EB5C10F80EAE070084442
:10033000CA07002140F233438DE80E000A460B46FF
:1003400000F048F803B000BD30B5041E71F10004A0
:1003500004DB4FF00044404264EB0101141E73F1D2
:10036000000405DB1C464FF00043524263EB0403DC
:10037000994208BF904230BD202A04DB203A00FA9F
:1003800002F1002070479140C2F1200320FA03F3EC
:10039000194390407047202A04DB203A21FA02F0EA
:1003A0000021704721FA02F3D040C2F120029140AF
:1003B00008431946704710B5141E73F1000408DA9B
:1003C000401C41F1000192185B411A4301D120F019
:1003D000010010BD2DE9F04D92469B4611B1B1FAD6
:1003E00081F202E0B0FA80F220329046FFF7C4FFBB
:1003F00004460F4640EA0A0041EA0B0153465A46BA
:10040000084313D0114653EA010019D0C8F1400245
:100410005046FFF7C0FF05460E4650465946424635
:10042000FFF7AAFF084305D0012004E02046394623
:10043000BDE8F08D0020054346EAE0762C433743C3
:100440000A986305E40AA0EB08000022FD0A44EACA
:1004500047540A3002D500200146E9E7010510198A
:100460006941DDE9084500196941BDE8F04DA2E7A1
:10047000064C074D06E0E06840F0010394E80700F1
:1004800098471034AC42F6D3FFF794FE905800081A
:10049000B0580008FEE7000038B5104C206800682E
:1004A000C0061AD5204601F044FB20680168406868
:1004B000009019220A49204601F076FC09490C46B1
:1004C000606804F081FF2068012806D10649000712
:1004D0000860BFF34F8FBFF36F8F38BDA8020020B5
:1004E000744000207800002004ED00E010B586B0D4
:1004F00003220021012004F099FD114C606020B11D
:1005000000231A46194604F0AFFE60680028FDD0AB
:1005100014220C496846FFF7F4FE0021684603F0F8
:10052000F1FFA06008480068C16841F01001C16097
:1005300019220649044801F037FC06B010BD00003E
:100540007800002024580008A802002074400020F1
:10055000014800F0AFB80000E8020020016818234D
:10056000CAB2103AB2FBF3F2054B6FF30901032A4A
:100570009B5CC36500D9091D816508467047000072
:100580000458000810B5014600208B698A6A4FF0B4
:10059000C07453B1B3F5005F15D072B1012A0CD00D
:1005A000022A0AD0032A09D104E01AB1012A06D08E
:1005B000022A03D1C96AC90100D5012010BDC96A48
:1005C000A142FAD010BD002AF7D0012AF2D0022AA7
:1005D000F3D0032AF3D010BD30B50468256825F4A4
:1005E00080252560046863608368402B036803D01E
:1005F00099600068C26030BD9A600068C16030BD1B
:1006000070472DE9F0410446876D00F0C7FA0646B1
:1006100094F835000025022806D08020606584F813
:1006200034500120BDE8F0812068016821F01601F6
:1006300001602068416921F080014161206C08B9A6
:10064000A06C20B12068016821F0080101602068D9
:10065000016821F0010101600BE000F09FFA801BAE
:10066000052806D92020606504F8345F03206070F7
:10067000D8E720680068C007EFD194F85C103F20ED
:100680008840B86004F8345F012060700020C9E73A
:1006900090F83510022903D0802141650120704770
:1006A000052180F835100068016821F00101016022
:1006B000002070472DE9F84304464FF00009CDF8BB
:1006C000009063484FF41651A56D0068B0FBF1F738
:1006D0002E6894F85C10082000FA01F131420FD026
:1006E00021680A6852070BD50A6822F004020A60E2
:1006F00094F85C108840A860606D40F0010060656F
:1007000094F85C104FF0010808FA01F0304208D06C
:1007100021684969090604D5A860606D40F00200AF
:10072000606594F85C1004208840304208D021684D
:100730000968890704D5A860606D40F00400606511
:1007400094F85C1010208840304218D02168096865
:10075000090714D5A86020680168490304D500681A
:10076000000308D5A16C07E00168C90503D401683E
:1007700021F008010160216C09B12046884794F8F6
:100780005C1020208840304231D021680968C906B9
:100790002DD5A86094F8350005282068016806D09A
:1007A000490347D5006800031DD4616C1CE021F0AB
:1007B000160101602068416921F080014161206CCF
:1007C00008B9A06C20B12068016821F0080101601F
:1007D00094F85C103F208840A86084F8349084F836
:1007E0003580216D1FE0E16B09B120468847606DBF
:1007F00000282BD0606DC00714D0052084F8350088
:100800002068016821F0010101600098401C0090FF
:10081000B84203D820680068C007F6D184F8349045
:1008200084F83580E16C002910D001B02046BDE885
:10083000F04308470168C905D5D4016821F01001CB
:10084000016084F8349084F83580CCE7BDE8F88303
:10085000140000202DE9F041044600F09FF90646FF
:100860005CB1002584F83450022084F835002068FB
:10087000016821F0010101600DE00120BDE8F08177
:1008800000F08CF9801B052805D920206065032025
:1008900084F83500F2E720680068C007F0D12268CC
:1008A000116820480140D4E901031843D4E9033614
:1008B0003343184363691843A3691843E369184332
:1008C000236A18430843616A042903D1D4E90B134E
:1008D00019430843106020684069666A20F00701E8
:1008E00030460E43012704280CD1A06A0643E06A73
:1008F00040B12046FFF746FE20B14020606584F8F5
:100900003570BAE7206846612046FFF727FE94F865
:100910005C203F2191408160656584F8357000203E
:10092000ACE700003F8010F02DE9F0410446866DF1
:1009300090F83400002501280DD0012084F83400FF
:1009400094F835700020012F07D084F83400022578
:100950002846BDE8F0810220FBE7022784F83570C5
:1009600060652046FFF738FE94F85C103F20884011
:10097000B0602068016841F016010160206841699B
:1009800041F080014161206C20B12068016841F094
:10099000080101602068016841F001010160D7E7AA
:1009A00070B5044600F0FAF80546601C02D0044811
:1009B0000078044400F0F2F8401BA042FAD370BD66
:1009C000080000202DE9F84FDFF890B100224FF029
:1009D00001084FF0030A4FF00F090BF1040E00BF9E
:1009E0000B6808FA02F42340A3426ED14D68022D31
:1009F00001D0122D0ED1D50800EB850CDCF820506B
:100A00005607F70E09FA07F6B5430E69BE402E43A6
:100A1000CCF82060066855000F790AFA05FC07F04B
:100A2000030726EA0C06AF40374307604E68012EE5
:100A300005D0022E03D0112E01D0122E0ED18768C0
:100A4000CE6827EA0C07AE403E4386604668A64360
:100A50000C79C4F30014944034434460C4688E6835
:100A600024EA0C04AE402643C6604C68E4006FD50F
:100A70003B4C256845F480452560246822F0030539
:100A800004F480440094374C2E19D6F80848950792
:100A90002F0F09FA07F5AC43334DA84201D10025C9
:100AA0002EE0324DA84201D1012529E0304DA84267
:100AB00001D1022524E02F4DA84201D103251FE0DA
:100AC0002D4DA84202D104251AE041E02B4DA84249
:100AD00001D1052514E02A4DA84201D106250FE0D9
:100AE000284DA84201D107250AE0274DA84201D18F
:100AF000082505E0254DA84201D1092500E00A2579
:100B0000BD402543C6F80858DBF800405D464E68F6
:100B10009C43F60300D51C432C60DEF8004075466C
:100B20004E689C43B60300D51C432C600B4D083522
:100B30002C684E689C43F60200D51C432C60074D80
:100B40000C352C684E689C43B60200D51C432C60C3
:100B5000521C102AFFF444AFBDE8F88F003C01405E
:100B600044380240003001400000024000040240CE
:100B700000080240000C0240001002400014024035
:100B800000180240001C02400020024000240240E5
:100B90000AB1816170470904FBE7000001488068E1
:100BA0007047000008000020024881680278114464
:100BB00081607047080000200B4810B5016841F4BF
:100BC00000710160016841F480610160016841F4D5
:100BD00080710160032000F0B1F8002000F006F8F9
:100BE00000F03EF8002010BD003C024010B5014668
:100BF00088B00022192000F081F8192000F072F866
:100C000013480024016841F001010160006805A952
:100C100000F001000690684600F072F900F0A6F9B5
:100C20000C494000B0FBF1F10C480B4A491E026030
:100C300040F2E732C0E90324C0E9011400F02FFDBF
:100C400010B1012008B010BD044800F044FDF9E7E0
:100C50004438024040420F00000001404803002099
:100C60001F4808B5016841F480410160006800F444
:100C7000804000901A48001F016841F080510160D7
:100C8000006800F080500090032000F057F8002228
:100C900011466FF00B0000F031F8002211466FF0A2
:100CA0000A0000F02BF8002211466FF0090000F056
:100CB00025F800221146501F00F020F800221146AE
:100CC000101F00F01BF800220F21901E00F016F8F4
:100CD00000220F21BDE80840501E00F00FB80000B0
:100CE0004438024000F01F02012191404009800079
:100CF00000F1E020C0F8001170470000F0B40E4B86
:100D00001B680C46C3F30223C3F10705042D00D969
:100D10000425191D072901D2002300E0DB1E01264E
:100D200006FA05F1491E214099409E40761E164064
:100D30003143F0BC01F099BE0CED00E0064900F033
:100D4000070208684FF6FF03184040EA0220034AF2
:100D500010430860704700000CED00E00000FA0549
:100D60002DE9F8431748016841F08051016000689F
:100D7000154F00F08050012600903E64FFF70EFFF3
:100D800005464FF47A78114C05E000BFFFF706FFE7
:100D9000401B40450DD86068C003F7D57E64FFF75F
:100DA000FDFE0546464607E0FFF7F8FE401BB04251
:100DB00002D90320BDE8F88360688003F4D50020E1
:100DC000F8E700004038024000000E42007000408A
:100DD0002DE9F0470E46050065D0DFF81481D8F8FC
:100DE0000000F7B200F00F00B04207D288F80070A0
:100DF000D8F8000000F00F00B04254D128683D4CF4
:100E0000810712D5400703D5206840F4E0502060E8
:100E10002878000703D5206840F4604020602068EF
:100E2000A96820F0F000084320602878C0072DD082
:100E3000304968680839012812D0022813D00328E5
:100E400011D00968890700292DDA216821F00301F2
:100E500001432160FFF7A2FE814641F2883A0EE08D
:100E600009688903EFE709688901ECE7FFF796FE57
:100E7000A0EB0901514502D90320BDE8F0872068A5
:100E8000696800F00C00B0EB810FEFD1D8F80010CA
:100E9000404601F00F01B14207D90770006800F029
:100EA0000F00B04201D00120E7E72878400705D5C0
:100EB0002068E96820F4E0500843206028780007A3
:100EC00006D52068296920F4604040EAC10020600E
:100ED00000F05CF82168084AC1F30311515CC84076
:100EE000064908600020FFF781FE0020C5E70000EA
:100EF000003C0240083802400C5800081400002052
:100F00000F2202600C4A136803F003034360136866
:100F100003F0F0038360136803F4E053C3601268C6
:100F20004FF4E05303EAD20202610448006800F083
:100F30000F0008607047000008380240003C024083
:100F4000014800687047000014000020044805496B
:100F500000680968044AC1F38221515CC8407047A7
:100F600014000020083802401C58000804480549B5
:100F700000680968044AC1F34231515CC8407047B7
:100F800014000020083802401C580008154810B50D
:100F9000006810F00C02144813D01449042A0FD032
:100FA000082A0ED10F4C241F2268236802F03F024A
:100FB0005B0207D52068C0F38810A0FB010106E0A2
:100FC000084610BD2168C1F38811A1FB0001002370
:100FD000FFF766F92168C1F30141491C4900B0FBE4
:100FE000F1F010BD083802400024F400001BB700E7
:100FF0002DE9F84F050076D02878DFF8F8B2BE4C1E
:10100000C00749D0DBF800105846C1F3810101291F
:1010100008D00068C0F3810002280AD1201D0068B2
:10102000400206D52068800336D568680028E2D0E3
:1010300032E06868B0F5803F10D0B0F5A02F20688E
:1010400010D020F480302060206820F480202060C0
:101050006868A0B1FFF7A2FD06460CE0206840F4E6
:101060008030F4E740F480202060F7E7FFF796FD3A
:10107000801B642873D820688003F7D50CE0FFF745
:101080008DFD064605E000BFFFF788FD801B642844
:10109000F0D820688003F7D42878DFF860828007D2
:1010A0004FF000093ED5DBF80010584611F00C0F48
:1010B00009D00068C0F3810002280BD18D48001FC1
:1010C0000068400206D42068800715D5E86801282A
:1010D00009D111E0E868B8B10120C8F80000FFF7B5
:1010E0005DFD064605E002E1FFF758FD801B022882
:1010F000C0D820688007F7D52068296920F0F8005B
:1011000040EAC10020600DE0C8F80090FFF746FDFE
:10111000064604E0FFF742FD801B02281FD8206826
:101120008007F7D42878000722D5724E7448696981
:101130006C3671B101210160FFF730FD074604E014
:10114000FFF72CFDC01B022809D830688007F7D5AF
:101150000EE0C0F80090FFF721FD074605E083E0B0
:10116000FFF71CFDC01B02287ED830688007F7D42B
:101170002878400768D5DFF87CA100270AF1380AF3
:10118000DAF80000C0000BD4DAF8001041F080510A
:10119000CAF80010DAF80000012700F08050009033
:1011A000584E3068C00510D4306840F4807030600C
:1011B000FFF7F4FC009005E0FFF7F0FC0099401AFF
:1011C000022851D83068C005F6D54A4EA86868365E
:1011D00001280FD00528306810D020F001003060C1
:1011E000306820F004003060A868B8B1FFF7D6FC82
:1011F00000900FE0306840F00100F4E740F0040098
:101200003060F7E7FFF7CAFC0099411A41F28830D5
:10121000814264D830688007F4D50EE0FFF7BEFC49
:10122000009007E0FFF7BAFC0099411A41F28830BC
:10123000814254D830688007F4D42FB1DAF8001016
:1012400021F08051CAF80010A869C0B3DBF8001083
:10125000C1F3810102294AD00228484607D0C8F8C4
:101260006000FFF79BFC00E039E005463AE04746A6
:10127000C8F86000FFF792FC064604E0FFF78EFC1A
:10128000801B02282BD820688001F7D4D5E90701FC
:101290000843A96A1C4A490802EB01416A6A41EA0B
:1012A0008211084395F82C1040EA01611148001F93
:1012B000016001203866FFF771FC054605E014E087
:1012C000FFF76CFC401B022809D820688001F7D585
:1012D0000BE000BFFFF762FC401B022802D903208D
:1012E000BDE8F88F20688001F4D40020F8E70120E1
:1012F000F6E700000838024000380240000047428C
:10130000800E4742007000400000FFFF70B50400EF
:1013100005D00025A56294F8510010B106E0012027
:1013200070BD84F85050204600F030F8022084F858
:1013300051002068016821F040010160D4E90101F9
:101340000843D4E903121143084361690843218B20
:1013500001F400710843E1690843216A0843A16A66
:10136000084321680860A069042101EA1040616A0D
:101370000843216848602068C16921F40061C161A7
:101380006565012084F85100002070BD00B500683B
:101390000E4987B0884217D10D480021026842F4F7
:1013A00080120260006800F4801005904FF46070B5
:1013B00000900220CDE90101032003900520049054
:1013C00069460448FFF7FEFA07B000BD005001402F
:1013D00044380240001402402DE9F84F044690F8CA
:1013E000500000260A9F9A4693460D464FF001088A
:1013F00001280ED0012084F85000FFF7CFFB814672
:1014000094F85100616801280CD0B1F5827F07D1B2
:1014100002E00220BDE8F88FA16809B9042801D0D4
:101420000226BDE055B1BBF1000F07D0BAF1000FA5
:1014300004D094F85100012802D004E00126AFE066
:10144000052084F8510000206065C4F838B0A4F885
:101450003EA0A4F83CA02563A4F836A0A4F834A0CC
:101460002064606420680168490603D4016841F083
:1014700040010160E068B0F5006F606804D0E8B337
:10148000E08E01283BD06AE010B1E08E01282ED119
:10149000216835F8020BC860E08E401EE08626E029
:1014A000B8F1000F0DD0E08E58B12068816889072F
:1014B00007D535F8021BC160E08E401EE0864FF074
:1014C0000008E08F58B120688168C90707D0C0685C
:1014D0002BF8020BE08F401EE0874FF00108781CCC
:1014E00005D0FFF75BFBA0EB0900B84246D2E08EC7
:1014F0000028D5D1E08F0028D2D136E0FFE721685F
:1015000015F8010B0873E08E401EE08627E000BF4F
:10151000B8F1000F0DD0E08E58B1206881688907BE
:1015200007D515F8011B0173E08E401EE0864FF0D1
:101530000008E08F58B120688168C90707D0C068EB
:101540000BF8010BE08F401EE0874FF00108781C7C
:1015500005D0FFF723FBA0EB0900B8420ED2E08EC6
:101560000028D5D1E08F0028D2D13B4601220221AC
:101570002046CDF8009001F098FA08B103260FE05C
:101580004A463946204601F080FA18B1012620204B
:10159000606505E0A06818B92068C168806800909F
:1015A000012084F85100002084F85000304631E7D3
:1015B0004FF0E0210428086903D020F004000861FE
:1015C000704740F00400FAE710B5401EB0F1807F8C
:1015D00001D3012010BD4FF0E02460610F2160179E
:1015E00001F043FA0020A06107202061002010BD17
:1015F0007047704710B590F83820012A25D0012295
:1016000080F83820CA688C6822F4407222434C6803
:1016100022F4806222430C6822F4006222430C69A7
:1016200022F4805222434C6922F4005222438C69F6
:1016300022F48042224322F4004102680023214325
:10164000516480F83830002010BD022010BD30B544
:1016500090F83820012A20D0012280F83820022377
:1016600080F8393003685C6824F070045C600368BB
:101670005C680D682C435C6003689C6824F08004FF
:101680009C6003689C6849680C439C6080F8392022
:10169000002180F83810084630BD022030BD10B55A
:1016A000040003D094F8390010B107E0012010BD08
:1016B000002084F83800204600F00CF8022084F85E
:1016C0003900211D206802F033F8012084F8390028
:1016D000002010BD70470168CA6842F00102CA606C
:1016E0000068016841F00101016000207047704707
:1016F00070B50446006801694FF00005C9438907C9
:1017000015D4C168C943890711D4E91E01610120BC
:101710002076206880698007204602D0FFF7E7FF27
:1017200004E000F00BF9204600F0DAF92576206895
:101730000169C943490717D4C168C943490713D48C
:101740006FF004010161022020762068806910F4A6
:10175000407F204602D0FFF7CAFF04E000F0EEF819
:10176000204600F0BDF9257620680169C9430907C4
:1017700016D4C168C943090712D46FF0080101618A
:10178000042020762068C0698007204602D0FFF739
:10179000AEFF04E000F0D2F8204600F0A1F9257673
:1017A00020680169C943C90617D4C168C943C9067D
:1017B00013D46FF010010161082020762068C06901
:1017C00010F4407F204602D0FFF791FF04E000F0C4
:1017D000B5F8204600F084F9257620680169C943F0
:1017E000C90708D1C168C943C90704D1891E01616D
:1017F000204600F093F920680169C943090609D41D
:10180000C168C943090605D46FF080010161204613
:10181000FFF7EEFE20680169C943490609D4C16893
:10182000C943490605D46FF040010161204600F02C
:101830007FF920680169C94389060BD4C168C9438F
:10184000890607D46FF0200101612046BDE8704091
:10185000FFF7CFBE70BD000070B5016800240225FF
:10186000012086B0B1F1804F09D02A4A914213D1AC
:1018700020200090CDE90154694627482CE007213B
:101880000091CDE90154CDE903402448694600BFE9
:10189000FFF798F806B070BD214A914207D14FF486
:1018A000E0400090CDE9015469461E4814E01E4B0B
:1018B0001E4A1F4E994212D10090CDE9015469464B
:1018C0001046CDE90345FFF77DF84FF4C050009076
:1018D000CDE9015469463046CDE90345D8E71548BE
:1018E000814209D1C4200090CDE901540320CDE903
:1018F000034069461046CBE70F488142CAD14020D9
:101900000090CDE901540920CDE9034069463046F5
:10191000BEE7000000040040000402400000024056
:1019200000080040000C0240000C00400020024073
:10193000001C02400004014000180040704770B5D0
:10194000044690F838000D4601280DD0012684F891
:101950003860022084F8390042B1042A18D0082ADD
:101960002AD00C2A4DD139E0022070BD206801F048
:101970004BFF2068816941F008018161206881691D
:1019800021F004018161206881692A69114311E015
:10199000206801F065FF2068816941F40061816180
:1019A0002068816921F480618161206881692A69E8
:1019B00041EA0221816124E0206801F083FF206870
:1019C000C16941F00801C1612068C16921F00401C9
:1019D000C1612068C1692A69114311E0206801F0E2
:1019E000A1FF2068C16941F40061C1612068C1693B
:1019F00021F48061C1612068C1692A6941EA02213C
:101A0000C16184F83960002084F8380070BD10B5D9
:101A1000040003D094F8390010B107E0012010BD94
:101A2000002084F83800204600F00CF8022084F8EA
:101A30003900211D206801F07BFE012084F8390067
:101A4000002010BD08B501681F48B1F1804F0BD0D0
:101A50001E4A914210D1016841F002010160006804
:101A600000F00200009008BD016841F00101016032
:101A7000006800F00100F5E7154A914207D10168BE
:101A800041F004010160006800F00400EAE7114A37
:101A9000914207D1016841F008010160006800F03F
:101AA0000800DFE70C4A914202D10748001DD2E747
:101AB0000A4A9142D7D1016841F0400101600068B3
:101AC00000F04000CEE70000403802400004004033
:101AD00000080040000C00400004014000180040D5
:101AE0007047000010B504460068012201F080FE36
:101AF00008492068884202D00749884203D1416CD6
:101B000041F4004141642068016841F00101016035
:101B1000002010BD0000014000040140006803499E
:101B2000884201D1FFF740B8704700000000014033
:101B3000704710B504460068416994F83920C1F334
:101B4000C011212A0BD151B1416921F080014161BD
:101B5000206B08B1FEF755FD204601F069FF2068B3
:101B6000416994F83A20C1F38011222A0BD151B176
:101B7000416921F040014161606B08B1FEF741FD10
:101B8000204601F047FF002010BD704770B5026885
:101B900004461068D168536910F00F0F51D003F05C
:101BA000010501F4907635435DD0C20705D0CA0522
:101BB00003D5E26B42F00102E263420705D5DA0782
:101BC00003D0E26B42F00202E263820705D5DA0736
:101BD00003D0E26B42F00402E263020705D5DA07A4
:101BE00003D0E26B42F00802E263E26B002A34D0D9
:101BF000800604D5880602D5204601F022FF206821
:101C00004069E16BC0F3801001F0080101432046F8
:101C100024D001F0FFFE2068416949061AD54169C8
:101C200021F040014161606BA0B11B490165606B0F
:101C3000FEF72EFD002810D0606B016DBDE87040EE
:101C4000084783060FD58B060DD52046BDE87040AA
:101C500001F0F7BE2046FFF798FF70BDFFF795FF34
:101C60000020E06370BD030606D50B0604D52046B0
:101C7000BDE8704002F082B84006F3D54806F1D5C1
:101C8000D168204621F04001D160202184F839102C
:101C900000F0D8F870BD00007539000870B5040078
:101CA00004D094F83900002510B106E0012070BD81
:101CB00084F83850204600F023F8242084F83900B6
:101CC0002068C16821F40051C160204601F000FF86
:101CD0002068016921F4904101612068416921F087
:101CE0002A0141612068C16841F40051C160E56387
:101CF000202084F8390084F83A00002070BD0000EC
:101D000070B5064600681F4986B0884238D11E4823
:101D10000025016841F0100101600068694600F08B
:101D200010000590C0200090022001900120029038
:101D300003200390072004901448FEF743FE154C3F
:101D4000134820604FF00060C4E901054014C4E965
:101D500003506561A561E561256220466562FEF775
:101D600079FD18B178210CA002F045F874630022C7
:101D700005212520A663FEF7C1FF2520FEF7B2FF4F
:101D800006B070BD0010014044380240000402401B
:101D900040640240E80200202E2E2F5372632F75FC
:101DA000736172742E630000F8B5044690F83A002F
:101DB00020283CD1C1B3BAB394F83800012836D0FA
:101DC000012084F83800A162A2850025E563222065
:101DD00084F83A00636B1748D863636B164818643D
:101DE000636B1648D864606B134605650846666BDE
:101DF000216802463046091DFEF796FD20680168FD
:101E00004168009184F83850C16841F48071C16024
:101E10002068416941F0010141612068416941F058
:101E2000400141610020F8BDFFE70120FBE70220EF
:101E3000F9E70000CF3900080B3A0008853900089F
:101E4000704770477047FEE710B502F0CFF9BDE864
:101E5000104001F0EBBF0000094808B5016841F4EB
:101E6000800101600068002200F4800000900521DC
:101E70003A20FEF743FFBDE808403A20FEF732BFA4
:101E80003038024010B58AB014220B496846FEF77C
:101E900038FA0021684602F035FB084C0649142246
:101EA0002060143105A8FEF72CFA002105A802F0E5
:101EB00029FB60600AB010BDDC570008000000205C
:101EC0002DE9F047774886B00024016841F0100101
:101ED0000160016801F010010591016841F0020103
:101EE0000160016801F002010591016841F04001C3
:101EF0000160016801F040010591016841F00801AD
:101F00000160016801F008010591016841F00401D8
:101F10000160016801F004010591016841F00101CF
:101F20000160016801F001010591016841F48071CF
:101F30000160016801F480710591016841F0800140
:101F40000160016801F080010591016841F0200104
:101F500001600068DFF8508100F020000590002249
:101F600004214046FEF714FEDFF840914FF4FF775E
:101F7000012239464846FEF70BFEDFF834A1002265
:101F800040215046FEF704FE0122D1024046FEF7F2
:101F9000FFFD012291035046FEF7FAFD0820CDE92E
:101FA0000004694640460294FEF70CFD40F604002A
:101FB00000900126CDE90164694640460394FEF78E
:101FC00001FD4FF2F3700325CDE900056946029447
:101FD0004046FEF7F7FC3002CDE90004DFF8D4807C
:101FE000694640460294FEF7EDFC4FF60160CDE9EC
:101FF0000005694602944846FEF7E4FC4FF61F6070
:10200000CDE90005694602944046FEF7DBFC48F640
:10201000FF70CDE90005694602942748FEF7D2FC1F
:102020004FF6FF70CDE90005694602942348FEF79C
:10203000C9FC49F6F870CDE90005694602942048CC
:10204000FEF7C0FC40F63A70CDE9000569460294FF
:102050001C48FEF7B7FC4EF2BC70CDE9000569469E
:1020600002941948FEF7AEFC4BF63F40CDE900055F
:10207000694602945046FEF7A5FC0097CDE901643D
:10208000694648460394FEF79DFC44F240000090E8
:10209000CDE90164694650460394FEF793FC06B00F
:1020A000BDE8F087303802400010024000180240BE
:1020B0000014024000040240000C024000080240EC
:1020C0000000024000200240001C0240104810B5F1
:1020D0000E4901604FF48271416000218160C1604E
:1020E0004FF400720161C0E90512C16101624162F1
:1020F00081620A21C162FFF709F9002805D0BDE815
:1021000010404F2103A001F076BE10BD00500140E9
:10211000E80000202E2E2F5372632F7370692E63F8
:102120000000000010B5144888B012490160592120
:102130000024C0E90114C4600461FFF768FC20B109
:102140004FF49A710DA001F056FE6020CDE9000415
:1021500002940022694608480494FFF7F0FB20B17E
:1021600040F23D1105A001F046FE0348FFF774FB65
:1021700008B010BD001800406C0200202E2E2F5316
:1021800072632F74696D2E630000000010B5234840
:102190008AB04FF08041016059210024C0E9011448
:1021A00040F6D631C0E90314FFF731FC18B14D21D8
:1021B0001BA001F020FE079407A918480894FFF718
:1021C00046FA18B1542116A001F015FE6020CDE9A1
:1021D000000402940022694610480494FFF7AFFB04
:1021E00018B15D210EA001F006FE042269460B48DD
:1021F000FFF7A5FB18B1622109A001F0FCFD082240
:1022000069460648FFF79BFB18B1672104A001F05F
:10221000F2FD0248FFF720FB0AB010BD400100208C
:102220002E2E2F5372632F74696D2E6300000000F1
:1022300010B51A488AB01849016059210024C0E934
:10224000011440F2E731C0E90314FFF7E0FB18B1D5
:102250007A2113A001F0CFFD079407A90F48089435
:10226000FFF7F5F918B181210DA001F0C4FD602040
:10227000CDE9000402940422694608480494FFF75B
:102280005EFB18B18A2106A001F0B5FD0348FFF7F7
:10229000E3FA0AB010BD0000000400407C010020F9
:1022A0002E2E2F5372632F74696D2E630000000071
:1022B00010B524488AB02249016059210024C0E9A0
:1022C000011440F6D631C0E90314FFF7A0FB18B1A2
:1022D0009D211DA001F08FFD079407A919480894BE
:1022E000FFF7B5F918B1A42117A001F084FD602013
:1022F000CDE9000402940022694612480494FFF7D5
:102300001EFB18B1AD2110A001F075FD0422694635
:102310000C48FFF714FB18B1B2210BA001F06BFDC4
:10232000082269460748FFF70AFB18B1B72106A043
:1023300001F061FD0348FFF78FFA0AB010BD0000FD
:1023400000080040B80100202E2E2F5372632F7416
:10235000696D2E630000000010B524488AB0224940
:10236000016059210024C0E9011440F6D631C0E9CA
:102370000314FFF74CFB18B1CA211DA001F03BFD6F
:10238000079407A919480894FFF761F918B1D121FA
:1023900017A001F030FD6020CDE900040294042272
:1023A000694612480494FFF7CAFA18B1DA2110A05E
:1023B00001F021FD082269460C48FFF7C0FA18B168
:1023C000DF210BA001F017FD0C2269460748FFF73B
:1023D000B6FA18B1E42106A001F00DFD0348FFF79D
:1023E0003BFA0AB010BD0000000C0040F4010020D0
:1023F0002E2E2F5372632F74696D2E630000000020
:1024000010B5314890B02F49016059210024C0E92E
:10241000011440F6D631C0E903144461FFF7F7FA1E
:1024200018B1F92129A001F0E6FC0E940EA9264866
:102430000F94FFF70CF920B14FF4807123A001F045
:10244000DAFC6020CDE9000402940394049405941E
:10245000042269461C480694FFF771FA20B14FF434
:1024600086711AA001F0C7FC082269461648FFF7DA
:1024700066FA20B140F2111114A001F0BCFC0C224C
:1024800069461148FFF75BFA20B14FF48B710FA03A
:1024900001F0B1FC0794089409944FF400500A9499
:1024A000CDE90B4007A908480D94FFF7A3F820B128
:1024B0004FF4917105A001F09EFC0348FFF7CCF9A1
:1024C00010B010BD00040140300200202E2E2F530A
:1024D00072632F74696D2E63000000000F4810B501
:1024E0000D4901600E4941604FF480518160002127
:1024F0004FF48062C0E903120C22C0E90521C161DA
:10250000FFF7CCFB002805D0BDE810404E2105A008
:1025100001F071BC10BD000000100140A8020020B5
:10252000A08601002E2E2F5372632F757361727473
:102530002E630000FEE700002DE9F04700EE101AC0
:102540000446F8EE400A9FED670A60EE800AFCEE52
:10255000E00A10EE900A00EE902A1FFA80F9F8EED9
:10256000600A60EE800AFCEEE00A10EE900A00EECF
:10257000903A87B2F8EE600A60EE800AFCEEE00A5C
:1025800010EE900A0604360C0AD100EE909AF8EE8E
:10259000600A20EE800ABCEEC00A10EE100A86B275
:1025A000DFF844A1B4F5397F27D027DCB4F5DC7F10
:1025B00035D011DCB4F5A57F7ED006DCB4F5837F81
:1025C00041D0B4F5937F43D179E0A4F580705D38B4
:1025D0007BD02B283CD17BE040F24B21A4F24B2056
:1025E0008C426CD005DCB4F5F77F77D040302FD12A
:1025F00029E0482866D06F282AD166E040F22651AB
:10260000A4F226508C425DD011DCB4F5777F65D002
:1026100006DCB4F5447F5BD0B4F55C7F18D15AE09A
:10262000A4F5806016380ED0812811D147E04F28DC
:102630004BD0FA284CD0B0F5DD7F4CD0A0F500701F
:10264000923805D14AE0002202215046FEF7A0FA56
:102650002648274DB0FBF4F12A68D162B0FBF4F0B4
:1026600000244FF03208E860296860004863B7FB37
:10267000F8F0FEF795F9641CE4B2322CF4D3F01BA9
:10268000FEF78EF9474600244FF06408A9EB0606D2
:10269000614208EB41002968486396FBF7F0FEF7BA
:1026A0007FF9641CE4B2322CF2D35046BDE8F04707
:1026B00001224FF6FF7100E004E0FEF769BA002244
:1026C0000421C2E700220821BFE700221021BCE755
:1026D00000222021B9E700224021B6E70022802114
:1026E000B3E70000CDCC4C3F0018024040420F0041
:1026F0006C02002000EE101A70B5B8EE400A0446D5
:10270000DFED440A444EB4F5397F20EE200ABCEEDA
:10271000C00A10EE100A85B26FD027DCB4F5DC7F5A
:1027200071D011DCB4F5A57F64D006DCB4F5837FED
:1027300041D0B4F5937F43D159E0A4F580705D3862
:102740005BD02B283CD15BE040F24B21A4F24B2024
:102750008C424CD005DCB4F5F77F57D040302FD1F8
:1027600029E0482846D06F282AD146E040F2265179
:10277000A4F226508C423DD011DCB4F5777F45D0D1
:1027800006DCB4F5447F3BD0B4F55C7F18D13AE069
:10279000A4F5806016380ED0812811D127E04F288B
:1027A0002BD0FA282CD0B0F5DD7F2CD0A0F500700E
:1027B000923805D12AE0002202213046FEF7E8F9DE
:1027C00016491748B1FBF4F20368DA62B1FBF4F181
:1027D000C1600068642141632846FEF7E1F8304695
:1027E000BDE8704001224FF6FF71FEF7D1B900221B
:1027F0000421E2E700220821DFE700221021DCE7C4
:1028000000222021D9E700224021D6E700228021A2
:10281000D3E70000CDCC4C3F0018024040420F00EF
:102820006C0200202DE9FF5F00EE102A2DED028BD7
:102830000446F8EE400A9DED101A9FED780AB4F5B3
:10284000397F60EE800AFCEEE00A10EE900A00EE9E
:10285000903A1FFA80F9F8EE600A60EE800AFCEE0A
:10286000E00A10EE900AF8EE410A86B220EE800AE5
:10287000BCEEC00A10EE100A87B227D027DCB4F5F0
:10288000DC7F35D011DCB4F5A57F7CD006DCB4F557
:10289000837F41D0B4F5937F43D1ADE0A4F5807040
:1028A0005D3813D02B283CD1AFE040F24B21A4F28D
:1028B0004B208C4223D005DCB4F5F77F2BD0403081
:1028C0002FD129E048285ED06F282AD19AE040F223
:1028D0002651A4F226508C4255D011DCB4F5777FF6
:1028E00019D006DCB4F5447F7ED0B4F55C7F18D1F6
:1028F0008EE0A4F5806016380ED0812811D17BE0DF
:102900004F287FD0FA286FD0B0F5DD7F6ED0A0F5CC
:102910000070923805D17EE0002202214048FEF787
:1029200037F94049DFF80081B1FBF4F2D8F8003004
:10293000DA62B1FBF4F1C8F80C10D8F80000642199
:1029400041633046FEF72CF8C246039800259FED00
:10295000378ADFED378AA7EB06084FF0320B061BEC
:1029600000EE106AB8EEC00AC0EE080A00EE105A77
:10297000B8EE401A00EE104AB8EE400A00EE810AA6
:10298000C8EE800A00E03AE0BCEEE00ADAF8002087
:1029900010EE101AD16200EE106A98FBFBF0B8EE50
:1029A000C00AC0EE080A00EE105AB8EE401A00EE57
:1029B000104AB8EE400A00EE810AC8EE800ABCEE6A
:1029C000E00A8AED030AFDF7EBFF6D1CEDB2322D34
:1029D000C6D3A9EB0700FDF7E3FF01224FF6FF7115
:1029E0000F48BDEC028B02E00FE00BE010E004B0FA
:1029F000BDE8F05FFEF7CCB8002204218EE700228C
:102A000008218BE70022102188E70022202185E79A
:102A10000022402182E7002280217FE7CDCC4C3F7D
:102A20000018024040420F006C02002000004842A3
:102A3000002474492DE9F04100240A4F054664261C
:102A40004FF032083968604206EB40004863B5FB3E
:102A5000F8F0FDF7A5FF641CE4B2322CF2D3BDE818
:102A6000F08100006C02002070470907090E002861
:102A700006DA00F00F0000F1E02080F8141D704726
:102A800000F1E02080F80014704738B50B46009242
:102A900004460022802100F008F8002804D0606D70
:102AA00040F020006065032038BD2DE9F0411D464F
:102AB00017460E460446DDF8188035E0681C33D012
:102AC0002DB1FEF76BF8A0EB0800A8422CD32068CC
:102AD000416821F0E00141606068B0F5827F0BD170
:102AE000A068B0F5004F02D0B0F5806F04D1206827
:102AF000016821F040010160A06AB0F5005F0AD1D1
:102B0000206801684DF6FF7211400160206801687D
:102B100041F400510160012084F85100002084F844
:102B200050000320BDE8F0812068806836EA00008C
:102B300004D00020B842C1D10020F3E70120F9E71A
:102B4000534D524F4FF0FF39002605F11A04002370
:102B50004A461946786802F08DFA0020295C19B9B6
:102B6000401CC0B21228F9D31228F0D01220295CE0
:102B700031B112202E54401CC0B21928FAD3E6E716
:102B8000401CC0B21928F2D3E1D1288894F81880EB
:102B900094F819A0E38BC0F30A0CA4F800C068787D
:102BA000ACF5806CC108A87841EA4011C1F30A0174
:102BB0006180EA78800940EA8202287942EA80222C
:102BC000C2F30A02A28093466A79400840EAC21022
:102BD000C0F30A00E080A4F80AC00CF1040CBCF1B8
:102BE000090F00D26681A1F58061A181091D092923
:102BF00000D2A681ABF58061E181091D092900D2CF
:102C0000E681A0F580602082001D092800D226827E
:102C100090092072C2F301106072E88860822889EE
:102C2000A0826889E082297B2176687B6076EA89C8
:102C3000E28328B9BAF1000F02D04FF0010C01E095
:102C40004FF0000C84F81DC029B9B8F1000F02D074
:102C50004FF0010C01E04FF0000C84F81CC011B1E2
:102C6000B8F1000F0ED00021A17610B1BAF1000F1B
:102C70000AD00020E07682EA0300904320849A4341
:102C8000628464E70121EFE70120F3E77800002088
:102C900074400020012001F01FFCFBE700B585B067
:102CA00000211348FEF71EFFFDF720FCFFF7CCF8CC
:102CB00001224FF4FF710F48FDF76AFF0122D10294
:102CC0000D48FDF765FF012291030C48FDF760FFF9
:102CD00014220B496846FDF714FB0021684601F0F9
:102CE00011FC08490860002001F023FC05B000BD7C
:102CF0006C02002000180240001002400014024044
:102D0000385800088400002008B5FE4F40F2EE2934
:102D10000021FD48FEF7E6FE387A032804D0494634
:102D20000020FFF7E7FCF3E7642432234FF47A72C4
:102D300040F20B214FF4F7700094FFF773FD4FF44E
:102D4000AF754FF4FA712B463222881FFFF7F4FB60
:102D50004FF4E1700090A3004FF4FA724FF4DC716D
:102D600040F20B20FFF75EFD4FF47A7332221946D2
:102D70004FF4DC70FFF7E0FBA30032224FF4FA714E
:102D80004FF4DC70FFF7D8FBA30032224FF4FA7146
:102D900040F20B20FFF7D0FBA30032224FF4FA7170
:102DA00040F24B20FFF7C8FB4FF4FA71A300322228
:102DB000881FFFF7C1FB4FF4FA71A3003222881F6E
:102DC000FFF7BAFBC8233222FA214FF4DC70FFF779
:102DD000B3FB4FF416784346322249464FF4DC7079
:102DE000FFF7AAFB4FF4C47AC82332224FF4FA71DA
:102DF0005046FFF7A1FB4FF4A57BC82332224FF4C6
:102E0000FA715846FFF798FB002332224FF4FA710B
:102E10005046FFF791FB00233222494640F20B2037
:102E2000FFF78AFB0023322249464FF4F770FFF781
:102E300083FB002332224FF4FA7140F20B20FFF79C
:102E40007BFB0023322249464FF4DC70FFF774FB12
:102E500000233222FA2140F20B20FFF76DFB002302
:102E600032224FF4FA714FF4DC70FFF765FB002358
:102E700032224FF4FA7140F20B20FFF75DFBA00005
:102E80004FF49676009033464FF47A7240F24B211D
:102E900040F20B20FFF7C6FC4FF4FA60FFF7CAFDC3
:102EA000002332224FF4FA715846FFF745FB002306
:102EB00032224FF4FA715046FFF73EFB00233222D4
:102EC0004FF47A7140F20B20FFF736FB4FF4FA71A2
:102ED0002B463222881FFFF72FFBFA235A00911F3F
:102EE00040F20B200095FFF79DFC4FF47A733222DD
:102EF00019464FF4DC70FFF71FFBA30032224FF49A
:102F0000FA714FF4DC70FFF717FBA30032224FF485
:102F1000FA7140F20B20FFF70FFBA30032224FF4AF
:102F2000FA7140F24B20FFF707FB4FF4FA71A30050
:102F30003222881FFFF700FB4FF4FA71A300322200
:102F4000881FFFF7F9FAC8233222FA214FF4DC7008
:102F5000FFF7F2FA4346322249464FF4DC70FFF79E
:102F6000EBFAC82332224FF4FA715046FFF7E4FA25
:102F7000C82332224FF4FA715846FFF7DDFA0023D6
:102F800032224FF4FA715046FFF7D6FA002332226C
:102F90004FF47A7140F20B20FFF7CEFA4FF4FA713A
:102FA00000233222881FFFF7C7FA002332224FF492
:102FB000FA7140F20B20FFF7BFFA32234FF4FA7296
:102FC00040F2932140F20B200094FFF72BFCFA20F3
:102FD000FFF730FD00233222FA2140F29320FFF761
:102FE000ABFA002332224FF4FA7140F29320FFF73C
:102FF000A3FA0023322240F6C41140F24B20FFF71F
:103000009BFA002332224FF4FA711846FFF794FA24
:10301000002332224FF4FA7140F29320FFF78CFA2A
:10302000002332224FF4FA7140F24B20FFF784FA6A
:1030300000233222FA2140F20B20FFF77DFA002311
:10304000322249464FF4DC70FFF776FA0023322231
:103050004FF4FA7140F29320FFF76EFA0023322208
:103060004FF4FA7140F24B20FFF766FA0023322248
:10307000FA2140F20B20FFF75FFA0023322240F2E0
:10308000E2414FF4DC70FFF757FA002332224FF48D
:10309000FA711846FFF750FA00233222FA214FF452
:1030A000DC70FFF749FA00233222FA2140F20B20AC
:1030B000FFF742FA002332224FF4FA7140F24B201C
:1030C000FFF73AFA00233222FA214FF4F770FFF7A4
:1030D00033FA00233222FA214FF4F770FFF72CFA6B
:1030E0004FF4FA7100233222881FFFF725FA0023DC
:1030F0003222FA214FF4DC70FFF71EFA002332224D
:10310000FA2103E08E4000206C0200204FF4DC70B6
:10311000FFF712FAA3004FF47A7251464FF4DC70B5
:10312000CDF80080FFF77EFB002332224FF4FA71C6
:1031300040F29320FFF700FA002332224FF4FA7195
:1031400040F24B20FFF7F8F9002332224FF4FA71D6
:1031500040F20B20FFF7F0F9002332224FF4FA710E
:1031600040F29320FFF7E8F9002332224FF4FA717E
:1031700040F24B20FFF7E0F900233222FA2140F21F
:103180000B20FFF7D9F940F2BA250023322240F292
:10319000E2412846FFF7D0F9002332224FF4FA71BA
:1031A0001846FFF7C9F900233222FA214FF4DC70E8
:1031B000FFF7C2F900233222FA2140F20B20FFF779
:1031C000BBF900233222FA2140F24B20FFF7B4F979
:1031D00000233222FA2140F24B20FFF7ADF9002301
:1031E0003222FA2140F24B20FFF7A6F900233222C7
:1031F000FA2140F24B20FFF79FF9002332224FF4CF
:10320000FA7140F24B20FFF797F900233222FA219E
:1032100040F29320FFF790F900233222FA2128464A
:10322000FFF78AF9002332224FF4FA712846FFF79C
:1032300083F9002332224FF4FA7140F29320FFF712
:103240007BF9002332224FF4FA7140F20B20FFF792
:1032500073F9002332224FF4FA7140F24B20FFF74A
:103260006BF9AF2564234FF4FA7240F2932140F2D8
:103270004B200095FFF7D6FA002332224FF4FA7163
:1032800040F29320FFF758F94FF4447A64234FF447
:10329000FA72514640F293200095FFF7C3FA4FF4BB
:1032A0005C7B00233222FA215846FFF745F9C823F8
:1032B0004A46594650460096FFF7B4FA0023322298
:1032C0004FF4FA7140F20B20FFF736F90023322257
:1032D0004FF4FA7140F20B20FFF72EF932234FF42E
:1032E000FA7240F2932140F20B200094FFF79AFA11
:1032F00040F2B630009040F252334FF47A7240F20E
:103300000B2140F24B20FFF78DFA002332224FF4BD
:10331000FA7140F20B20FFF70FF9002332224FF42D
:10332000FA7140F24B20FFF707F9002332224FF4E5
:103330007A7140F29320FFF7FFF8002332224FF416
:10334000FA7140F20B20FFF7F7F8002332224FF416
:10335000FA7140F24B20FFF7EFF864234FF4FA7252
:1033600040F2932140F24B200095FFF75BFA0023D7
:1033700032224FF4FA7140F29320FFF7DDF8642314
:103380004FF4FA72514640F293200095FFF74AFA43
:1033900000233222FA215846FFF7CEF8C8234A46C6
:1033A000594650460096FFF73DFA002332224FF46B
:1033B000FA7140F20B20FFF7BFF8002332224FF4DE
:1033C000FA7140F20B20FFF7B7F832234FF4FA728C
:1033D00040F2932140F20B200094FFF723FA4FF4C0
:1033E000617000904B464FF47A7240F20B2140F22C
:1033F0004B20FFF717FA002332224FF4FA7140F204
:103400000B20FFF799F84FF4FA723223911F40F224
:103410000B200094FFF706FA002332224FF47A7152
:1034200040F20B20FFF788F8002332224FF4FA71A4
:1034300040F20B20FFF780F8002332224FF4FA719C
:1034400040F24B20FFF778F864234FF4FA7240F211
:10345000932140F24B200095FFF7E4F9002332223C
:103460004FF4FA7140F29320FFF766F832234FF4DD
:10347000FA72514640F293200094FFF7D3F90023EB
:103480003222FA215846FFF757F89620009064231D
:103490004A4659465046FFF7C5F9002332224FF4F9
:1034A000FA7140F20B20FFF747F8002332224FF465
:1034B000FA7140F20B20FFF73FF832234FF4FA7213
:1034C00040F2932140F20B200094FFF7ABF9E600A5
:1034D00043464FF47A7240F20B2140F24B200096A3
:1034E000FFF7A0F9002332224FF4FA7140F20B20CB
:1034F000FFF722F8002332224FF4FA7140F24B20FA
:10350000FFF71AF86423324640F2932140F24B2031
:103510000095FFF787F99620FFF78CFA00233222F7
:103520004FF4FA7140F20B20FFF706F80023322225
:103530004FF4FA7140F24B20FEF7FEFF64234FF484
:10354000FA7240F2932140F24B200095FFF76AF99E
:10355000002332224FF4FA7140F29320FEF7ECFF81
:1035600032234FF4FA72514640F293200094FFF751
:1035700059F900233222FA215846FEF7DDFF3223A3
:103580004A46594650460094FFF74CF90023322230
:103590004FF4FA7140F20B20FEF7CEFF00233222E7
:1035A0004FF4FA7140F20B20FEF7C6FF32234FF4BE
:1035B000FA7240F2932140F20B200094FFF732F9A7
:1035C000002332224FF4FA7140F24B20FEF7B4FF91
:1035D00000233222FA2140F20B20FEF7ADFF002338
:1035E0003222494640F20B20FEF7A6FF3223324634
:1035F0004FF4F77140F20B200094FFF713F9962077
:10360000FFF718FAFA2340F2DC5240F20B214FF494
:10361000F770CDF80090FFF705F940F2DC50FFF7A6
:1036200009FAFFF775BB00F063BF000030B526480C
:1036300093B00025016841F080510160006800F0FE
:10364000805011902148016841F4404101600068B8
:10365000022400F4404011900120009000040190E9
:103660008001CDE9064008200890F020CDE909044A
:1036700004200B906846FDF7BBFC00B1FEE7FDF7A8
:103680006FFB00B1FEE70CA90F2081E831004FF479
:10369000A0500F90109005210CA8FDF799FB00B1E8
:1036A000FEE7FDF74DFC4FF47A71B0FBF1F0FDF74A
:1036B0008BFF0420FDF77CFF00220F21501EFDF739
:1036C0001DFB13B030BD00004038024000700040C8
:1036D0001048016841F4700101600F48016841F031
:1036E000010101600C4A00210832116002680B4B95
:1036F0001A400260031D0A4A1A60026822F48022FE
:10370000026005480C3001600249580680390860A3
:103710007047000088ED00E000380240FFFFF6FE31
:10372000103000240148FDF7E3BF000048030020EB
:10373000F0B50268234B244D244E254F254C4FF005
:10374000804C984209D0604507D0A84205D0B042CD
:1037500003D0B84201D0A04204D122F0700E4A68D2
:1037600042EA0E0298421BD0604519D0A84217D0F9
:10377000B04215D0B84213D0A04211D0164DA84285
:103780000ED0164DA8420BD0154DA84208D0154DAD
:10379000A84205D0144DA84202D0144DA84203D12E
:1037A00022F44075CA682A4302608A68C2620A68C5
:1037B0008262984201D0A04201D1096901630121CE
:1037C0004161F0BD000001400004004000080040DD
:1037D000000C004000040140004001400044014052
:1037E0000048014000180040001C0040002000403C
:1037F00010B50123046A8B409C430462036A8A402B
:103800001343036210BD000030B5026A22F00102CA
:103810000262026A436884690D6824F073042543D8
:1038200022F002048A6822430B4CA04202D00B4CC7
:10383000A0420BD122F00804CA6823F4407322434B
:103840004C6922F004021C438B6923434360856169
:1038500049684163026230BD00000140000401403C
:1038600030B5026A22F010020262026A436884697B
:103870000D6824F4E64444EA05248D6822F0200211
:1038800042EA05120D4DA84202D00D4DA8420ED1BC
:10389000CD6822F0800242EA05124D6923F44063AC
:1038A00043EA85038D6922F0400243EA85034360C1
:1038B000846149688163026230BD000000000140FC
:1038C0000004014030B5026A22F480720262036A89
:1038D0004268C46923F4007324F073050C682C4318
:1038E0008D6843EA05230D4DA84202D00C4DA84235
:1038F0000ED1CD6823F4006343EA05234D6922F419
:10390000405242EA05128D6923F4806342EA0512AF
:103910004260C4614968C163036230BD0000014078
:103920000004014030B5026A22F480520262046A47
:103930004268C3690D6823F4E64343EA05238D68B2
:1039400024F4005444EA0534084DA84202D0084D3E
:10395000A84204D14D6922F4804242EA85124260B5
:10396000C36149680164046230BD00000000014089
:103970000004014010B5806B0021C185C184FEF7B1
:1039800004F910BD70B5846B2068406994F8391053
:10399000C0F3C0100025212904D118B1E5842046C8
:1039A00000F046F82068406994F83A10C0F380109F
:1039B000222904D118B1E585204600F02BF8E06BF0
:1039C00040F01000E0632046FEF7DFF870BD10B550
:1039D0000146806B09680968C90513D40021C185B7
:1039E0000168CA6822F48072CA6001684A6922F0DC
:1039F00001024A6101684A6922F040024A612021BD
:103A000080F83A10FEF71CFA10BD10B5806BFEF777
:103A100018FA10BD0168CA6822F49072CA60016881
:103A20004A6922F001024A61202180F83A10704769
:103A30000168CA6822F0C002CA60202180F83910EB
:103A4000704710B590F83A10222901D0022010BD1D
:103A50008168B1F5805F11D00169002901681FD02C
:103A6000496801F07F03816A4A1C82620B70C18D34
:103A7000491E0904090CC18518D026E00269816A33
:103A8000002A0268526805D0D2B20A80816A491CB5
:103A90008162ECE7C2F308020A80816A891CF7E7B9
:103AA0004A68816A4B1C83620A70E0E70168CA6851
:103AB00022F49072CA6001684A6922F001024A61E8
:103AC000202180F83A10FEF7BBF9002010BD00005D
:103AD0002DE9F04104460068016921F44052E16893
:103AE000114301612168C86849F20C62904323695F
:103AF000A268E5691A4363692B431A430243CA600B
:103B00002168486920F44072A06910434861E16966
:103B10006425B1F5004F9748974A21684FF0320865
:103B20003FD0914201D081427CD1FDF71FFA00EBDA
:103B3000C00101EB001061688900B0FBF1F6FDF7F0
:103B400015FA00EBC00101EB001061688900B0FBC1
:103B5000F1F0B0FBF5F06FF01801484306EB80017F
:103B600008EB0110B0FBF5F000F0F006FDF7FEF9F0
:103B700000EBC00101EB001061688900B0FBF1F0BF
:103B8000B0FBF5F006EB0016FDF7F0F900EBC00115
:103B900001EB001061688900B0FBF1F7FDF7E6F971
:103BA000D2E0914201D081423DD1FDF7DFF900EB37
:103BB000C00101EB001061684900B0FBF1F0B0FBFF
:103BC000F5F00601FDF7D2F900EBC00101EB0010A2
:103BD00061684900B0FBF1F7FDF7C8F900EBC001DF
:103BE00001EB001061684900B0FBF1F0B0FBF5F0AB
:103BF0006FF01801484307EB800108EBC100B0FBF0
:103C0000F5F000F0F80006EB4006FDF7AFF900EB29
:103C1000C00101EB001061684900B0FBF1F7FDF74E
:103C2000A5F93CE055E0FDF791F900EBC00101EB8F
:103C3000001061684900B0FBF1F0B0FBF5F006013F
:103C4000FDF784F900EBC00101EB00106168490049
:103C5000B0FBF1F7FDF77AF900EBC00101EB0010C2
:103C600061684900B0FBF1F0B0FBF5F06FF01801AE
:103C7000484307EB800108EBC100B0FBF5F000F012
:103C8000F80006EB4006FDF761F900EBC00101EB1F
:103C9000001061684900B0FBF1F7FDF757F900EB40
:103CA000C00101EB001061684900B0FBF1F0B0FB0E
:103CB000F5F06FF01801484307EB800108EBC100F5
:103CC000B0FBF5F000F00700216830448860BDE8E3
:103CD000F081FDF73BF900EBC00101EB00106168DA
:103CE0008900B0FBF1F6FDF731F900EBC00101EB03
:103CF000001061688900B0FBF1F0B0FBF5F06FF0E7
:103D00001801484306EB800108EB0110B0FBF5F009
:103D100000F0F006FDF71AF900EBC00101EB00100E
:103D200061688900B0FBF1F0B0FBF5F006EB00161E
:103D3000FDF70CF900EBC00101EB00106168890090
:103D4000B0FBF1F7FDF702F900EBC00101EB001049
:103D500061688900B0FBF1F0B0FBF5F06FF018017D
:103D6000484307EB800108EB0110B0FBF5F000F0D1
:103D70000F00A9E7001401400010014090F839102D
:103D8000212901D0022070478168B1F5805F016A66
:103D90000BD04A1C0262026809785160C18C491E2E
:103DA0000904090CC1840ED017E009880268C1F328
:103DB0000801516001690029016A02D0491C0162B1
:103DC000ECE7891CFBE70168CA6822F08002CA6040
:103DD0000068C16841F04001C160002070470000E8
:103DE00010B5FCF759FBBDE810400148FDF7CEBE09
:103DF000A8020020FEE7FEE72DED020B019820F05F
:103E0000004001909DED000B02B0704702E008C831
:103E1000121F08C1002AFAD170477047002001E044
:103E200001C1121F002AFBD17047000010B559488C
:103E30002DED0A8BB0F90610B0F908009FED569BE6
:103E4000DFED57BA574C9FED588A9FED58BADFED1A
:103E500058AA9FED58AADFED588A00294EDA9FED47
:103E600057CA00282ADA91FBF0F0FCF75CFA41EC23
:103E7000100BFFF7C1FF53EC192B51EC100BFCF7A3
:103E800063FA0AD8C4ED01BA84ED028A9FED4C0AA8
:103E900084ED030A9FED4B0A0BE09FED4B0A84ED86
:103EA000010A9FED4A0A84ED020A84ED03BA9FEDF0
:103EB000480A84ED040ABDEC0A8B10BDFBDD91FBC2
:103EC000F0F0FCF730FA41EC100BFFF795FF53ECE4
:103ED000192B51EC100BFCF737FA84ED01CA06D808
:103EE00084ED028AC4ED03AA9FED3A0AE1E784ED6E
:103EF00002AAC4ED038A9FED380ADAE7DBDD002869
:103F00009FED36CA22DD91FBF0F0FCF70CFA41EC94
:103F1000100BFFF771FF53EC192B51EC100BFCF752
:103F200013FA0AD89FED2E0A84ED010AC4ED02AA05
:103F300084ED038AC4ED04BABDE79FED2A0A84ED3F
:103F4000010AC4ED028A84ED03AAB2E7B3DA91FB59
:103F5000F0F0FCF7E8F941EC100BFFF74DFF53ECE4
:103F6000192B51EC100BFCF7EFF984ED01CA08D8BE
:103F70009FED1D0A84ED020A84ED038A9FED1B0A62
:103F800097E79FED1B0A84ED02BA84ED030A9FEDCB
:103F9000190A8EE7B4400020000000000000F03F46
:103FA0000AD7A3BB88000020A8C64BBEE17A543FC5
:103FB000355E7ABF68910DBFE17A54BF0AD7A33B43
:103FC000BE9F7A3F4ED111BC6F1203BC7B140EBF53
:103FD0006F1203BBA69B443C99BB16BB0AD7233B7D
:103FE00052499D3A99BB163B355E7A3F6F12033CAE
:103FF000295C0FBFBC74933B10B530216A2000F0E0
:1040000041FA0A20FCF7CCFC0D21242000F03AFAFA
:104010000A20FCF7C5FC0E21282000F033FA0A2004
:10402000FCF7BEFC8E21312000F02CFA0A20FCF7B0
:10403000B7FC01210B2000F07BF80A20FCF7B0FC54
:10404000002000F059F8102801D0012010BD0121F6
:104050000B2000F06DF80A20FCF7A2FC00210A20DA
:1040600000F066F80A2000F047F808B1022010BD01
:104070000A20FCF795FC00210B2000F059F80B20DA
:1040800000F03AF808B1032010BD0A20FCF788FCC4
:104090002421412000F04CF8412000F02DF8242884
:1040A00001D0042010BD0A20FCF77AFCC021422078
:1040B00000F03EF8422000F01FF8C02801D0052093
:1040C00010BD0A20FCF76CFC00212A2000F0DAF970
:1040D0000A20FCF765FC0021342000F0D3F90A2007
:1040E000FCF75EFC062203210E2000F0B1F86420EC
:1040F000FCF756FC002010BD10B50146322000F040
:10410000C1F90A20FCF74CFC8021342000F0BAF9F8
:104110000A20FCF745FC352000F054F90446002144
:10412000342000F0AFF90A20FCF73AFC204610BD1D
:1041300070B50D46044600212A2000F0A3F90220A4
:10414000FCF72EFC2146292000F09CF90220FCF708
:1041500027FC2946642000F095F90220FCF720FC9A
:1041600081212A2000F08EF9BDE870400A20FCF77A
:1041700017BC0000FCF720FDFFF758FAFDF7A0FE82
:10418000FDF76AFEFDF7A2FFFEF700F8FEF750F814
:10419000FEF78EF8FEF7E0F8FEF732F9FDF7C2FF02
:1041A000FEF79CF90948FDF732FC0948FDF72FFCA2
:1041B0000848FDF72CFC0848FDF729FC0748FDF7E7
:1041C00026FCFDF75FFE00F08EF9FEE740010020BF
:1041D0007C010020B8010020F40100203002002002
:1041E00001460020842900D0C81C704730B585B036
:1041F0006420FCF7D5FB752000F0E4F81249002498
:104200001422887011496846FCF77BF84FEA0D05C7
:1042100005EB4400417815F8140000F033F9012053
:10422000FCF7BEFB641CE4B20A2CF1D3032000F0BF
:1042300024F9022000F01CF9FFF7DEFE00F050F830
:1042400005B0002030BD0000880000204C58000858
:1042500070B50E46044601461546282000F012F9B6
:104260000220FCF79DFB0A21292000F00BF9022017
:10427000FCF796FB0121642000F004F90220FCF712
:104280008FFB44F08001252000F0FCF80220FCF7B1
:1042900087FB3146262000F0F5F80220FCF780FB72
:1042A0000321342000F0EEF80220FCF779FB032113
:1042B000672000F0E7F80220FCF772FB81212A203A
:1042C00000F0E0F80620FCF76BFB45F080012720AA
:1042D00000F0D8F8BDE870400220FCF761BB000098
:1042E0002DE9F041354D002605F110044FF4FA7721
:1042F0000E2232493B2000F08DF82988A08B49BA64
:104300000844A0836988E08B49BA0844E083A988FF
:10431000208C49BA084420842889D4ED090A40BA7F
:1043200000B200EE100AB8EEC00A30EE800A84ED4A
:10433000090A6889D4ED0A0A40BA00B200EE100AF0
:10434000B8EEC00A30EE800A84ED0A0AA889D4EDDE
:104350000B0A40BA00B200EE100A0320B8EEC00A01
:1043600030EE800A84ED0B0AFCF71AFB761CBE4285
:10437000BEDBB4F91C009FED120A90FBF7F0A0839E
:10438000B4F91E0090FBF7F0E083B4F9200090FB35
:10439000F7F02084D4ED090A80EE801A84ED091A22
:1043A000D4ED0A0A80EE801A84ED0A1AD4ED0B0AC5
:1043B00080EE801A84ED0B1ABDE8F081E840002001
:1043C0000000FA43F8B5104E044600224021304662
:1043D000FCF7DEFB44F080000C4C3725621C20709B
:1043E0000123511E0A480095FCF7F6FF621C0123C9
:1043F000511E07480095FCF7EFFF0122402130468F
:10440000FCF7C6FB6078F8BD00140240880000206D
:10441000E8000020F8B5134F15460E46044600226A
:1044200040213846FCF7B4FB0F4944F080003724A4
:1044300008705231A1F151020870012352390B4822
:104440000094FCF7C9FF08492B4632465231074811
:104450000094FCF7C1FF012240213846FCF798FB8D
:104460000020F8BD0014024088000020E800002071
:10447000C006010E1C2000F005B8C006010E1B206E
:10448000AFF30080F8B5114F0E46044600224021DC
:104490003846FCF77DFB04F07F000D4C3725621C8D
:1044A00020700123511E0B480095FCF795FF2670E4
:1044B000621C0123511E07480095FCF78DFF012265
:1044C00040213846FCF764FB0020F8BD0014024090
:1044D00088000020E800002010B500B9012000F09D
:1044E000C7FB002010BD10B500F0B0FC002010BDCF
:1044F00010B501F019F8012803D0BDE8104000F014
:104500007FBD10BD3EB504460D46B0F90800FFF76B
:1045100067FE02A9CDE90001208A2B4682B2D4E9C8
:10452000001000F0D5FF012801D000203EBD029808
:104530003EBD10B500F0C2FB002010BD2DE9F041DA
:10454000184C0F460546E6682068001D00F0B0FADA
:1045500038B9206890F82C100120884021698143E7
:104560002161681C07D137B12168BDE8F0410E48D0
:10457000091D00F0D5BA20683544B5424560216870
:1045800005D2A06BBDE8F041091D00F0B1BA606B27
:10459000091D00F0ADFAA06A854200D2A562BDE80F
:1045A000F08100003C000020604000202DE9F04137
:1045B000054600F0C1FA2E4CA068401CA06020689F
:1045C0002C4F10B1606940B32DE02560A068012830
:1045D00029D1002606EB860007EB800000F07AFA6E
:1045E000761C072EF6D323488C3000F073FA21484E
:1045F000A03000F06FFA1F48B43000F06BFA1D488D
:10460000C83000F067FA1B48DC3000F063FA194844
:104610008C3060631430A06305E02068E96AC06AEA
:10462000884200D82560606A401C6062E96A012007
:10463000226988401043206101EB810007EB800074
:10464000291D00F06DFA00F097FA606900280CD07F
:104650002068E96AC06A884207D207494FF0805053
:104660000860BFF34F8FBFF36F8FBDE8F08100008C
:104670003C000020843F002004ED00E070B5114EA6
:10468000114C17E000F016FC3068B8B101F044F8A6
:1046900000F052FAF068C568281D00F009FAA06819
:1046A000401EA0606068401E606000F065FA284609
:1046B00000F055F860680028E4D170BD01F02CF8D6
:1046C000F8E700004C4000203C00002030B4026CB1
:1046D0000B46002A0BD0C1681144C1604468A14256
:1046E00001D30168C16030BC1846FBF70ABE30BC7C
:1046F00070472DE9F041856B174604460026026C91
:1047000082B1C7B1E068FBF7FCFDE168206C091AD3
:10471000E1602268914202D26168081AE060022FCB
:1047200016D017E02068A8B9606800F06FFF064651
:10473000002060600EE0A068FBF7E3FD216CA0683C
:104740000844A0606168884204D32068A06001E04A
:1047500005B16D1E6D1CA5633046BDE8F08110B536
:104760000446006B00F01CFA2046BDE8104000F043
:1047700017BA000010484FF47051420706D0C01D10
:104780000D4920F00700411AC1F570510B4A002372
:104790000144C2E900030839103A21F00701116011
:1047A0004B600B600B1AC0E9001393604FF00040A0
:1047B0005360D06070470000840300202800002070
:1047C000074C4FF08056074DFFF758FF206801282F
:1047D000FAD92E60BFF34F8FBFF36F8FF4E700005D
:1047E000843F002004ED00E02DE9F0479A46DDE922
:1047F000098481466FF00303206B03EB82021044AF
:10480000089D20F00706700707D0502080F311881C
:10481000BFF34F8FBFF36F8FFEE723180A5C83F857
:1048200034200A5C12B1401C1028F6D3002784F80B
:104830004370072D00D30625E562C4E91157201DFA
:1048400000F053F904F1180000F04FF92461C5F1AC
:1048500007006462A061E76484F8507052464946DC
:10486000304600F00FF92060B8F1000F01D0C8F811
:104870000040BDE8F087000030B5114900E0114666
:104880000A688242FBD34B685C18844203D14068BB
:1048900018444860084643681C18944209D1084CE3
:1048A000103C2468A24209D052681A4442600A6847
:1048B00012680260814200D0086030BD0460F9E7F0
:1048C0002800002010B5044600F036F9A06B28B18E
:1048D0005FF0000400F050F9204610BD0124F9E714
:1048E0000648416B096829B1416BC968C9684968C4
:1048F000816270474FF0FF31FAE700003C00002072
:1049000008484068401C4FF0500080F3118804D0E4
:10491000BFF34F8FBFF36F8FFEE7BFF34F8FBFF330
:104920006F8FFEE7300000202DE9F041044600F0D3
:1049300003F994F9455004F1240609E0606A48B18E
:10494000304600F0AFFE08B100F00EFA6D1E6DB2F9
:10495000002DF3DC4FF0FF3684F8456000F00CF9D1
:1049600000F0EAF894F9445004F1100709E02069D6
:1049700048B1384600F096FE08B100F0F5F96D1E1A
:104980006DB2002DF3DC84F84460BDE8F04100F026
:10499000F3B800002DE9F0410546002700F08AFA3F
:1049A000314E306808B9FFF7E5FEF06805424BD19B
:1049B000C5B3083568070ED005F00700C0F1080040
:1049C0000544680707D0502080F31188BFF34F8F4C
:1049D000BFF36F8FFEE72DB37068854234D822484D
:1049E000103001460C6801E020460C466168A9427F
:1049F00002D221680029F7D131688C4224D007689F
:104A00002168016060680837411B10290FD96019BF
:104A1000420708D0502080F31188BFF34F8FBFF3B7
:104A20006F8FFEE710E041606560FFF725FF61686A
:104A30007068401A7060B268904200D2B060F0684E
:104A400001430020C4E9000100F066FE780707D0AA
:104A5000502080F31188BFF34F8FBFF36F8FFEE7B5
:104A60003846BDE8F08100001800002004490868BD
:104A700018B10868826C521C826408687047000094
:104A80003C00002010B5031F4FF080741C601B1FFA
:104A900021F001011960191F044B0B6014390A60E1
:104AA000091F6FF0020244380A6010BD0149000876
:104AB000D0E9013201699A60D0E901235A604A685D
:104AC000824201D182684A60002202610868401E69
:104AD0000860704700F108014FF0FF32C0E9011291
:104AE000C1600161002101607047002101617047D0
:104AF00030B50B685A1C02D000F1080202E00269CE
:104B000004E02246546825689D42FAD953684B60F8
:104B100099608A60516008610168491C016030BD7C
:104B200042684A6093688B6093685960916008613D
:104B30000168491C01607047502080F31188BFF361
:104B40004F8FBFF36F8F0A494868401C48600128A7
:104B50000CD10848006810F0FF0F07D0502080F3F8
:104B60001188BFF34F8FBFF36F8FFEE770470000D0
:104B70003000002004ED00E00849486828B1401EDC
:104B8000486001D180F311887047502080F311886C
:104B9000BFF34F8FBFF36F8FFEE7000030000020A0
:104BA00070B5002827D0144DA0F108046168E868AA
:104BB000014207D1502080F31188BFF34F8FBFF31C
:104BC0006F8FFEE722683AB1502080F31188BFF35F
:104BD0004F8FBFF36F8FFEE78143616000F06AF98A
:104BE00060686968084468602046FFF745FEBDE8D4
:104BF000704000F091BD70BD1800002006484FF4D1
:104C00007A710068B0FBF1F14FF0E020491E41617C
:104C100007210161704700001400002010B5FBF768
:104C200029FB114910280ED300F1E02090F8F00381
:104C30000A78904207D2502080F31188BFF34F8F3B
:104C4000BFF36F8FFEE709480068896800F4E060F1
:104C5000884207D9502080F31188BFF34F8FBFF3EC
:104C60006F8FFEE710BD0000300000200CED00E06B
:104C700010B5020014D00F48006B38B1502080F3FB
:104C80001188BFF34F8FBFF36F8FFEE700F012F96B
:104C900000211046FFF752FC00F03EFD002807D12E
:104CA00005494FF080500860BFF34F8FBFF36F8FFF
:104CB00010BD00003C00002004ED00E070B505468A
:104CC000FFF73AFF254C05B92568281DFFF7F0FED0
:104CD00058B9E86A224A00EB800152F8211021B944
:104CE00001218140206988432061A86A18B105F13B
:104CF0001800FFF7DDFE606A401C60622068854294
:104D000008D11748291DC830FFF70AFF6068401C0A
:104D1000606007E0A068401EA0602846FFF71FFD06
:104D2000FFF7DEFDFFF728FF6069002814D0206838
:104D3000854211D1206B38B1502080F31188BFF328
:104D40004F8FBFF36F8FFEE706494FF0805008602A
:104D5000BFF34F8FBFF36F8F70BD00003C0000208A
:104D6000843F002004ED00E001490120C861704744
:104D70003C00002010B50C4650B1094909681831B3
:104D8000FFF7B6FE2046BDE810400121FFF7D6BB75
:104D9000502080F31188BFF34F8FBFF36F8FFEE772
:104DA0003C00002070B5040039D01D4DE06A296830
:104DB000C96A884233D2A069002804DB2868C06A27
:104DC000C0F10700A061E16A164E01EB8101606944
:104DD00006EB810188421FD1201DFFF769FE0121EA
:104DE00050B9E06A00EB800256F8222022B92A6905
:104DF00001FA00F082432A612868C06AE0622A69E9
:104E000081401143296100EB800006EB8000211DE9
:104E1000BDE87040FFF784BE2868C06AE06270BDDC
:104E20003C000020843F002028B107490A6A026044
:104E3000C96841607047502080F31188BFF34F8FDD
:104E4000BFF36F8FFEE700003C0000201CB5154843
:104E50000024CDE900402346802213A1144800F02D
:104E600037FB012809D0401C1AD1502080F311884B
:104E7000BFF34F8FBFF36F8FFEE7502080F3118891
:104E8000BFF34F8FBFF36F8F06484FF0FF312C38C1
:104E9000816201214161C460BDE81C4000F040B85E
:104EA0001CBD00006800002049444C450000000083
:104EB000C14700080248016B491C016370470000AC
:104EC0003C0000201448016B11B10121C161704701
:104ED0000021C1610169B1FA81F1C1F11F0101EB4A
:104EE00081020E4951F822306BB101EB820101F1D0
:104EF00008034A6852684A609A4201D152684A607F
:104F0000D16801607047502080F31188BFF34F8F44
:104F1000BFF36F8FFEE700003C000020843F0020BD
:104F20001CB532480168324A914207D1502080F3C3
:104F30001188BFF34F8FBFF36F8FFEE700682C49D6
:104F4000491E884207D1502080F31188BFF34F8F4C
:104F5000BFF36F8FFEE7274908780190FF200870A4
:104F600008788DF800009DF800009DF8002000F002
:104F7000F000904207D0502080F31188BFF34F8F8C
:104F8000BFF36F8FFEE79DF800001B4A00F0500052
:104F900010700720906005E09DF800305B008DF8F0
:104FA0000030401E9DF800301B06F5D4000200F4CE
:104FB000E0609060019808700C482030016841F46E
:104FC00070010160016841F070410160FFF716FE59
:104FD00000205060FBF714F90848016841F0404197
:104FE0000160FBF7FDF800201CBD000000ED00E0B3
:104FF00071C20F4100E400E03000002034EF00E017
:1050000010B5502080F31188BFF34F8FBFF36F8F1F
:1050100000F098FA18B104494FF080500860002061
:1050200080F3118810BD000004ED00E070B50E465D
:10503000050013D0D6B105FB06F04830FFF7AAFCF7
:10504000040009D004F1480120468EB10160C0E996
:105050000F56012100F0C4F8204670BD502080F3A7
:105060001188BFF34F8FBFF36F8FFEE70020E4E797
:105070000060ECE72DE9FF4F002683B09B468A468F
:10508000040003D0BAF1000F08D011E0502080F3E3
:105090001188BFF34F8FBFF36F8FFEE7206C38B1DD
:1050A000502080F31188BFF34F8FBFF36F8FFEE75F
:1050B00000F03AFADFF824814FF000094FF08057F2
:1050C00048B9059838B1502080F31188BFF34F8F4D
:1050D000BFF36F8FFEE7FFF72FFDA56B45B351467A
:1050E0002046E668FFF7F2FABBF1000F13D0E66046
:1050F000606A50B104F1240000F0D4FA28B1C8F875
:105100000070BFF34F8FBFF36F8FFFF735FD0120A6
:1051100007B0BDE8F08F6D1EA563206810B9FFF7DA
:10512000A5FC606020690028EFD004F11000E3E7DF
:10513000059808B11EB106E0FFF71EFD27E068469E
:10514000FFF772FE0126FFF717FDFFF7B3FEFFF72B
:10515000F3FC94F94400401C01D184F8449094F984
:105160004500401C01D184F84590FFF705FD05A9D5
:10517000684600F077F9002820460AD0FFF7D4FBF4
:1051800000F0CAFA2046FFF79DFB0028A3D00020BC
:10519000BEE7FFF797FBD8B1206830B9FFF7CCFC2A
:1051A0006068FFF7FFFDFFF7E7FC04F124000599B5
:1051B000FFF7E0FD2046FFF7B7FB00F0ADFA00284F
:1051C00089D1C8F80070BFF34F8FBFF36F8F82E7AC
:1051D0002046FFF7A9FB00F09FFA7CE704ED00E012
:1051E00070B50D46040025D0FFF7A6FCD4E90F20CA
:1051F000216802FB001161600021A1632168A160A8
:105200000A46D4E90F01401E00FB0121E16021465E
:105210004FF0FF3001F8440F487004F110008DB1D9
:10522000FFF758FC04F12400FFF754FCFFF7A4FC3F
:10523000012070BD502080F31188BFF34F8FBFF362
:105240006F8FFEE721690029F0D000F02BFA0028CB
:10525000ECD004494FF080500860BFF34F8FBFF38C
:105260006F8FE3E704ED00E02DE9FF4782B01D46B4
:105270008A464FF00008040003D0BAF1000F08D0AE
:1052800011E0502080F31188BFF34F8FBFF36F8F71
:10529000FEE7206C38B1502080F31188BFF34F8FA8
:1052A000BFF36F8FFEE7022D0AD1E06B012807D014
:1052B000502080F31188BFF34F8FBFF36F8FFEE74D
:1052C00000F032F93F4F4FF000094FF0805648B9D7
:1052D000049838B1502080F31188BFF34F8FBFF38B
:1052E0006F8FFEE7FFF728FCA06BE16B884207D3C6
:1052F000022D05D00498D0B1B8F1000F1AD01EE0ED
:105300002A4651462046FFF7F4F9616A19B104F1C3
:10531000240000F0C7F920B13E60BFF34F8FBFF308
:105320006F8FFFF729FC012006B0BDE8F087FFF77B
:1053300023FC22E06846FFF777FD4FF00108FFF7F6
:105340001BFCFFF7B7FDFFF7F7FB94F94400401C87
:1053500001D184F8449094F94500401C01D184F8AF
:105360004590FFF709FC04A9684600F07BF830B1CE
:105370002046FFF7D9FA00F0CFF90020D4E7FFF775
:10538000DBFBA06BE16B884213D1FFF7F5FB04F167
:1053900010000499FFF7EEFC2046FFF7C5FA00F075
:1053A000BBF900289ED13E60BFF34F8FBFF36F8FD4
:1053B00098E7FFF7E1FB2046FFF7B6FA00F0ACF9FB
:1053C00090E7000004ED00E070B50E46040009D03F
:1053D000206C78B1502080F31188BFF34F8FBFF35A
:1053E0006F8FFEE7502080F31188BFF34F8FBFF31C
:1053F0006F8FFEE7206848B9606838B1502080F3AD
:105400001188BFF34F8FBFF36F8FFEE7FFF706FCE6
:105410005020EFF3118580F31188BFF34F8FBFF356
:105420006F8FA16BE06B884218D994F94500491C35
:10543000A163411C04D0401C84F8450001200EE00B
:10544000606A0028FAD004F1240000F02BF900284B
:10545000F4D0002EF2D001203060EFE7002085F379
:10546000118870BD70B50D46040019D005B3FFF763
:1054700063FB164AD1682868431C0FD02368126A60
:10548000934202D062688A421AD96268891A8142BC
:1054900016D2401A28602046FFF7C6FC002410E010
:1054A000502080F31188BFF34F8FBFF36F8FFEE75B
:1054B000502080F31188BFF34F8FBFF36F8FFEE74B
:1054C0000124FFF759FB204670BD00003C0000207E
:1054D0002DE9FF5F8346DDE90E87994616468A4629
:1054E0009000FFF757FA05001AD05420FFF752FA40
:1054F000040012D025630021CDE90241CDE90087E7
:105500004B46324651465846FFF76EF92046FFF7A4
:105510004DF8012004B0BDE8F09F2846FFF740FB9E
:105520004FF0FF30F6E700000548416919B1006B04
:1055300018B100207047012070470220704700001A
:105540003C0000202DE9F0412E4C0027206B40B19B
:10555000A069401CA061E06900B101273846BDE8A0
:10556000F081E668761CE66013D1606B006838B1A4
:10557000502080F31188BFF34F8FBFF36F8FFEE78A
:10558000606BA16B6163A063206A401C2062FFF71F
:10559000A7F9A06ADFF87080864209D3606B0068C3
:1055A00080B1606BC068C568686886420DD2A06231
:1055B0002068C06A00EB800158F821000128CAD990
:1055C0000127C8E74FF0FF30F1E7281DFFF770FA19
:1055D000A86A18B105F11800FFF76AFAE86A012114
:1055E000226981401143216100EB800108EB8100B9
:1055F000291DFFF795FAE86A2168C96A8842CDD368
:105600000127CBE73C000020843F002070B5040058
:105610004FF0000140D0214D2868844207D050202F
:1056200080F31188BFF34F8FBFF36F8FFEE7A06C3D
:1056300038B1401EA064636CE26A9A422CD040B13B
:105640002AE0502080F31188BFF34F8FBFF36F8F94
:10565000FEE7201DFFF72CFA114A012150B9E06A3C
:1056600000EB800352F8233023B92B6901FA00F0D4
:1056700083432B61606CE062C0F10700A061E06AC7
:105680002B6981401943296100EB800002EB800007
:10569000211DFFF745FA0121084670BD3C0000209E
:1056A000843F00202DE9F041C068C468ACB104F12A
:1056B00018000746FFF7FCF9154D286B0126A0B12D
:1056C00039461448FFF72CFAE06A2968C96A88420B
:1056D0001CD90120EE61BDE8F081502080F31188D3
:1056E000BFF34F8FBFF36F8FFEE7201DFFF7E0F989
:1056F000E16A2A6906FA01F01043286101EB810092
:105700000449B43901EB8000211DDBE70020E2E70A
:105710003C000020384000202DE9F0472C4D0024AB
:105720002746286B38B1FFF707FA286B401E28631D
:10573000286B40B146E0502080F31188BFF34F8FB3
:10574000BFF36F8FFEE7A968224E0120D1B3A6F107
:10575000B40980463068E8B1F068C46804F1180004
:10576000FFF7A6F9201DFFF7A3F9E06A2A6908FAF6
:1057700000F11143296100EB800109EB8100211D3B
:10578000FFF7CEF9E06A2968C96A8842E2D3C5F812
:105790001C80DFE70CB1FFF7A3F8AC6944B14646C3
:1057A000FFF7D0FE00B1EE61641EF9D10020A861C0
:1057B000E86938B10849012738070860BFF34F8FFF
:1057C000BFF36F8FFFF7D8F93846BDE8F0870000C8
:1057D0003C0000203840002004ED00E06C58000838
:1057E000952C000800000000000000008000000070
:1057F000605800089D2C0008FDFF0000000000001C
:1058000080000000000610160006101600000000C0
:105810000000000001020304060708090000000060
:105820000102030478580008412B0008030000001F
:10583000000000000001000084580008092D000845
:105840000200000000000000000200006B806B03FB
:105850006C001A041B181C101D026A2000000000B6
:10586000496E69745461736B000000006465666181
:10587000756C745461736B00444255535461736B7F
:10588000000000004D61696E5461736B0000000000
:10589000B058000800000020E80000000C3E00089E
:1058A00098590008E8000020404400001C3E000811
:1058B00000000000000000000100000010000000D7
:1058C000000000000024F4000000000000000000C0
:1058D00000000000000000000000000000000000C8
:1058E00000000000AAAAAAAA000000000000000010
:1058F00000000000000000000000000000000000A8
:105900000000000000000000000000000000000097
:105910000000000000000000000000000000000087
:105920000000000000000000000000000000000077
:105930000000000000000000000000000000803FA8
:105940000000000000000000000000000000000057
:105950000000000000000000000000000000000047
:105960000000000000000000000000000000000037
:105970000000000000000000000000000000000027
:1059800000000000000000000000FF000000000018
:0859900000000000000000000F
:04000005080001AD41
:00000001FF
