:020000040800F2
:10000000304500207D020008EB290008EB220008A3
:10001000E929000839090008ED3400080000000053
:10002000000000000000000000000000C101000806
:10003000A50A00080000000015020008212D000894
:10004000970200089702000897020008970200082C
:10005000970200089702000897020008970200081C
:10006000970200089702000897020008970200080C
:1000700097020008970200089702000897020008FC
:1000800097020008970200089702000897020008EC
:1000900097020008970200089702000897020008DC
:1000A000970200081D2E000897020008970200081A
:1000B00097020008970200089702000897020008BC
:1000C00097020008970200089702000897020008AC
:1000D00097020008D9340008970200089702000828
:1000E000970200089702000897020008970200088C
:1000F000970200089702000897020008970200087C
:10010000970200089702000897020008970200086B
:10011000970200089702000897020008970200085B
:100120009702000897020008F509000897020008E6
:10013000970200089702000897020008970200083B
:10014000970200089702000897020008970200082B
:10015000970200089702000897020008970200081B
:10016000970200089702000897020008970200080B
:10017000970200089702000897020008000000009C
:1001800097020008970200089702000897020008EB
:1001900097020008970200089702000897020008DB
:1001A000000000000000000097020008DFF80CD0FB
:1001B00000F09EFB00480047294900083045002018
:1001C0002B4B19680868B0E8F04F80F30988BFF33B
:1001D0006F8F4FF0000080F311887047000000001F
:1001E00006480068006880F3088862B661B6BFF30D
:1001F0004F8FBFF36F8F00DF00BF00BF08ED00E03F
:10020000DFF80C00016841F470010160704700BF25
:1002100088ED00E0EFF30980BFF36F8F144B1A688D
:100220001EF0100F08BF20ED108A20E9F04F10607B
:1002300008B44FF0500080F31188BFF34F8FBFF325
:100240006F8F05F0D9FA4FF0000080F3118808BCD9
:1002500019680868B0E8F04F1EF0100F08BFB0EC46
:10026000108A80F30988BFF36F8F704700BF00BF0B
:100270003C000020EFF305807047000006488047EF
:1002800006480047FEE7FEE7FEE7FEE7FEE7FEE77B
:10029000FEE7FEE7FEE7FEE7C92D0008AD01000816
:1002A0002DE9F05F0546002092469B4688460646AB
:1002B000814640241BE0284641464746224600F03E
:1002C0000CF953465A46C01A914110D311461846AC
:1002D000224600F0F3F82D1A67EB01084F4622463C
:1002E0000120002100F0EAF817EB00094E41201E22
:1002F000A4F10104DFDC484631462A464346BDE806
:10030000F09F40EA01039B0703D009E008C9121FD0
:1003100008C0042AFAD203E011F8013B00F8013BBF
:10032000521EF9D270472DE9FE4F81EA030404F012
:10033000004421F0004100944FF0000B23F00043F3
:1003400050EA01045ED052EA03045BD0C3F30A54BE
:10035000C1F30A552C44A4F2F3340194A0FB0254D7
:10036000C1F3130141F48011C3F3130343F4801369
:1003700001FB024400FB034E840A970A44EA8154BD
:1003800047EA8357A4FB076802958D0A05FB07859A
:100390004FEA932C04FB0C542705029D4FEA0658A4
:1003A00047EA1637B5EB08056EEB070C870E920E81
:1003B00047EA811742EA8312A7FB0201B6EB0B0161
:1003C00064EB00042B0D43EA0C335E1844EB1C5025
:1003D000DA465146E7FB0201C5F313044FEA0B333B
:1003E00043EA14534FEA0432019C43EA0603A4F1A2
:1003F0000C040294009CCDE900B400F0C4F803B0F2
:10040000BDE8F08F00200146F9E70EB5C10F80EA84
:10041000E0700844CA07002140F233438DE80E0023
:100420000A460B4600F0AFF803B000BD00F00042F2
:1004300030F000400AD0C10D01F56071C0F3160024
:1004400042EA0151C20840071143704700200146AB
:100450007047000030B5041E71F1000404DB4FF05A
:100460000044404264EB0101141E73F1000405DBFB
:100470001C464FF00043524263EB0403994208BF0D
:10048000904230BD01F0004330B421F0004150EA09
:10049000010206D00A0DA2F56072C1F31301002A11
:1004A00002DC30BC00207047440F44EAC104C100A4
:1004B000E01830BC00EBC25000F01FB8202A04DB6B
:1004C000203A00FA02F1002070479140C2F1200367
:1004D00020FA03F3194390407047202A04DB203AA6
:1004E00021FA02F00021704721FA02F3D040C2F154
:1004F000200291400843194670470029A8BF704761
:10050000401C490008BF20F00100704710B4B0FA49
:1005100080FC00FA0CF050EA010404BF10BC7047E4
:1005200049B1CCF1200421FA04F411FA0CF118BFFE
:10053000012121430843A3EB0C01CB1D4FEA0061CD
:100540004FEA102042BF002010BC704700EBC350A0
:1005500010440029A4BF10BC7047401C490008BFCC
:1005600020F0010010BC704710B5141E73F1000498
:1005700008DA401C41F1000192185B411A4301D195
:1005800020F0010010BD2DE9F04D92469B4611B1BF
:10059000B1FA81F202E0B0FA80F220329046FFF721
:1005A0008DFF04460F4640EA0A0041EA0B0153461C
:1005B0005A46084313D0114653EA010019D0C8F136
:1005C00040025046FFF789FF05460E465046594601
:1005D0004246FFF773FF084305D0012004E02046A0
:1005E0003946BDE8F08D0020054346EAE0762C430D
:1005F00037430A986305E40AA0EB08000022FD0ACD
:1006000044EA47540A3002D500200146E9E70105D3
:1006100010196941DDE9084500196941BDE8F04D4F
:10062000A2E72DE9FE4F804681EA0300C00F0C4689
:10063000009021F0004123F00045B8EB0200A941F1
:1006400005D24046214690461C460B46024623F002
:100650000040104347D0270DC7F30A00C3F30A51E7
:100660000290401A019040286BDAC3F3130040F463
:10067000801B0098924620B10023D2EB030A63EB63
:100680000B0B01985946C0F140025046FFF716FF88
:1006900006460D4650465946019A00F03BF910EBCC
:1006A00008006141002487EA115284EAE7731A4383
:1006B00040D0009A62B3019A012A4FEA075215DC32
:1006C000001B61EB02014FF0004202EA0752CDE944
:1006D0000042001C41F5801132462B46FFF753FFC4
:1006E00003B0BDE8F08F40462146F9E7001B61EBFF
:1006F0000201001C41F5801300185B412018A2F58F
:10070000001747EB030140EAD570B6196D4111E0BF
:100710006D084FEA360645EAC0754FEA0752001BDE
:1007200061EB0201001C41F5801149084FEA3000DD
:100730000019514132462B4603B0BDE8F04FFFF798
:1007400013BF0098012240000023D0EB020263EBAC
:10075000E073009821464FEAE074B8EB000061EBCB
:100760000401E9E783F000435BE781F0004158E7CB
:100770002DE9F04D81EA030404F0004B21F000451F
:1007800014464FF0000A23F0004150EA050220D041
:1007900054EA01021DD0C5F30A570246C5F31303FC
:1007A000C1F31300C1F30A5640F4801543F48013DB
:1007B000A7EB0608101BD64608F2FD3873EB0500C0
:1007C00002D308F1010801E092185B41B8F1000F73
:1007D00003DA00200146BDE8F08D00204FF48011BF
:1007E000064684460EE0171B73EB050705D3121B64
:1007F00063EB050306434CEA010C49084FEA30005D
:1008000092185B4150EA0107EDD152EA030012D081
:1008100082EA040083EA0501084305D0101BAB41BE
:1008200006D20122002306E000224FF0004302E03E
:100830006FF0010253101AEB06004CEB085110EB5D
:100840000A0041EB0B01BDE8F04DFFF78DBE2DE92D
:10085000F04D00231A461B1A8A4103DB0020014693
:10086000BDE8F08DC1F30A52C1F3130141F48015C4
:100870004FF0000BD10702D100186D41521E002726
:10088000044640F2FF11384601EB620A3E468046BC
:10089000024600204FF48011FFF71FFEC21971417C
:1008A000BB1846EB0100B4EB030C75EB000C04D352
:1008B000E41A65EB000517460E46241908F10100FD
:1008C0006D4180463428E3DDF91946EB0600091B2B
:1008D000A84103D24FF0FF32134601E00022134635
:1008E0001BEB070046EB0A51BDE8F04DFFF73CBE9D
:1008F000064C074D06E0E06840F0010394E807006D
:1009000098471034AC42F6D3FFF754FCB8620008A5
:10091000D8620008202A06DBCB17203A41FA02F001
:1009200043EAE07306E041FA02F3D040C2F120024C
:100930009140084319467047FEE7000038B5104C57
:1009400020680068C0061AD5204601F044FB2068E4
:1009500001684068009019220A49204601F076FC9F
:1009600009490C46606805F0C9F92068012806D1DC
:10097000064900070860BFF34F8FBFF36F8F38BD84
:10098000AC020020784000207800002004ED00E058
:1009900010B586B003220021012004F0E1FF114CC4
:1009A000606020B100231A46194605F0F7F8606828
:1009B0000028FDD014220C496846FFF7A2FC002154
:1009C000684604F001FAA06008480068C16841F078
:1009D0001001C16019220649044801F037FC06B035
:1009E00010BD00007800002058610008AC02002013
:1009F00078400020014800F0AFB80000EC02002071
:100A000001681823CAB2103AB2FBF3F2054B6FF338
:100A10000901032A9B5CC36500D9091D816508464D
:100A2000704700003861000810B5014600208B694E
:100A30008A6A4FF0C07453B1B3F5005F15D072B13C
:100A4000012A0CD0022A0AD0032A09D104E01AB1E3
:100A5000012A06D0022A03D1C96AC90100D50120A2
:100A600010BDC96AA142FAD010BD002AF7D0012AF0
:100A7000F2D0022AF3D0032AF3D010BD30B50468B7
:100A8000256825F480252560046863608368402B11
:100A9000036803D099600068C26030BD9A60006846
:100AA000C16030BD70472DE9F0410446876D00F00C
:100AB000C7FA064694F835000025022806D08020A3
:100AC000606584F834500120BDE8F0812068016839
:100AD00021F0160101602068416921F08001416127
:100AE000206C08B9A06C20B12068016821F00801D1
:100AF00001602068016821F0010101600BE000F055
:100B00009FFA801B052806D92020606504F8345F11
:100B100003206070D8E720680068C007EFD194F820
:100B20005C103F208840B86004F8345F012060709A
:100B30000020C9E790F83510022903D080214165D3
:100B400001207047052180F835100068016821F008
:100B500001010160002070472DE9F84304464FF081
:100B60000009CDF8009063484FF41651A56D006858
:100B7000B0FBF1F72E6894F85C10082000FA01F140
:100B800031420FD021680A6852070BD50A6822F05B
:100B900004020A6094F85C108840A860606D40F020
:100BA0000100606594F85C104FF0010808FA01F04C
:100BB000304208D021684969090604D5A860606DF3
:100BC00040F00200606594F85C10042088403042D8
:100BD00008D021680968890704D5A860606D40F0D5
:100BE0000400606594F85C1010208840304218D0F2
:100BF00021680968090714D5A860206801684903BD
:100C000004D50068000308D5A16C07E00168C90598
:100C100003D4016821F008010160216C09B120466C
:100C2000884794F85C1020208840304231D02168F9
:100C30000968C9062DD5A86094F8350005282068F4
:100C4000016806D0490347D5006800031DD4616CD4
:100C50001CE021F0160101602068416921F080014B
:100C60004161206C08B9A06C20B12068016821F0B6
:100C70000801016094F85C103F208840A86084F867
:100C8000349084F83580216D1FE0E16B09B1204676
:100C90008847606D00282BD0606DC00714D00520F8
:100CA00084F835002068016821F001010160009896
:100CB000401C0090B84203D820680068C007F6D1F5
:100CC00084F8349084F83580E16C002910D001B0AC
:100CD0002046BDE8F04308470168C905D5D401683E
:100CE00021F01001016084F8349084F83580CCE75D
:100CF000BDE8F883140000202DE9F041044600F01F
:100D00009FF906465CB1002584F83450022084F82F
:100D100035002068016821F0010101600DE001202B
:100D2000BDE8F08100F08CF9801B052805D9202052
:100D30006065032084F83500F2E720680068C0078A
:100D4000F0D12268116820480140D4E9010318431A
:100D5000D4E903363343184363691843A36918433E
:100D6000E3691843236A18430843616A042903D1DD
:100D7000D4E90B1319430843106020684069666A80
:100D800020F0070130460E43012704280CD1A06A49
:100D90000643E06A40B12046FFF746FE20B14020FE
:100DA000606584F83570BAE7206846612046FFF731
:100DB00027FE94F85C203F2191408160656584F8AE
:100DC00035700020ACE700003F8010F02DE9F041C5
:100DD0000446866D90F83400002501280DD00120CE
:100DE00084F8340094F835700020012F07D084F87F
:100DF000340002252846BDE8F0810220FBE70227E7
:100E000084F8357060652046FFF738FE94F85C1072
:100E10003F208840B0602068016841F01601016001
:100E20002068416941F080014161206C20B1206857
:100E3000016841F0080101602068016841F001018A
:100E40000160D7E770B5044600F0FAF80546601C6B
:100E500002D004480078044400F0F2F8401BA0429D
:100E6000FAD370BD080000202DE9F84FDFF890B1EB
:100E700000224FF001084FF0030A4FF00F090BF169
:100E8000040E00BF0B6808FA02F42340A3426ED19F
:100E90004D68022D01D0122D0ED1D50800EB850C26
:100EA000DCF820505607F70E09FA07F6B5430E692D
:100EB000BE402E43CCF82060066855000F790AFA30
:100EC00005FC07F0030726EA0C06AF40374307602E
:100ED0004E68012E05D0022E03D0112E01D0122E05
:100EE0000ED18768CE6827EA0C07AE403E43866085
:100EF0004668A6430C79C4F300149440344344601C
:100F0000C4688E6824EA0C04AE402643C6604C6870
:100F1000E4006FD53B4C256845F480452560246886
:100F200022F0030504F480440094374C2E19D6F8BF
:100F3000084895072F0F09FA07F5AC43334DA8422F
:100F400001D100252EE0324DA84201D1012529E032
:100F5000304DA84201D1022524E02F4DA84201D1F5
:100F600003251FE02D4DA84202D104251AE041E0DF
:100F70002B4DA84201D1052514E02A4DA84201D1EC
:100F800006250FE0284DA84201D107250AE0274D8C
:100F9000A84201D1082505E0254DA84201D1092527
:100FA00000E00A25BD402543C6F80858DBF800409C
:100FB0005D464E689C43F60300D51C432C60DEF86A
:100FC000004075464E689C43B60300D51C432C6018
:100FD0000B4D08352C684E689C43F60200D51C4327
:100FE0002C60074D0C352C684E689C43B60200D52A
:100FF0001C432C60521C102AFFF444AFBDE8F88F4C
:10100000003C0140443802400030014000000240F2
:101010000004024000080240000C024000100240A0
:101020000014024000180240001C02400020024050
:10103000002402400AB1816170470904FBE7000007
:10104000014880687047000008000020024881685D
:101050000278114481607047080000200B4810B5E9
:10106000016841F400710160016841F48061016030
:10107000016841F480710160032000F0B1F80020A4
:1010800000F006F800F03EF8002010BD003C0240E1
:1010900010B5014688B00022192000F081F819200F
:1010A00000F072F813480024016841F0010101606A
:1010B000006805A900F001000690684600F072F98A
:1010C00000F0A6F90C494000B0FBF1F10C480B4AC6
:1010D000491E026040F2E732C0E90324C0E901146E
:1010E00000F02FFD10B1012008B010BD044800F041
:1010F00044FDF9E74438024040420F00000001403F
:101100004C0300201F4808B5016841F4804101608C
:10111000006800F4804000901A48001F016841F008
:1011200080510160006800F080500090032000F0C2
:1011300057F8002211466FF00B0000F031F8002242
:1011400011466FF00A0000F02BF8002211466FF0F4
:10115000090000F025F800221146501F00F020F889
:1011600000221146101F00F01BF800220F21901ED4
:1011700000F016F800220F21BDE80840501E00F0D4
:101180000FB800004438024000F01F0201219140D6
:101190004009800000F1E020C0F800117047000015
:1011A000F0B40E4B1B680C46C3F30223C3F10705D2
:1011B000042D00D90425191D072901D2002300E0C0
:1011C000DB1E012606FA05F1491E214099409E408A
:1011D000761E16403143F0BC01F008BC0CED00E077
:1011E000064900F0070208684FF6FF03184040EA7E
:1011F0000220034A10430860704700000CED00E035
:101200000000FA052DE9F8431748016841F08051C4
:1012100001600068154F00F08050012600903E6488
:10122000FFF70EFF05464FF47A78114C05E000BF3A
:10123000FFF706FF401B40450DD86068C003F7D597
:101240007E64FFF7FDFE0546464607E0FFF7F8FE21
:10125000401BB04202D90320BDE8F88360688003D8
:10126000F4D50020F8E700004038024000000E42AC
:10127000007000402DE9F0470E46050065D0DFF80C
:101280001481D8F80000F7B200F00F00B04207D286
:1012900088F80070D8F8000000F00F00B04254D178
:1012A00028683D4C810712D5400703D5206840F4DB
:1012B000E05020602878000703D5206840F46040A3
:1012C00020602068A96820F0F0000843206028789A
:1012D000C0072DD0304968680839012812D002288B
:1012E00013D0032811D00968890700292DDA216855
:1012F00021F0030101432160FFF7A2FE814641F284
:10130000883A0EE009688903EFE709688901ECE78C
:10131000FFF796FEA0EB0901514502D90320BDE875
:10132000F0872068696800F00C00B0EB810FEFD106
:10133000D8F80010404601F00F01B14207D90770FC
:10134000006800F00F00B04201D00120E7E72878E4
:10135000400705D52068E96820F4E0500843206084
:101360002878000706D52068296920F4604040EA03
:10137000C100206000F05CF82168084AC1F3031145
:10138000515CC840064908600020FFF781FE00203C
:10139000C5E70000003C02400838024040610008F8
:1013A000140000200F2202600C4A136803F00303AC
:1013B0004360136803F0F0038360136803F4E053A1
:1013C000C36012684FF4E05303EAD202026104489A
:1013D000006800F00F000860704700000838024005
:1013E000003C0240014800687047000014000020E3
:1013F0000448054900680968044AC1F38221515C28
:10140000C8407047140000200838024050610008AE
:101410000448054900680968044AC1F34231515C37
:10142000C84070471400002008380240506100088E
:10143000154810B5006810F00C02144813D0144978
:10144000042A0FD0082A0ED10F4C241F22682368CB
:1014500002F03F025B0207D52068C0F38810A0FBB2
:10146000010106E0084610BD2168C1F38811A1FB07
:1014700000010023FEF714FF2168C1F30141491C5C
:101480004900B0FBF1F010BD083802400024F40020
:10149000001BB7002DE9F84F050076D02878DFF85B
:1014A000F8B2BE4CC00749D0DBF800105846C1F373
:1014B0008101012908D00068C0F3810002280AD107
:1014C000201D0068400206D52068800336D5686874
:1014D0000028E2D032E06868B0F5803F10D0B0F567
:1014E000A02F206810D020F480302060206820F4E5
:1014F000802020606868A0B1FFF7A2FD06460CE0DE
:10150000206840F48030F4E740F480202060F7E762
:10151000FFF796FD801B642873D820688003F7D5F9
:101520000CE0FFF78DFD064605E000BFFFF788FDE4
:10153000801B6428F0D820688003F7D42878DFF86F
:10154000608280074FF000093ED5DBF80010584656
:1015500011F00C0F09D00068C0F3810002280BD1F4
:101560008D48001F0068400206D42068800715D50A
:10157000E868012809D111E0E868B8B10120C8F88D
:101580000000FFF75DFD064605E002E1FFF758FDAC
:10159000801B0228C0D820688007F7D520682969F9
:1015A00020F0F80040EAC10020600DE0C8F800908B
:1015B000FFF746FD064604E0FFF742FD801B0228C8
:1015C0001FD820688007F7D42878000722D5724EEC
:1015D000744869696C3671B101210160FFF730FD13
:1015E000074604E0FFF72CFDC01B022809D830682D
:1015F0008007F7D50EE0C0F80090FFF721FD074601
:1016000005E083E0FFF71CFDC01B02287ED8306890
:101610008007F7D42878400768D5DFF87CA1002739
:101620000AF1380ADAF80000C0000BD4DAF800102A
:1016300041F08051CAF80010DAF80000012700F0EC
:1016400080500090584E3068C00510D4306840F487
:1016500080703060FFF7F4FC009005E0FFF7F0FCCD
:101660000099401A022851D83068C005F6D54A4E74
:10167000A868683601280FD00528306810D020F0FF
:1016800001003060306820F004003060A868B8B114
:10169000FFF7D6FC00900FE0306840F00100F4E75F
:1016A00040F004003060F7E7FFF7CAFC0099411AE8
:1016B00041F28830814264D830688007F4D50EE06A
:1016C000FFF7BEFC009007E0FFF7BAFC0099411A53
:1016D00041F28830814254D830688007F4D42FB169
:1016E000DAF8001021F08051CAF80010A869C0B3E0
:1016F000DBF80010C1F3810102294AD002284846D4
:1017000007D0C8F86000FFF79BFC00E039E0054611
:101710003AE04746C8F86000FFF792FC064604E04E
:10172000FFF78EFC801B02282BD820688001F7D49D
:10173000D5E907010843A96A1C4A490802EB01419F
:101740006A6A41EA8211084395F82C1040EA016167
:101750001148001F016001203866FFF771FC054643
:1017600005E014E0FFF76CFC401B022809D8206854
:101770008001F7D50BE000BFFFF762FC401B022899
:1017800002D90320BDE8F88F20688001F4D400203E
:10179000F8E70120F6E70000083802400038024070
:1017A00000004742800E4742007000400000FFFFEB
:1017B00070B5040005D00025A56294F8510010B161
:1017C00006E0012070BD84F85050204600F030F84B
:1017D000022084F851002068016821F04001016076
:1017E000D4E901010843D4E90312114308436169B4
:1017F0000843218B01F400710843E1690843216A21
:101800000843A16A084321680860A069042101EA2D
:101810001040616A0843216848602068C16921F46A
:101820000061C1616565012084F85100002070BD30
:1018300000B500680E4987B0884217D10D480021D5
:10184000026842F480120260006800F48010059083
:101850004FF4607000900220CDE901010320039055
:101860000520049069460448FFF7FEFA07B000BD62
:101870000050014044380240001402402DE9F84F66
:10188000044690F8500000260A9F9A4693460D465B
:101890004FF0010801280ED0012084F85000FFF716
:1018A000CFFB814694F85100616801280CD0B1F556
:1018B000827F07D102E00220BDE8F88FA16809B954
:1018C000042801D00226BDE055B1BBF1000F07D0BE
:1018D000BAF1000F04D094F85100012802D004E0BE
:1018E0000126AFE0052084F8510000206065C4F8AF
:1018F00038B0A4F83EA0A4F83CA02563A4F836A014
:10190000A4F834A02064606420680168490603D408
:10191000016841F040010160E068B0F5006F606867
:1019200004D0E8B3E08E01283BD06AE010B1E08E2D
:1019300001282ED1216835F8020BC860E08E401EC8
:10194000E08626E0B8F1000F0DD0E08E58B1206897
:101950008168890707D535F8021BC160E08E401EFB
:10196000E0864FF00008E08F58B120688168C90711
:1019700007D0C0682BF8020BE08F401EE0874FF0C5
:101980000108781C05D0FFF75BFBA0EB0900B8420B
:1019900046D2E08E0028D5D1E08F0028D2D136E0A3
:1019A000FFE7216815F8010B0873E08E401EE08602
:1019B00027E000BFB8F1000F0DD0E08E58B12068CD
:1019C0008168890707D515F8011B0173E08E401E59
:1019D000E0864FF00008E08F58B120688168C907A1
:1019E00007D0C0680BF8010BE08F401EE0874FF076
:1019F0000108781C05D0FFF723FBA0EB0900B842D3
:101A00000ED2E08E0028D5D1E08F0028D2D13B46FF
:101A1000012202212046CDF8009001F007F808B11C
:101A200003260FE04A463946204600F0EFFF18B182
:101A300001262020606505E0A06818B92068C1680B
:101A400080680090012084F85100002084F8500044
:101A5000304631E74FF0E0210428086903D020F038
:101A600004000861704740F00400FAE710B5401E1A
:101A7000B0F1807F01D3012010BD4FF0E024606100
:101A80000F21601700F0B2FF0020A0610720206145
:101A9000002010BD7047704710B590F83820012A1B
:101AA00025D0012280F83820CA688C6822F4407260
:101AB00022434C6822F4806222430C6822F40062C4
:101AC00022430C6922F4805222434C6922F40052D2
:101AD00022438C6922F48042224322F400410268AE
:101AE00000232143516480F83830002010BD0220CB
:101AF00010BD30B590F83820012A20D0012280F89E
:101B00003820022380F8393003685C6824F07004C0
:101B10005C6003685C680D682C435C6003689C68CB
:101B200024F080049C6003689C6849680C439C60B6
:101B300080F83920002180F83810084630BD022096
:101B400030BD10B5040003D094F8390010B107E09F
:101B5000012010BD002084F83800204600F00CF869
:101B6000022084F83900211D206801F05DF9012070
:101B700084F83900002010BD70470168CA6842F03F
:101B80000102CA600068016841F0010101600020A3
:101B90007047704770B50446006801694FF0000552
:101BA000C943890715D4C168C943890711D4E91EFF
:101BB000016101202076206880698007204602D0DC
:101BC000FFF7E7FF04E000F00BF9204600F0DAF938
:101BD000257620680169C943490717D4C168C943FC
:101BE000490713D46FF004010161022020762068B8
:101BF000806910F4407F204602D0FFF7CAFF04E05E
:101C000000F0EEF8204600F0BDF925762068016965
:101C1000C943090716D4C168C943090712D46FF034
:101C200008010161042020762068C06980072046F1
:101C300002D0FFF7AEFF04E000F0D2F8204600F03B
:101C4000A1F9257620680169C943C90617D4C1687E
:101C5000C943C90613D46FF0100101610820207632
:101C60002068C06910F4407F204602D0FFF791FF42
:101C700004E000F0B5F8204600F084F925762068ED
:101C80000169C943C90708D1C168C943C90704D15B
:101C9000891E0161204600F093F920680169C9435B
:101CA000090609D4C168C943090605D46FF080014B
:101CB00001612046FFF7EEFE20680169C94349062D
:101CC00009D4C168C943490605D46FF040010161D8
:101CD000204600F07FF920680169C94389060BD4CA
:101CE000C168C943890607D46FF02001016120460D
:101CF000BDE87040FFF7CFBE70BD000070B5016851
:101D000000240225012086B0B1F1804F09D02A4A73
:101D1000914213D120200090CDE901546946274813
:101D20002CE007210091CDE90154CDE9034024487E
:101D3000694600BFFFF798F806B070BD214A91428E
:101D400007D14FF4E0400090CDE9015469461E48A8
:101D500014E01E4B1E4A1F4E994212D10090CDE94D
:101D6000015469461046CDE90345FFF77DF84FF46D
:101D7000C0500090CDE9015469463046CDE9034595
:101D8000D8E71548814209D1C4200090CDE901541B
:101D90000320CDE9034069461046CBE70F48814256
:101DA000CAD140200090CDE901540920CDE903407B
:101DB00069463046BEE700000004004000040240CF
:101DC0000000024000080040000C0240000C0040EF
:101DD00000200240001C02400004014000180040A6
:101DE000704770B5044690F838000D4601280DD0B4
:101DF000012684F83860022084F8390042B1042AB0
:101E000018D0082A2AD00C2A4DD139E0022070BD02
:101E1000206801F075F82068816941F0080181614E
:101E20002068816921F004018161206881692A6943
:101E3000114311E0206801F08FF82068816941F4B6
:101E4000006181612068816921F48061816120687D
:101E500081692A6941EA0221816124E0206801F058
:101E6000ADF82068C16941F00801C1612068C1690D
:101E700021F00401C1612068C1692A69114311E0A0
:101E8000206801F0CBF82068C16941F40061C161AC
:101E90002068C16921F48061C1612068C1692A6933
:101EA00041EA0221C16184F83960002084F83800D9
:101EB00070BD10B5040003D094F8390010B107E0EC
:101EC000012010BD002084F83800204600F00CF8F6
:101ED000022084F83900211D206800F0A5FF0120B0
:101EE00084F83900002010BD08B501681F48B1F121
:101EF000804F0BD01E4A914210D1016841F002017F
:101F00000160006800F00200009008BD016841F027
:101F100001010160006800F00100F5E7154A9142F7
:101F200007D1016841F004010160006800F004007D
:101F3000EAE7114A914207D1016841F008010160C6
:101F4000006800F00800DFE70C4A914202D1074820
:101F5000001DD2E70A4A9142D7D1016841F0400101
:101F60000160006800F04000CEE700004038024009
:101F70000004004000080040000C00400004014044
:101F8000001800407047000010B5044600680122A8
:101F900000F0AAFF08492068884202D00749884219
:101FA00003D1416C41F4004141642068016841F073
:101FB00001010160002010BD00000140000401404B
:101FC00000680349884201D1FFF740B8704700001C
:101FD00000000140704710B504460068416994F85C
:101FE0003920C1F3C011212A0BD151B1416921F02F
:101FF00080014161206B08B1FEF755FD204601F0DC
:1020000093F82068416994F83A20C1F38011222A9C
:102010000BD151B1416921F040014161606B08B1C0
:10202000FEF741FD204601F071F8002010BD704719
:1020300070B5026804461068D168536910F00F0F3C
:1020400051D003F0010501F4907635435DD0C2070D
:1020500005D0CA0503D5E26B42F00102E2634207F4
:1020600005D5DA0703D0E26B42F00202E263820791
:1020700005D5DA0703D0E26B42F00402E2630207FF
:1020800005D5DA0703D0E26B42F00802E263E26BA7
:10209000002A34D0800604D5880602D5204601F0F7
:1020A0004CF820684069E16BC0F3801001F0080132
:1020B0000143204624D001F029F8206841694906EF
:1020C0001AD5416921F040014161606BA0B11B4903
:1020D0000165606BFEF72EFD002810D0606B016D6E
:1020E000BDE87040084783060FD58B060DD5204606
:1020F000BDE8704001F021B82046FFF798FF70BDA1
:10210000FFF795FF0020E06370BD030606D50B06C0
:1021100004D52046BDE8704001F0ACB94006F3D5C7
:102120004806F1D5D168204621F04001D160202138
:1021300084F8391000F0D8F870BD00006D30000848
:1021400070B5040004D094F83900002510B106E001
:10215000012070BD84F83850204600F023F8242078
:1021600084F839002068C16821F40051C16020461C
:1021700001F02AF82068016921F49041016120688A
:10218000416921F02A0141612068C16841F4005190
:10219000C160E563202084F8390084F83A0000200B
:1021A00070BD000070B5064600681F4986B08842C1
:1021B00038D11E480025016841F010010160006817
:1021C000694600F010000590C020009002200190A8
:1021D0000120029003200390072004901448FEF78A
:1021E00043FE154C134820604FF00060C4E9010520
:1021F0004014C4E903506561A561E561256220468C
:102200006562FEF779FD18B178210CA001F06FF935
:102210007463002205212520A663FEF7C1FF252057
:10222000FEF7B2FF06B070BD001001404438024016
:102230000004024040640240EC0200202E2E2F5386
:1022400072632F75736172742E630000F8B50446D3
:1022500090F83A0020283CD1C1B3BAB394F83800C2
:10226000012836D0012084F83800A162A28500251B
:10227000E563222084F83A00636B1748D863636BE8
:1022800016481864636B1648D864606B134605657E
:102290000846666B216802463046091DFEF796FD2A
:1022A000206801684168009184F83850C16841F4A1
:1022B0008071C1602068416941F00101416120687D
:1022C000416941F0400141610020F8BDFFE7012074
:1022D000FBE70220F9E70000C730000803310008DF
:1022E0007D300008704770477047FEE710B502F078
:1022F00057FBBDE8104002F059B910B502F082FB5F
:1023000001F044FEBDE8104002F096B8094808B557
:10231000016841F4800101600068002200F480003F
:10232000009005213A20FEF73BFFBDE808403A2027
:10233000FEF72ABF3038024010B58AB014220B498C
:102340006846FDF7DEFF0021684602F03DFD084CBF
:10235000064914222060143105A8FDF7D2FF0021A0
:1023600005A802F031FD60600AB010BD10610008E0
:10237000000000202DE9F047774886B0002401686E
:1023800041F010010160016801F010010591016840
:1023900041F002010160016801F00201059101684C
:1023A00041F040010160016801F0400105910168C0
:1023B00041F008010160016801F008010591016820
:1023C00041F004010160016801F004010591016818
:1023D00041F001010160016801F00101059101680E
:1023E00041F480710160016801F480710591016818
:1023F00041F080010160016801F0800105910168F0
:1024000041F0200101600068DFF8508100F02000F9
:102410000590002204214046FEF70CFEDFF84091B3
:102420004FF4FF77012239464846FEF703FEDFF8F6
:1024300034A1002240215046FEF7FCFD0122D102CA
:102440004046FEF7F7FD012291035046FEF7F2FDEC
:102450000820CDE90004694640460294FEF704FDD9
:1024600040F6040000900126CDE90164694640462B
:102470000394FEF7F9FC4FF2F3700325CDE9000554
:10248000694602944046FEF7EFFC3002CDE90004B5
:10249000DFF8D480694640460294FEF7E5FC4FF62B
:1024A0000160CDE90005694602944846FEF7DCFC70
:1024B0004FF61F60CDE90005694602944046FEF7DD
:1024C000D3FC48F6FF70CDE9000569460294274821
:1024D000FEF7CAFC4FF6FF70CDE90005694602948D
:1024E0002348FEF7C1FC49F6F870CDE900056946BE
:1024F00002942048FEF7B8FC40F63A70CDE900059A
:10250000694602941C48FEF7AFFC4EF2BC70CDE960
:102510000005694602941948FEF7A6FC4BF63F40B9
:10252000CDE90005694602945046FEF79DFC0097F0
:10253000CDE90164694648460394FEF795FC44F2F0
:1025400040000090CDE90164694650460394FEF7CF
:102550008BFC06B0BDE8F087303802400010024026
:10256000001802400014024000040240000C024027
:10257000000802400000024000200240001C02400F
:10258000104810B50E4901604FF48271416000217E
:102590008160C1604FF400720161C0E90512C16140
:1025A0000162416281620A21C162FFF701F90028DC
:1025B00005D0BDE810404F2103A000F098BF10BD2A
:1025C00000500140EC0000202E2E2F5372632F7319
:1025D00070692E630000000010B5144888B01249DD
:1025E000016059210024C0E90114C4600461FFF7AF
:1025F00060FC20B14FF49A710DA000F078FF6020CC
:10260000CDE9000402940022694608480494FFF7CB
:10261000E8FB20B140F23D1105A000F068FF03483F
:10262000FFF76CFB08B010BD0018004070020020DE
:102630002E2E2F5372632F74696D2E6300000000DD
:1026400010B523488AB04FF0804101605921002421
:10265000C0E9011440F6D631C0E90314FFF729FCA4
:1026600018B14D211BA000F042FF079407A918489C
:102670000894FFF73EFA18B1542116A000F037FF76
:102680006020CDE9000402940022694610480494B9
:10269000FFF7A7FB18B15D210EA000F028FF042270
:1026A00069460B48FFF79DFB18B1622109A000F0B5
:1026B0001EFF082269460648FFF793FB18B1672101
:1026C00004A000F014FF0248FFF718FB0AB010BD89
:1026D000440100202E2E2F5372632F74696D2E63D8
:1026E0000000000010B51A488AB01849016059214D
:1026F0000024C0E9011440F2E731C0E90314FFF7F8
:10270000D8FB18B17A2113A000F0F1FE079407A9B5
:102710000F480894FFF7EDF918B181210DA000F0E2
:10272000E6FE6020CDE900040294042269460848D0
:102730000494FFF756FB18B18A2106A000F0D7FEDB
:102740000348FFF7DBFA0AB010BD000000040040A8
:10275000800100202E2E2F5372632F74696D2E631B
:102760000000000010B524488AB0224901605921B8
:102770000024C0E9011440F6D631C0E90314FFF784
:1027800098FB18B19D211DA000F0B1FE079407A988
:1027900019480894FFF7ADF918B1A42117A000F06B
:1027A000A6FE6020CDE9000402940022694612488A
:1027B0000494FFF716FB18B1AD2110A000F097FEAE
:1027C000042269460C48FFF70CFB18B1B2210BA09C
:1027D00000F08DFE082269460748FFF702FB18B19A
:1027E000B72106A000F083FE0348FFF787FA0AB07E
:1027F00010BD000000080040BC0100202E2E2F5309
:1028000072632F74696D2E630000000010B52448B8
:102810008AB02249016059210024C0E9011440F620
:10282000D631C0E90314FFF744FB18B1CA211DA03B
:1028300000F05DFE079407A919480894FFF759F9BD
:1028400018B1D12117A000F052FE6020CDE900049C
:1028500002940422694612480494FFF7C2FA18B1A0
:10286000DA2110A000F043FE082269460C48FFF769
:10287000B8FA18B1DF210BA000F039FE0C2269462E
:102880000748FFF7AEFA18B1E42106A000F02FFECA
:102890000348FFF733FA0AB010BD0000000C0040F7
:1028A000F80100202E2E2F5372632F74696D2E6352
:1028B0000000000010B5314890B02F490160592147
:1028C0000024C0E9011440F6D631C0E90314446184
:1028D000FFF7EFFA18B1F92129A000F008FE0E94D5
:1028E0000EA926480F94FFF704F920B14FF4807128
:1028F00023A000F0FCFD6020CDE9000402940394C5
:1029000004940594042269461C480694FFF769FA6A
:1029100020B14FF486711AA000F0E9FD0822694643
:102920001648FFF75EFA20B140F2111114A000F032
:10293000DEFD0C2269461148FFF753FA20B14FF42F
:102940008B710FA000F0D3FD0794089409944FF405
:1029500000500A94CDE90B4007A908480D94FFF7F1
:102960009BF820B14FF4917105A000F0C0FD034821
:10297000FFF7C4F910B010BD00040140340200207C
:102980002E2E2F5372632F74696D2E63000000008A
:102990000F4810B50D4901600E4941604FF4805158
:1029A000816000214FF48062C0E903120C22C0E96B
:1029B0000521C161FFF7C4FB002805D0BDE8104028
:1029C0004E2105A000F093BD10BD00000010014095
:1029D000AC020020A08601002E2E2F5372632F75AB
:1029E000736172742E630000FEE770470907090ED9
:1029F000002806DA00F00F0000F1E02080F8141D36
:102A0000704700F1E02080F80014704738B50B469D
:102A1000009204460022802100F008F8002804D02B
:102A2000606D40F020006065032038BD2DE9F04165
:102A30001D4617460E460446DDF8188035E0681C32
:102A400033D02DB1FEF7FCFAA0EB0800A8422CD33E
:102A50002068416821F0E00141606068B0F5827F44
:102A60000BD1A068B0F5004F02D0B0F5806F04D153
:102A70002068016821F040010160A06AB0F5005FA4
:102A80000AD1206801684DF6FF721140016020688C
:102A9000016841F400510160012084F851000020D8
:102AA00084F850000320BDE8F0812068806836EA91
:102AB000000004D00020B842C1D10020F3E701207B
:102AC000F9E70000534D524F4FF0FF39002605F152
:102AD0001A0400234A461946786802F065FF002070
:102AE000295C19B9401CC0B21228F9D31228F0D0C1
:102AF0001220295C31B112202E54401CC0B219287A
:102B0000FAD3E6E7401CC0B21928F2D3E1D12888F5
:102B100094F8188094F819A0E38BC0F30A0CA4F879
:102B200000C06878ACF5806CC108A87841EA401113
:102B3000C1F30A016180EA78800940EA82022879BB
:102B400042EA8022C2F30A02A28093466A794008D0
:102B500040EAC210C0F30A00E080A4F80AC00CF1F9
:102B6000040CBCF1090F00D26681A1F58061A1813E
:102B7000091D092900D2A681ABF58061E181091DFB
:102B8000092900D2E681A0F580602082001D092875
:102B900000D2268290092072C2F301106072E88888
:102BA00060822889A0826889E082297B2176687BFF
:102BB0006076EA89E28328B9BAF1000F02D04FF0BB
:102BC000010C01E04FF0000C84F81DC029B9B8F1E8
:102BD000000F02D04FF0010C01E04FF0000C84F820
:102BE0001CC011B1B8F1000F0ED00021A17610B1B8
:102BF000BAF1000F0AD00020E07682EA0300904389
:102C000020849A43628464E70121EFE70120F3E71F
:102C10007800002078400020012002F0BFF8FBE798
:102C2000F0B585B000213548FFF7AEF9334C4FF4CD
:102C3000FA602168C862E06021684010486364203F
:102C400002F0ACF8216840F2DC50C862E060216814
:102C500040104863B42002F0A1F820684FF4FA75E0
:102C6000C562E5602068FA2646634FF48C7002F076
:102C700095F82068C562E560206800274763FDF786
:102C800087FEFFF733FB01224FF4FF711C48FEF76C
:102C9000D1F90122D1021B48FEF7CCF901229103A0
:102CA0001948FEF7C7F92068C562E56020684663E9
:102CB000B42002F073F820684763B42002F06EF885
:102CC0002068C562E56020684663B42002F066F8BB
:102CD00020684763B42002F061F814220B4968466B
:102CE000FDF70FFB0021684602F06EF80849086006
:102CF000002002F080F805B0F0BD00007002002056
:102D00000018024000100240001402406C610008EC
:102D100084000020FFF7F1FA012002F03FF8F9E704
:102D200002F048B830B5264893B00025016841F05C
:102D300080510160006800F08050119021480168C6
:102D400041F4404101600068022400F440401190C9
:102D500001200090000401908001CDE90640082088
:102D60000890F020CDE9090404200B906846FEF796
:102D700091FB00B1FEE7FEF745FA00B1FEE70CA9B2
:102D80000F2081E831004FF4A0500F9010900521E2
:102D90000CA8FEF76FFA00B1FEE7FEF723FB4FF435
:102DA0007A71B0FBF1F0FEF761FE0420FEF752FEEF
:102DB00000220F21501EFEF7F3F913B030BD0000C2
:102DC00040380240007000401048016841F4700132
:102DD00001600F48016841F0010101600C4A0021C7
:102DE0000832116002680B4B1A400260031D0A4A48
:102DF0001A60026822F48022026005480C300160EB
:102E000002495806803908607047000088ED00E0EC
:102E100000380240FFFFF6FE103000240148FEF7A4
:102E2000B9BE00004C030020F0B50268234B244DCE
:102E3000244E254F254C4FF0804C984209D06045D8
:102E400007D0A84205D0B04203D0B84201D0A0427A
:102E500004D122F0700E4A6842EA0E0298421BD05A
:102E6000604519D0A84217D0B04215D0B84213D04F
:102E7000A04211D0164DA8420ED0164DA8420BD03C
:102E8000154DA84208D0154DA84205D0144DA842B2
:102E900002D0144DA84203D122F44075CA682A43D7
:102EA00002608A68C2620A688262984201D0A042C7
:102EB00001D10969016301214161F0BD00000140B8
:102EC0000004004000080040000C004000040140E5
:102ED000004001400044014000480140001800400B
:102EE000001C00400020004010B50123046A8B4004
:102EF0009C430462036A8A401343036210BD0000CE
:102F000030B5026A22F001020262026A43688469F3
:102F10000D6824F07304254322F002048A682243DA
:102F20000B4CA04202D00B4CA0420BD122F0080463
:102F3000CA6823F4407322434C6922F004021C4304
:102F40008B6923434360856149684163026230BDF8
:102F5000000001400004014030B5026A22F0100276
:102F60000262026A436884690D6824F4E64444EA14
:102F700005248D6822F0200242EA05120D4DA84278
:102F800002D00D4DA8420ED1CD6822F0800242EA57
:102F900005124D6923F4406343EA85038D6922F0ED
:102FA000400243EA850343608461496881630262A9
:102FB00030BD0000000001400004014030B5026A4D
:102FC00022F480720262036A4268C46923F40073C7
:102FD00024F073050C682C438D6843EA05230D4DDE
:102FE000A84202D00C4DA8420ED1CD6823F4006354
:102FF00043EA05234D6922F4405242EA05128D69E5
:1030000023F4806342EA05124260C4614968C163E7
:10301000036230BD000001400004014030B5026A87
:1030200022F480520262046A4268C3690D6823F484
:10303000E64343EA05238D6824F4005444EA05344A
:10304000084DA84202D0084DA84204D14D6922F48F
:10305000804242EA85124260C361496801640462A9
:1030600030BD0000000001400004014010B5806B3D
:103070000021C185C184FEF7DAFF10BD70B5846BF5
:103080002068406994F83910C0F3C0100025212948
:1030900004D118B1E584204600F046F82068406964
:1030A00094F83A10C0F38010222904D118B1E585B4
:1030B000204600F02BF8E06B40F01000E063204663
:1030C000FEF7B5FF70BD10B50146806B0968096851
:1030D000C90513D40021C1850168CA6822F4807231
:1030E000CA6001684A6922F001024A6101684A69BE
:1030F00022F040024A61202180F83A10FFF7F2F8EE
:1031000010BD10B5806BFFF7EEF810BD0168CA68FE
:1031100022F49072CA6001684A6922F001024A6191
:10312000202180F83A1070470168CA6822F0C00276
:10313000CA60202180F83910704710B590F83A1015
:10314000222901D0022010BD8168B1F5805F11D025
:103150000169002901681FD0496801F07F03816A75
:103160004A1C82620B70C18D491E0904090CC1857D
:1031700018D026E00269816A002A0268526805D0E8
:10318000D2B20A80816A491C8162ECE7C2F308026C
:103190000A80816A891CF7E74A68816A4B1C83624E
:1031A0000A70E0E70168CA6822F49072CA60016898
:1031B0004A6922F001024A61202180F83A10FFF7A3
:1031C00091F8002010BD00002DE9F0410446006890
:1031D000016921F44052E168114301612168C86826
:1031E00049F20C6290432369A268E5691A43636956
:1031F0002B431A430243CA602168486920F4407295
:10320000A06910434861E1696425B1F5004F974812
:10321000974A21684FF032083FD0914201D0814255
:103220007CD1FEF7F5F800EBC00101EB00106168FE
:103230008900B0FBF1F6FEF7EBF800EBC00101EB03
:10324000001061688900B0FBF1F0B0FBF5F06FF0A1
:103250001801484306EB800108EB0110B0FBF5F0C4
:1032600000F0F006FEF7D4F800EBC00101EB00100F
:1032700061688900B0FBF1F0B0FBF5F006EB0016D9
:10328000FEF7C6F800EBC00101EB00106168890091
:10329000B0FBF1F7FEF7BCF8D2E0914201D08142D9
:1032A0003DD1FEF7B5F800EBC00101EB00106168FD
:1032B0004900B0FBF1F0B0FBF5F00601FEF7A8F80D
:1032C00000EBC00101EB001061684900B0FBF1F7B1
:1032D000FEF79EF800EBC00101EB001061684900A9
:1032E000B0FBF1F0B0FBF5F06FF01801484307EBCD
:1032F000800108EBC100B0FBF5F000F0F80006EB30
:103300004006FEF785F800EBC00101EB0010616894
:103310004900B0FBF1F7FEF77BF83CE055E0FEF723
:1033200067F800EBC00101EB001061684900B0FBD9
:10333000F1F0B0FBF5F00601FEF75AF800EBC00122
:1033400001EB001061684900B0FBF1F7FEF750F89F
:1033500000EBC00101EB001061684900B0FBF1F027
:10336000B0FBF5F06FF01801484307EB800108EB64
:10337000C100B0FBF5F000F0F80006EB4006FEF7E8
:1033800037F800EBC00101EB001061684900B0FBA9
:10339000F1F7FEF72DF800EBC00101EB00106168BA
:1033A0004900B0FBF1F0B0FBF5F06FF018014843B5
:1033B00007EB800108EBC100B0FBF5F000F007005F
:1033C000216830448860BDE8F081FEF711F800EB19
:1033D000C00101EB001061688900B0FBF1F6FEF757
:1033E00007F800EBC00101EB001061688900B0FB39
:1033F000F1F0B0FBF5F06FF01801484306EB8001E7
:1034000008EB0110B0FBF5F000F0F006FDF7F0FF5F
:1034100000EBC00101EB001061688900B0FBF1F026
:10342000B0FBF5F006EB0016FDF7E2FF00EBC00184
:1034300001EB001061688900B0FBF1F7FDF7D8FFE0
:1034400000EBC00101EB001061688900B0FBF1F0F6
:10345000B0FBF5F06FF01801484307EB800108EB73
:103460000110B0FBF5F000F00F00A9E700140140D7
:103470000010014090F83910212901D00220704736
:103480008168B1F5805F016A0BD04A1C0262026854
:1034900009785160C18C491E0904090CC1840ED001
:1034A00017E009880268C1F3080151600169002929
:1034B000016A02D0491C0162ECE7891CFBE7016844
:1034C000CA6822F08002CA600068C16841F0400109
:1034D000C16000207047000010B5FDF72FFABDE86D
:1034E00010400148FEF7A4BDAC020020FEE7FEE755
:1034F00003B401984100009850EAC12018BF04208D
:103500004A0D18BF40F0010040F2FF72B2EB515F6C
:1035100008BF40F00200012808BF052002B0704734
:1035200070B5C1482DED020B2DED0E8B82B0119DB3
:1035300025F000449FEDBEDB9FEDBFEB84423EDBF8
:10354000A4F140511098A1F17F6108430FD0BC480D
:10355000844202DC28D1109830B39DED100B02B0EC
:10356000BDEC0E8B02B0BDE8704000F0B0BC9DED2C
:10357000100B53EC1D2B51EC100BFCF7D4FE9DED02
:10358000100B41EC180B53EC1E2B51EC100BFCF7FD
:10359000CAFE53EC182BFDF744F841EC100B02B0B7
:1035A000BDEC0E8B02B070BD012000F0D5FC02B066
:1035B000BDEC0E8B02B0BDE8704000F09DBCA14890
:1035C0009FEDA18B844256DA9DED100BB4F1795F2B
:1035D0000ADA51EC100BFFF78BFF042808BF00F04C
:1035E0009BFC9DED100BDAE753EC102B51EC100B0C
:1035F000FCF799FE41EC190B95480621B0EE490AFB
:10360000F0EE690A784400F0E6FB53EC192B51EC1C
:10361000100BFCF788FE41EC1A0B8E48B0EE490AFD
:10362000F0EE690A0421784400F0D5FB53EC192B25
:1036300051EC100BFCF777FE53EC182BFCF7F1FF65
:1036400041EC100B51EC1A0B53EC102BFDF790F8DA
:10365000CDE900019DED000B53EC102B9DED100BFF
:1036600051EC100BFCF75FFE9DED101B53EC112B82
:10367000FCF7D7FFD2E09DED100B51EC100B00F0E2
:1036800079FC53EC182BFDF770F89FED730BCDE927
:10369000000153EC102B9DED000B51EC100BFCF7CF
:1036A00042FE41EC190B6E480621B0EE490AF0EEDD
:1036B000690A784400F08FFB53EC192B51EC100B86
:1036C000FCF731FE41EC1B0B6648B0EE490AF0EE08
:1036D000690A0421784400F07EFB53EC192B51EC6D
:1036E000100BFCF720FE53EC182BFCF79AFF41EC73
:1036F0001C0B51EC190B01F03DFE41EC180B5A4824
:103700009FED5BABA04222DC53EC1C2B51EC1B0B5E
:10371000FDF72EF8CDE900019DED000B51EC180BE3
:1037200053EC102BFCF7FFFD53EC182BFCF779FF43
:1037300053EC1A2BFCF7F7FD53EC1D2BFDF712F899
:1037400053EC1E2BFDF711F841EC100B5FE08DEDF3
:10375000008B002000909DED000B51EC180B53ECFA
:10376000102BFCF75EFF9DED000B41EC1E0B53ECA4
:10377000102B51EC100BFCF7D6FD53EC192BFCF77A
:10378000F4FF53EC1E2BFCF7F3FF41EC190B53EC49
:103790001C2B51EC1B0BFCF7EBFF41EC1B0B53EC10
:1037A0001A2B51EC190BFCF7BEFD53EC1D2BFCF74B
:1037B000DCFF41EC190B53EC1A2B51EC180BFCF706
:1037C000B2FD53EC1B2BFCF7AEFD53EC192BFCF7B1
:1037D000C9FF9DED000B41EC180B53EC1A2B51EC7B
:1037E000100BFCF7A0FD9FED249B53EC192BFCF76D
:1037F000BCFF41EC100B51EC180B53EC102BFCF7F9
:10380000B1FF53EC192BFCF7B0FF41EC100B002D6E
:103810003FF7C5AE51EC100B81F0004141EC100BAD
:10382000BDE60000000000000000F03F00000000C6
:10383000075C143326A6913C182D4454FB21F93F14
:103840000000F07F0000E03F000000000000F03FBB
:10385000902B00009E2B0000000000000000E03FC5
:10386000E22A0000F02A00003333EF3F000000009E
:103870000000000000000040182D4454FB21E93FE7
:1038800070B59B482DED020B2DED068B079D25F0A5
:103890000044A04218DC9748844202DC0AD1069812
:1038A00040B19DED060BBDEC068B02B0BDE870404B
:1038B00000F00DBB002DCCBF9FED8F0B9FED900B4B
:1038C000BDEC068B02B070BD8F48A04215DD8F485D
:1038D000A042D8BF4FF0FF3458DD9DED060B51ECF0
:1038E000100BFFF705FE042808BF00F015FB9DED47
:1038F000060BBDEC068B02B070BD9DED060B51ECC6
:10390000100B00F037FBCDE9060181489FED828B5B
:10391000A0423CDD8248A0421FDD00249FED82AB27
:103920009DED060B53EC1A2B51EC100BFCF779FEB6
:103930009DED060B41EC190B53EC1A2B51EC100BBF
:10394000FCF7F1FC53EC182BFCF70CFF53EC192B94
:10395000FCF70EFFCDE9060149E09DED060B0124C1
:1039600053EC182B51EC100BFCF75BFE9DED060B96
:1039700041EC190B53EC182B51EC100BFCF7F2FE39
:1039800053EC192BFCF7F4FECDE906012FE0684853
:10399000A0421FDD02249FED689B9DED060B53ECBA
:1039A000192B51EC100BFCF7BEFC53EC182BFCF759
:1039B00038FE9DED060B41EC180B53EC192B51EC26
:1039C000100BFCF7CFFE53EC182BFCF7D1FECDE922
:1039D00006010CE09DED060B032453EC102B9FED2C
:1039E000580B51EC100BFCF7C3FECDE906019DED21
:1039F000060B53EC102B51EC100BFCF794FC41EC34
:103A0000180B53EC182BFCF78EFC41EC190B4E48AD
:103A10000621B0EE490AF0EE690A784400F0DBF9BD
:103A200053EC182B51EC100BFCF77DFC41EC180B00
:103A30004648B0EE490AF0EE690A0521784400F0E4
:103A4000CAF953EC192B51EC100BFCF76CFC41EC50
:103A5000100B51EC180B53EC102B002C0EDAFCF76A
:103A6000E0FD9DED061B53EC112BFCF75CFC9DED7E
:103A7000061B53EC112BFCF778FE35E0FCF7D1FD6B
:103A80009DED061B53EC112BFCF74DFC41EC100B8C
:103A90002F48784400EBC40090ED001B51EC100B54
:103AA00053EC112BFCF75EFE9DED061B53EC112B26
:103AB000FCF758FE41EC100B2648784400EBC4009C
:103AC00090ED001B51EC100B53EC112BFCF74DFE4D
:103AD00041EC100B002DA2BFBDEC068B02B070BDF7
:103AE00051EC100B81F0004141EC100B01E700009C
:103AF000000010440000F07F182D4454FB21F93FD2
:103B0000182D4454FB21F9BF0000DC3F0000203E8B
:103B10000000F33F00000000000000000000F03F44
:103B20000000E63F00000000000000000000004030
:103B30000080034000000000000000000000F83F8B
:103B4000000000000000F0BF32280000E82700005D
:103B5000722700002A27000070B56B4E2DED040B74
:103B60002DED028B82B0DDF81CC0DDE905235C423F
:103B70002CF000411C4341EAD474049D22F0004023
:103B8000B44205D86C422C4340EAD474B4420BD9F9
:103B90009DED061B9DED040B02B0BDEC028B04B045
:103BA000BDE8704000F09DB9ACF14054A4F17F64D1
:103BB0001C430BD0022404EAAC7444EAD2740543DB
:103BC0009FED538B9FED542B07D015E09DED040B1B
:103BD00051EC100B00F0C6F942E0002C11BF012C93
:103BE0009DED040B02B0BDEC028B04BF04B070BDB0
:103BF000022C38D0032C3BD00B439FED491B9FED8B
:103C00004A0B0AD0B14218D1B04209D121F080410B
:103C100020F08040079105900FE0002A15DA10E0AF
:103C2000434B7B44002C08BF93ED000B0DD0012CBF
:103C300010D0022C17D0032C1AD0B0421DD1002A6C
:103C400003DAB0EE410AF0EE610A02B0BDEC028B7D
:103C500004B070BD93ED000B51EC100B81F00041EE
:103C600041EC100BF1E7B0EE480AF0EE680AECE721
:103C7000B0EE420AF0EE620AE7E7401A00153C286F
:103C8000C8BF8DED000B19DCBCF1000FBEBF10F1F9
:103C90003C0F9FED290B8DED000B0FDB9DED060B0F
:103CA00053EC102B9DED040B51EC100BFCF760FD59
:103CB00000F060F900F056F9CDE90001002C08BFD2
:103CC0009DED000BC1D0012C10D0022C9FED1C0BE0
:103CD00053EC102B9DED000B51EC100B0DD0FCF7AD
:103CE00041FD53EC182BFCF73DFDB9E7019880F03E
:103CF000004001909DED000BA7E7FCF733FD53EC6E
:103D0000182BFCF732FDABE70000F07F000000004D
:103D1000182D4454FB210940182D4454FB2109C09F
:103D2000182D4454FB21F9BF182D4454FB21F93FB1
:103D30005A26000000000000000000000000000003
:103D4000075C143326A6A13C2DED020B019820F050
:103D5000004001909DED000B02B0704700B52DEDC5
:103D6000048BB0EE409AF0EE609A83B051EC190BE0
:103D7000FCF76DFD41EC180B18EE100A18EE901AC6
:103D80008DED008B002818BF0120084320F0004073
:103D9000C0F17F6000F1E040C00F14D019EE101A9E
:103DA00019EE900A8DED009B002918BF01210843F0
:103DB00020F00040C0F17F6000F1E040C00F04BF80
:103DC000012000F0C9F8B0EE480A03B0F0EE680A2E
:103DD000BDEC048B00BD70B504462DED028B4D1E6D
:103DE00000EBC500B0EE408AF0EE608A90ED000B6B
:103DF00035F0060017D053EC182B51EC100BFCF7E4
:103E000092FA41EC100B6D1E04EBC50090ED001B07
:103E100051EC100B53EC112BFCF703FC41EC100B95
:103E200035F00600E7D1022D36D0042D1CD0062D2A
:103E30001CBFBDEC028B70BD53EC182B51EC100B6A
:103E4000FCF771FA94ED0A1B53EC112BFCF7E9FB1C
:103E500053EC182BFCF767FA94ED081B53EC112B6D
:103E6000FCF7DFFB41EC100B53EC182B51EC100B63
:103E7000FCF759FA94ED061B53EC112BFCF7D1FB20
:103E800053EC182BFCF74FFA94ED040B53EC102B6A
:103E9000FCF7C7FB41EC100B53EC182B51EC100B4B
:103EA000FCF741FA94ED021B53EC112BFCF7B9FB24
:103EB00053EC182BFCF737FA94ED001B53EC112B45
:103EC000FCF7AFFBBDEC028B41EC100B70BD10B5E5
:103ED00053EC102B51EC100BFCF7A3FB41EC100B37
:103EE00010BD10B553EC112B51EC100BFCF799FBE6
:103EF00041EC100B10BD00009FED050B10B553EC0D
:103F0000102B51EC100BFCF733FC41EC100B10BDE7
:103F100000000000000000009FED050B10B553EC01
:103F2000102B51EC100BFCF7FEF941EC100B10BDFF
:103F3000000000000000001002E008C8121F08C1C5
:103F4000002AFAD170477047002001E001C1121F1A
:103F5000002AFBD17047000001490860704700004B
:103F6000E800002010B541EC100BFFF789FC51EC84
:103F7000100B10BD82B0CDE9000121F0004001908E
:103F80009DED000B02B051EC100B704710B5FF4CCB
:103F9000FF482DED108B94ED010AD4ED010A20EEBF
:103FA00020FA94ED010AD4ED020A20EE20CA94ED25
:103FB000010AD4ED030A60EE20BA94ED010AD4EDB3
:103FC000040A60EE20CA94ED020AD4ED020A20EE43
:103FD00020DA94ED020AD4ED030A20EE209A94ED43
:103FE000020AD4ED040A20EE20BA94ED030AD4EDBF
:103FF000030A60EE20AA94ED030AD4ED040A20EE31
:1040000020AA94ED040AD4ED040A60EE209A90ED03
:10401000040A84ED080A90ED050A84ED090A90ED82
:10402000060A84ED0A0AB0F9001000EE101AB8EE84
:10403000C00A84ED0B0AB0F9021000EE101AB8EEB7
:10404000C00A84ED0C0AB0F9041000EE101AB8EEA4
:10405000C00A84ED0D0AB0F9061000EE101AB8EE91
:10406000C00A84ED0E0AB0F9081000EE101AB8EE7E
:10407000C00A84ED0F0AB0F90A0000EE100AB8EE8B
:10408000C00A84ED100AFCF7DBFFA064A06C616C31
:10409000401A00EE100AB8EE400ADFEDBE0AA06C2E
:1040A000C0EE208A606494ED0B0AD4ED0B0A94ED07
:1040B0000C1A20EE200AD4ED0C0A00EE810AD4ED91
:1040C0000D0A94ED0D1A00EE810A00F055FBD4EDB7
:1040D0000B0A60EE800AC4ED0B0AD4ED0C0A60EE08
:1040E000800AC4ED0C0AD4ED0D0A20EE800A84ED9E
:1040F0000D0A94ED0E0AD4ED0E0A94ED0F1A20EE7F
:10410000200AD4ED0F0A00EE810AD4ED100A94EDD6
:10411000101A00EE810A00F02FFBD4ED0E0AB6EE65
:10412000001AB0EE008A60EE800A39EE6CEA7BEE8F
:104130002B1AC4ED0E0AD4ED0F0A60EE800AC4ED0E
:104140000F0AD4ED100A20EE800A71EE6A0A31EEF1
:104150004D1A84ED100A94ED0E0A70EEE9EA31EE84
:10416000692A20EE080A71EE6ADA60EE2E0A94EDF2
:104170000F0A20EE080A40EE0E0A94ED100A20EE17
:10418000080A40EE210A94ED0E0A79EE2C1A7BEE15
:104190006BCA20EE080A60EEA00A20EE210AD4EDD8
:1041A0000F1A61EE881A01EE820AD4ED101A3AEE67
:1041B0004C2A61EE881A01EE820AD4ED0E1A3AEE0C
:1041C0000C2A61EE881A40EE000A21EEAC9AD4ED7A
:1041D0000F1A10EE900A61EE881A01EE829AD4ED61
:1041E000101A61EE881A01EEAD9AFCF71FF941EC46
:1041F000100BFFF7B3FD51EC100BFCF743F900EE89
:10420000900A7CEE0A2A3FEE4D1A60EE880A69EEAB
:10421000083A22EE880A31EE6A1A60EE8E1A94EDA0
:10422000104A2CEE882A31EE293A43EEA21A7BEE90
:104230008B2A20EEAE1A60EEA22AD4ED0C0A03EE11
:10424000AC1A43EEAD2A60EE830AD4ED0D3A43EE8C
:10425000C00AD4ED0F3A63EEA23A44EE613A94ED0F
:104260000B4A70EEA30AD4ED0D3A63EE823AF5EEF6
:10427000C00A44EE433A94ED103A94ED0E4A23EE10
:10428000013A04EE623A73EE832A94ED0B3A23EE80
:10429000000A94ED0C3A03EE420A94ED0E2A62EE07
:1042A000211A94ED0F2A42EE411A30EE210AF1EE66
:1042B00010FA41D0F5EEC02AF1EE10FA3CD0B5EE7E
:1042C000C00AF1EE10FA37D0D4ED051A9FED321A7C
:1042D00020EE812A42EE281A22EE812AC4ED051A28
:1042E000D4ED061A42EE281AC4ED061A60EE011A41
:1042F00094ED071A01EEA81A84ED071A94ED081A36
:1043000000EE881AD4ED050A71EE200AC4ED080A01
:10431000D4ED090A94ED061A42EE880A70EE810A7D
:10432000C4ED090AD4ED0A0A40EE080A94ED070A22
:1043300030EE800A84ED0A0A94ED020AD4ED080AF0
:1043400094ED091A94ED013A20EEC00AD4ED030A67
:1043500000EEC10AD4ED040A94ED0A1A00EEC10A77
:10436000D4ED080A94ED0A1A00EE283A94ED010AF9
:1043700020EE200AD4ED030A00EE810AD4ED040AEF
:1043800094ED091A00EEC10A08E000008800002040
:10439000B84000200000FA440AD7233CD4ED021AAA
:1043A000D4ED090A94ED0A1A40EE281A94ED010A98
:1043B00094ED032AD4ED042A20EE200AD4ED020A5B
:1043C00000EEC10AD4ED040A94ED081A00EE810A49
:1043D000D4ED0A0A94ED091A00EE282A94ED010A98
:1043E00020EE200AD4ED020A00EE810AD4ED030A81
:1043F00094ED081A00EEC10A40EE282A23EE030AC3
:1044000001EEA10A02EE020A02EEA20A00F0B4F9DD
:1044100063EE000AC4ED010A61EE800AC4ED020AEF
:1044200062EE000A22EE800AC4ED030A84ED040A5B
:10443000BDEC108B10BD000070B5564C2DED068BF9
:10444000F8EE008AB0EE008AB7EE00AA94ED030AF7
:10445000D4ED030A94ED041A20EE280A20EE200A77
:10446000D4ED040A60EE880A00EEC10A30EE0A0AB2
:1044700010EE100AFBF7DAFF94ED020AD4ED030AFE
:1044800094ED041A20EE080A41EC190B20EE200AE4
:10449000D4ED010A60EE880A00EE810A10EE100ADF
:1044A000FBF7C4FF41EC100BB0EE491AF0EE691AAD
:1044B000FFF752FB9FED389B51EC100B53EC192B7F
:1044C000FBF731FFFBF7DEFF354D286394ED020A61
:1044D000D4ED040A94ED031A20EE280A20EE200AF7
:1044E000D4ED010A60EE880A00EE810A10EE100A8F
:1044F000FBF79CFF41EC100BFFF712F853EC192B64
:1045000051EC100BFBF70FFFFBF7BCFFE86294EDDB
:10451000020AD4ED020A94ED031A20EE280A20EED6
:10452000200AD4ED030A60EE880A00EEC10A30EEDC
:104530000A0A10EE100AFBF779FF94ED030AD4ED96
:10454000040A94ED021A20EE080A41EC190B20EE41
:10455000200AD4ED010A60EE880A00EE810A10EE0E
:10456000100AFBF763FF41EC100BB0EE491AF0EEB6
:10457000691AFFF7F1FA9FED0B1B51EC100B53EC8E
:10458000112BFBF7D0FEFBF77DFFA862BDEC068B7D
:1045900070BD0000880000206666666666A64CC096
:1045A000B84000206666666666A64C4010B559485D
:1045B0002DED0A8BB0F90610B0F908009FED569B5F
:1045C000DFED57BA574C9FED588A9FED58BADFED93
:1045D00058AA9FED58AADFED588A00294EDA9FEDC0
:1045E00057CA00282ADA91FBF0F0FBF70EFF41ECE6
:1045F000100BFFF7A9FB53EC192B51EC100BFBF739
:1046000029FF0AD8C4ED01BA84ED028A9FED4C0A55
:1046100084ED030A9FED4B0A0BE09FED4B0A84EDFE
:10462000010A9FED4A0A84ED020A84ED03BA9FED68
:10463000480A84ED040ABDEC0A8B10BDFBDD91FB3A
:10464000F0F0FBF7E2FE41EC100BFFF77DFB53ECC3
:10465000192B51EC100BFBF7FDFE84ED01CA06D8B7
:1046600084ED028AC4ED03AA9FED3A0AE1E784EDE6
:1046700002AAC4ED038A9FED380ADAE7DBDD0028E1
:104680009FED36CA22DD91FBF0F0FBF7BEFE41EC58
:10469000100BFFF759FB53EC192B51EC100BFBF7E8
:1046A000D9FE0AD89FED2E0A84ED010AC4ED02AAB4
:1046B00084ED038AC4ED04BABDE79FED2A0A84EDB8
:1046C000010AC4ED028A84ED03AAB2E7B3DA91FBD2
:1046D000F0F0FBF79AFE41EC100BFFF735FB53ECC3
:1046E000192B51EC100BFBF7B5FE84ED01CA08D86D
:1046F0009FED1D0A84ED020A84ED038A9FED1B0ADB
:1047000097E79FED1B0A84ED02BA84ED030A9FED43
:10471000190A8EE7B8400020000000000000F03FBA
:104720000AD7A3BB88000020A8C64BBEE17A543F3D
:10473000355E7ABF68910DBFE17A54BF0AD7A33BBB
:10474000BE9F7A3F4ED111BC6F1203BC7B140EBFCB
:104750006F1203BBA69B443C99BB16BB0AD7233BF5
:1047600052499D3A99BB163B355E7A3F6F12033C26
:10477000295C0FBFBC74933B10EE100AF6EE000AE2
:10478000074960EE200AA1EB600000EE100A20EE5F
:10479000801AF7EE080A41EE400A20EE800A7047C0
:1047A000DF59375F06220146492000F095BA10B55F
:1047B00030216A2000F0C8FA0A20FCF743FB0D21E3
:1047C000242000F0C1FA0A20FCF73CFB0E2128202F
:1047D00000F0BAFA0A20FCF735FB8E21312000F0F8
:1047E000B3FA0A20FCF72EFB01210B2000F07BF826
:1047F0000A20FCF727FB002000F059F8102801D010
:10480000012010BD01210B2000F06DF80A20FCF7FB
:1048100019FB00210A2000F066F80A2000F047F892
:1048200008B1022010BD0A20FCF70CFB00210B2070
:1048300000F059F80B2000F03AF808B1032010BD41
:104840000A20FCF7FFFA2421412000F04CF8412017
:1048500000F02DF8242801D0042010BD0A20FCF718
:10486000F1FAC021422000F03EF8422000F01FF88B
:10487000C02801D0052010BD0A20FCF7E3FA002172
:104880002A2000F061FA0A20FCF7DCFA002134202B
:1048900000F05AFA0A20FCF7D5FA062203210E206E
:1048A00000F038F96420FCF7CDFA002010BD10B5F7
:1048B0000146322000F048FA0A20FCF7C3FA8021B2
:1048C000342000F041FA0A20FCF7BCFA352000F051
:1048D000DBF904460021342000F036FA0A20FCF708
:1048E000B1FA204610BD70B50D46044600212A20BD
:1048F00000F02AFA0220FCF7A5FA2146292000F050
:1049000023FA0220FCF79EFA2946642000F01CFAE4
:104910000220FCF797FA81212A2000F015FABDE861
:1049200070400A20FCF78EBAFCF798FBFEF7FAF904
:10493000FDF720FDFDF7EAFCFDF722FEFDF780FE06
:10494000FDF7D0FEFDF70EFFFDF760FFFDF7B2FFAC
:10495000FDF742FEFEF71CF80948FDF7AAFA0948E0
:10496000FDF7A7FA0848FDF7A4FA0848FDF7A1FAF1
:104970000748FDF79EFAFDF7DFFC00F016FAFEE7A8
:104980004401002080010020BC010020F80100202B
:104990003402002001460020842900D0C81C704742
:1049A00030B585B06420FCF74DFA752000F06CF945
:1049B000124900241422887011496846FBF7A1FCB3
:1049C0004FEA0D0505EB4400417815F8140000F09E
:1049D000BBF90120FCF736FA641CE4B20A2CF1D3CF
:1049E000032000F0ACF9022000F0A4F9FFF7DFFE8D
:1049F00000F0D8F805B0002030BD0000880000208D
:104A00008061000810B50E223D493B2000F064F99A
:104A10003B4800F11004018849BA2180418849BA15
:104A20006180818849BAA180C18849BAA181018980
:104A3000D4ED090A49BA09B200EE101AB8EEC00A5C
:104A400030EE600A84ED040A4189D4ED0A0A49BABD
:104A500009B200EE101AB8EEC00A30EE600A84ED1A
:104A6000050A8089D4ED0B0A40BA00B200EE100AA4
:104A70002448B8EEC00A30EE600A84ED060AFFF75B
:104A800091FE2049A4F144004C399FED1F1ACA6CD5
:104A9000C0F84A20B1F85010A0F84E1000F14401BF
:104AA0000EC980E80E00B4F90C0000EE100AA4F163
:104AB0004400F8EEC00A80EE810AF3EE050A30EEFB
:104AC000200A80ED030AD4ED040A9FED100A80EE5F
:104AD000801ADFED0F0AC1EE201AC0ED041AD4EDE2
:104AE000051A81EE801AC1EE201AC0ED051AD4ED28
:104AF000061A81EE801A81EE200A80ED060A10BDAA
:104B0000EC400020D40000205CEFA6436F128341EC
:104B10003333654270B50E460446014615462820DB
:104B200000F012F90220FCF78DF90A21292000F08B
:104B30000BF90220FCF786F90121642000F004F94A
:104B40000220FCF77FF944F08001252000F0FCF8FA
:104B50000220FCF777F93146262000F0F5F8022014
:104B6000FCF770F90321342000F0EEF80220FCF786
:104B700069F90321672000F0E7F80220FCF762F9E9
:104B800081212A2000F0E0F80620FCF75BF945F0CF
:104B90008001272000F0D8F8BDE870400220FCF723
:104BA00051B900002DE9F041354D002605F1100402
:104BB0004FF4FA770E2232493B2000F08DF8298815
:104BC000A08B49BA0844A0836988E08B49BA08449D
:104BD000E083A988208C49BA084420842889D4ED30
:104BE000090A40BA00B200EE100AB8EEC00A30EE70
:104BF000800A84ED090A6889D4ED0A0A40BA00B235
:104C000000EE100AB8EEC00A30EE800A84ED0A0AFF
:104C1000A889D4ED0B0A40BA00B200EE100A0320B6
:104C2000B8EEC00A30EE800A84ED0B0AFCF70AF9F0
:104C3000761CBE42BEDBB4F91C009FED120A90FB4D
:104C4000F7F0A083B4F91E0090FBF7F0E083B4F90D
:104C5000200090FBF7F02084D4ED090A80EE801A42
:104C600084ED091AD4ED0A0A80EE801A84ED0A1A3E
:104C7000D4ED0B0A80EE801A84ED0B1ABDE8F081AA
:104C8000EC4000200000FA43F8B5104E0446002224
:104C900040213046FCF7CEF944F080000C4C37251B
:104CA000621C20700123511E0A480095FCF7E6FDA6
:104CB000621C0123511E07480095FCF7DFFD01220D
:104CC00040213046FCF7B6F96078F8BD0014024088
:104CD00088000020EC000020F8B5134F15460E4662
:104CE0000446002240213846FCF7A4F90F4944F05D
:104CF0008000372408705231A1F15102087001235D
:104D000052390B480094FCF7B9FD08492B4632464E
:104D1000523107480094FCF7B1FD0122402138468A
:104D2000FCF788F90020F8BD00140240880000203C
:104D3000EC000020C006010E1C2000F005B8C006E3
:104D4000010E1B20AFF30080F8B5114F0E4604464C
:104D5000002240213846FCF76DF904F07F000D4C2D
:104D60003725621C20700123511E0B480095FCF76B
:104D700085FD2670621C0123511E07480095FCF733
:104D80007DFD012240213846FCF754F90020F8BD92
:104D90000014024088000020EC00002010B500B98B
:104DA000012000F0FFFB002010BD10B500F0E8FC72
:104DB000002010BD10B501F051F8012803D0BDE866
:104DC000104000F0B7BD10BD3EB504460D46B0F929
:104DD0000800FFF7DFFD02A9CDE90001208A2B467C
:104DE00082B2D4E9001001F00DF8012801D00020B2
:104DF0003EBD02983EBD10B500F0FAFB002010BD8C
:104E00002DE9F041184C0F460546E6682068001D64
:104E100000F0E7FA38B9206890F82C10012088409B
:104E2000216981432161681C07D137B12168BDE840
:104E3000F0410E48091D00F00CBB20683544B54216
:104E40004560216805D2A06BBDE8F041091D00F066
:104E5000E8BA606B091D00F0E4FAA06A854200D24E
:104E6000A562BDE8F08100003C0000206440002005
:104E70002DE9F041054600F0F9FA2E4CA068401CDF
:104E8000A06020682C4F10B1606940B32DE0256010
:104E9000A068012829D1002606EB860007EB8000D8
:104EA00000F0B1FA761C072EF6D323488C3000F0C0
:104EB000AAFA2148A03000F0A6FA1F48B43000F04A
:104EC000A2FA1D48C83000F09EFA1B48DC3000F002
:104ED0009AFA19488C3060631430A06305E02068AA
:104EE000E96AC06A884200D82560606A401C606236
:104EF000E96A0120226988401043206101EB8100AA
:104F000007EB8000291D00F0A4FA00F0CFFA6069D9
:104F100000280CD02068E96AC06A884207D2074995
:104F20004FF080500860BFF34F8FBFF36F8FBDE825
:104F3000F08100003C000020883F002004ED00E0EC
:104F400070B5114E114C17E000F04EFC3068B8B14E
:104F500001F07CF800F08AFAF068C568281D00F0BE
:104F600040FAA068401EA0606068401E606000F0CB
:104F70009DFA284600F055F860680028E4D170BD1D
:104F800001F064F8F8E70000504000203C000020E9
:104F900030B4026C0B46002A0BD0C1681144C160CA
:104FA0004468A14201D30168C16030BC1846FBF7D8
:104FB000A8B930BC70472DE9F041856B174604460F
:104FC0000026026C82B1C7B1E068FBF79AF9E1688C
:104FD000206C091AE1602268914202D26168081AC5
:104FE000E060022F16D017E02068A8B9606800F0D2
:104FF000A7FF0646002060600EE0A068FBF781F97D
:10500000216CA0680844A0606168884204D32068CD
:10501000A06001E005B16D1E6D1CA5633046BDE8C2
:10502000F08110B50446006B00F054FA2046BDE84C
:10503000104000F04FBA000010484FF47051420782
:1050400006D0C01D0D4920F00700411AC1F570516E
:105050000B4A00230144C2E900030839103A21F049
:10506000070111604B600B600B1AC0E900139360DD
:105070004FF000405360D06070470000880300206C
:1050800028000020074C4FF08056074DFFF758FFCF
:1050900020680128FAD92E60BFF34F8FBFF36F8FBE
:1050A000F4E70000883F002004ED00E02DE9F04720
:1050B0009A46DDE9098481466FF00303206B03EB18
:1050C00082021044089D20F00706700707D0502088
:1050D00080F31188BFF34F8FBFF36F8FFEE7231864
:1050E0000A5C83F834200A5C12B1401C1028F6D305
:1050F000002784F84370072D00D30625E562C4E934
:105100001157201D00F08AF904F1180000F086F90B
:105110002461C5F107006462A061E76484F85070FF
:1051200052464946304600F00FF92060B8F1000FB2
:1051300001D0C8F80040BDE8F087000030B5114943
:1051400000E011460A688242FBD34B685C18844237
:1051500003D1406818444860084643681C189442CC
:1051600009D1084C103C2468A24209D052681A4464
:1051700042600A6812680260814200D0086030BD57
:105180000460F9E72800002010B5044600F06EF92D
:10519000A06B28B15FF0000400F088F9204610BD34
:1051A0000124F9E70648416B096829B1416BC968D8
:1051B000C9684968816270474FF0FF31FAE7000023
:1051C0003C00002008484068401C4FF0500080F32D
:1051D000118804D0BFF34F8FBFF36F8FFEE7BFF38B
:1051E0004F8FBFF36F8FFEE7300000202DE9F041B5
:1051F000044600F03BF994F9455004F1240609E017
:10520000606A48B1304600F0E7FE08B100F046FAA7
:105210006D1E6DB2002DF3DC4FF0FF3684F8456053
:1052200000F044F900F022F994F9445004F1100719
:1052300009E0206948B1384600F0CEFE08B100F020
:105240002DFA6D1E6DB2002DF3DC84F84460BDE8CC
:10525000F04100F02BB900002DE9F0410546002790
:1052600000F0C2FA314E306808B9FFF7E5FEF06889
:1052700005424BD1C5B3083568070ED005F00700CD
:10528000C0F108000544680707D0502080F311885A
:10529000BFF34F8FBFF36F8FFEE72DB3706885426A
:1052A00034D82248103001460C6801E020460C46F4
:1052B0006168A94202D221680029F7D131688C4285
:1052C00024D007682168016060680837411B1029F5
:1052D0000FD96019420708D0502080F31188BFF31E
:1052E0004F8FBFF36F8FFEE710E041606560FFF7FF
:1052F00025FF61687068401A7060B268904200D201
:10530000B060F06801430020C4E9000100F09EFE97
:10531000780707D0502080F31188BFF34F8FBFF379
:105320006F8FFEE73846BDE8F081000018000020CE
:105330000449086818B10868826C521C82640868C5
:10534000704700003C00002010B5031F4FF0807430
:105350001C601B1F21F001011960191F044B0B6019
:1053600014390A60091F6FF0020244380A6010BD48
:10537000C551000800B52DED048B83B041EC190B2D
:10538000FBF765FA41EC180B18EE100A18EE901AAC
:105390008DED008B002818BF0120084320F000404D
:1053A000C0F17F6000F1E040C00F14D019EE101A78
:1053B00019EE900A8DED009B002918BF01210843CA
:1053C00020F00040C0F17F6000F1E040C00F04BF5A
:1053D0000120FEF7C1FD51EC180B03B0BDEC048BAE
:1053E00000BDD0E9013201699A60D0E901235A6019
:1053F0004A68824201D182684A60002202610868DC
:10540000401E0860704700F108014FF0FF32C0E90C
:105410000112C1600161002101607047002101613A
:10542000704730B50B685A1C02D000F1080202E048
:10543000026904E02246546825689D42FAD95368FF
:105440004B6099608A60516008610168491C016085
:1054500030BD42684A6093688B6093685960916080
:1054600008610168491C016070470000502080F30A
:105470001188BFF34F8FBFF36F8F0A494868401CF4
:10548000486001280CD10848006810F0FF0F07D0D1
:10549000502080F31188BFF34F8FBFF36F8FFEE76B
:1054A000704700003000002004ED00E00849486823
:1054B00028B1401E486001D180F311887047502008
:1054C00080F31188BFF34F8FBFF36F8FFEE70000AB
:1054D0003000002070B5002827D0144DA0F108043A
:1054E0006168E868014207D1502080F31188BFF35A
:1054F0004F8FBFF36F8FFEE722683AB1502080F3E1
:105500001188BFF34F8FBFF36F8FFEE78143616058
:1055100000F06AF960686968084468602046FFF72F
:105520000DFEBDE8704000F091BD70BD1800002078
:1055300006484FF47A710068B0FBF1F14FF0E020BB
:10554000491E4161072101617047000014000020DD
:1055500010B5FAF78FFE114910280ED300F1E020A4
:1055600090F8F0030A78904207D2502080F3118817
:10557000BFF34F8FBFF36F8FFEE70948006889685C
:1055800000F4E060884207D9502080F31188BFF30F
:105590004F8FBFF36F8FFEE710BD0000300000207B
:1055A0000CED00E010B5020014D00F48006B38B1CC
:1055B000502080F31188BFF34F8FBFF36F8FFEE74A
:1055C00000F012F900211046FFF71AFC00F03EFD32
:1055D000002807D105494FF080500860BFF34F8F76
:1055E000BFF36F8F10BD00003C00002004ED00E011
:1055F00070B50546FFF73AFF254C05B92568281D0B
:10560000FFF7EFFE58B9E86A224A00EB800152F832
:10561000211021B901218140206988432061A86AB5
:1056200018B105F11800FFF7DCFE606A401C6062EB
:105630002068854208D11748291DC830FFF709FFA7
:105640006068401C606007E0A068401EA0602846BB
:10565000FFF7E7FCFFF7A6FDFFF728FF60690028CA
:1056600014D02068854211D1206B38B1502080F3CE
:105670001188BFF34F8FBFF36F8FFEE706494FF0DE
:1056800080500860BFF34F8FBFF36F8F70BD000075
:105690003C000020883F002004ED00E0014901208B
:1056A000C86170473C00002010B50C4650B1094954
:1056B00009681831FFF7B5FE2046BDE8104001210A
:1056C000FFF79EBB502080F31188BFF34F8FBFF3CD
:1056D0006F8FFEE73C00002070B5040039D01D4DEF
:1056E000E06A2968C96A884233D2A069002804DBCD
:1056F0002868C06AC0F10700A061E16A164E01EB9C
:105700008101606906EB810188421FD1201DFFF7EE
:1057100068FE012150B9E06A00EB800256F82220B1
:1057200022B92A6901FA00F082432A612868C06A16
:10573000E0622A6981401143296100EB800006EB99
:105740008000211DBDE87040FFF783BE2868C06A55
:10575000E06270BD3C000020883F002028B107496E
:105760000A6A0260C96841607047502080F311885E
:10577000BFF34F8FBFF36F8FFEE700003C000020A8
:105780001CB515480024CDE900402346802213A112
:10579000144800F037FB012809D0401C1AD15020D2
:1057A00080F31188BFF34F8FBFF36F8FFEE7502058
:1057B00080F31188BFF34F8FBFF36F8F06484FF010
:1057C000FF312C38816201214161C460BDE81C4079
:1057D00000F040B81CBD00006800002049444C4562
:1057E00000000000855000080248016B491C01635D
:1057F000704700003C0000201448016B11B10121EA
:10580000C16170470021C1610169B1FA81F1C1F143
:105810001F0101EB81020E4951F822306BB101EBFF
:10582000820101F108034A6852684A609A4201D134
:1058300052684A60D16801607047502080F3118837
:10584000BFF34F8FBFF36F8FFEE700003C000020D7
:10585000883F00201CB532480168324A914207D186
:10586000502080F31188BFF34F8FBFF36F8FFEE797
:1058700000682C49491E884207D1502080F31188C6
:10588000BFF34F8FBFF36F8FFEE727490878019072
:10589000FF20087008788DF800009DF800009DF842
:1058A000002000F0F000904207D0502080F31188D3
:1058B000BFF34F8FBFF36F8FFEE79DF800001B4AC9
:1058C00000F0500010700720906005E09DF8003057
:1058D0005B008DF80030401E9DF800301B06F5D4AB
:1058E000000200F4E0609060019808700C482030DD
:1058F000016841F470010160016841F0704101608C
:10590000FFF716FE00205060FAF77AFC084801689D
:1059100041F040410160FAF763FC00201CBD00002B
:1059200000ED00E071C20F4100E400E03000002013
:1059300034EF00E010B5502080F31188BFF34F8F93
:10594000BFF36F8F00F098FA18B104494FF0805000
:105950000860002080F3118810BD000004ED00E015
:1059600070B50E46050013D0D6B105FB06F04830E1
:10597000FFF772FC040009D004F1480120468EB103
:105980000160C0E90F56012100F0C4F8204670BD47
:10599000502080F31188BFF34F8FBFF36F8FFEE766
:1059A0000020E4E70060ECE72DE9FF4F002683B01C
:1059B0009B468A46040003D0BAF1000F08D011E0DC
:1059C000502080F31188BFF34F8FBFF36F8FFEE736
:1059D000206C38B1502080F31188BFF34F8FBFF394
:1059E0006F8FFEE700F03AFADFF824814FF00009EC
:1059F0004FF0805748B9059838B1502080F311888E
:105A0000BFF34F8FBFF36F8FFEE7FFF72FFDA56B3F
:105A100045B351462046E668FFF7BAFABBF1000FDE
:105A200013D0E660606A50B104F1240000F0D4FAAB
:105A300028B1C8F80070BFF34F8FBFF36F8FFFF727
:105A400035FD012007B0BDE8F08F6D1EA56320680D
:105A500010B9FFF76DFC606020690028EFD004F1F9
:105A60001000E3E7059808B11EB106E0FFF71EFD40
:105A700027E06846FFF772FE0126FFF717FDFFF7E4
:105A8000B3FEFFF7F3FC94F94400401C01D184F805
:105A9000449094F94500401C01D184F84590FFF7EB
:105AA00005FD05A9684600F077F9002820460AD0D0
:105AB000FFF79CFB00F0CAFA2046FFF765FB0028C1
:105AC000A3D00020BEE7FFF75FFBD8B1206830B954
:105AD000FFF7CCFC6068FFF7FFFDFFF7E7FC04F180
