:020000040800F2
:10000000004800207D020008112C00082F24000861
:10001000BD2B00087D0A00084939000800000000D7
:10002000000000000000000000000000C101000806
:10003000E90B000800000000150200085530000818
:10004000970200089702000897020008970200082C
:10005000970200089702000897020008970200081C
:10006000970200089702000897020008970200080C
:1000700097020008970200089702000897020008FC
:1000800097020008970200089702000897020008EC
:1000900097020008970200089702000897020008DC
:1000A00097020008513100089702000897020008E3
:1000B00097020008970200089702000897020008BC
:1000C00097020008970200089702000897020008AC
:1000D00097020008353900089702000897020008C7
:1000E000970200089702000897020008970200088C
:1000F000970200089702000897020008970200087C
:10010000970200089702000897020008970200086B
:10011000970200089702000897020008970200085B
:100120009702000897020008390B000897020008A0
:10013000970200089702000897020008970200083B
:10014000970200089702000897020008970200082B
:10015000970200089702000897020008970200081B
:10016000970200089702000897020008970200080B
:10017000970200089702000897020008000000009C
:1001800097020008970200089702000897020008EB
:1001900097020008970200089702000897020008DB
:1001A000000000000000000097020008DFF80CD0FB
:1001B00000F0F4FB00480047A96300080048002055
:1001C0002B4B19680868B0E8F04F80F30988BFF33B
:1001D0006F8F4FF0000080F311887047000000001F
:1001E00006480068006880F3088862B661B6BFF30D
:1001F0004F8FBFF36F8F00DF00BF00BF08ED00E03F
:10020000DFF80C00016841F470010160704700BF25
:1002100088ED00E0EFF30980BFF36F8F144B1A688D
:100220001EF0100F08BF20ED108A20E9F04F10607B
:1002300008B44FF0500080F31188BFF34F8FBFF325
:100240006F8F08F073FA4FF0000080F3118808BC3C
:1002500019680868B0E8F04F1EF0100F08BFB0EC46
:10026000108A80F30988BFF36F8F704700BF00BF0B
:100270003C000020EFF305807047000006488047EF
:1002800006480047FEE7FEE7FEE7FEE7FEE7FEE77B
:10029000FEE7FEE7FEE7FEE7FD300008AD010008DF
:1002A0002DE9F05F0546002092469B4688460646AB
:1002B000814640241BE0284641464746224600F03E
:1002C0002EFA53465A46C01A914110D31146184689
:1002D000224600F015FA2D1A67EB01084F46224618
:1002E0000120002100F00CFA17EB00094E41201EFE
:1002F000A4F10104DFDC484631462A464346BDE806
:10030000F09F40EA01039B0703D009E008C9121FD0
:1003100008C0042AFAD203E011F8013B00F8013BBF
:10032000521EF9D270472DE9FE4F804681EA030044
:10033000C00F0C46009021F0004123F00045B8EBBF
:100340000200A94105D24046214690461C460B4674
:10035000024623F00040104347D0270DC7F30A00A0
:10036000C3F30A510290401A019040286BDAC3F39C
:10037000130040F4801B0098924620B10023D2EB7A
:10038000030A63EB0B0B01985946C0F1400250463B
:1003900000F0B6F906460D4650465946019A00F05F
:1003A000CEF910EB08006141002487EA115284EA7B
:1003B000E7731A4340D0009A62B3019A012A4FEAC8
:1003C000075215DC001B61EB02014FF0004202EA0C
:1003D0000752CDE90042001C41F5801132462B4600
:1003E00000F005FA03B0BDE8F08F40462146F9E77A
:1003F000001B61EB0201001C41F5801300185B41FA
:100400002018A2F5001747EB030140EAD570B61992
:100410006D4111E06D084FEA360645EAC0754FEAB6
:100420000752001B61EB0201001C41F580114908D5
:100430004FEA30000019514132462B4603B0BDE867
:10044000F04F00F0C5B90098012240000023D0EB26
:10045000020263EBE073009821464FEAE074B8EBC8
:10046000000061EB0401E9E783F000435BE781F002
:10047000004158E72DE9FE4F81EA030404F00044EF
:1004800021F0004100944FF0000B23F0004350EAAC
:1004900001045ED052EA03045BD0C3F30A54C1F3F3
:1004A0000A552C44A4F2F3340194A0FB0254C1F386
:1004B000130141F48011C3F3130343F4801301FBD0
:1004C000024400FB034E840A970A44EA815447EA37
:1004D0008357A4FB076802958D0A05FB07854FEA41
:1004E000932C04FB0C542705029D4FEA065847EA5B
:1004F0001637B5EB08056EEB070C870E920E47EA30
:10050000811742EA8312A7FB0201B6EB0B0164EBF1
:1005100000042B0D43EA0C335E1844EB1C50DA4602
:100520005146E7FB0201C5F313044FEA0B3343EADC
:1005300014534FEA0432019C43EA0603A4F10C046D
:100540000294009CCDE900B400F051F903B0BDE87D
:10055000F08F00200146F9E72DE9F04D81EA030410
:1005600004F0004B21F0004514464FF0000A23F040
:10057000004150EA050220D054EA01021DD0C5F323
:100580000A570246C5F31303C1F31300C1F30A5619
:1005900040F4801543F48013A7EB0608101BD646E1
:1005A00008F2FD3873EB050002D308F1010801E001
:1005B00092185B41B8F1000F03DA00200146BDE854
:1005C000F08D00204FF48011064684460EE0171B84
:1005D00073EB050705D3121B63EB050306434CEAD7
:1005E000010C49084FEA300092185B4150EA0107BC
:1005F000EDD152EA030012D082EA040083EA050139
:10060000084305D0101BAB4106D20122002306E0AF
:1006100000224FF0004302E06FF0010253101AEB8A
:1006200006004CEB085110EB0A0041EB0B01BDE852
:10063000F04D00F0CDB80EB5C10F80EAE07008446F
:10064000CA07002140F233438DE80E000A460B46EC
:1006500000F0CDF803B000BD0EB540F23341029179
:100660000021CDE900110A460B4600F0C0F803B0A6
:1006700000BD00F0004230F000400AD0C10D01F58D
:100680006071C0F3160042EA0151C20840071143ED
:10069000704700200146704730B5041E71F1000418
:1006A00004DB4FF00044404264EB0101141E73F17F
:1006B000000405DB1C464FF00043524263EB040389
:1006C000994208BF904230BD01F0004330B421F0A0
:1006D000004150EA010206D00A0DA2F56072C1F392
:1006E0001301002A02DC30BC00207047440F44EAAA
:1006F000C104C100E01830BC00EBC25000F031B8BA
:10070000202A04DB203A00FA02F1002070479140D1
:10071000C2F1200320FA03F3194390407047202AC6
:1007200004DB203A21FA02F00021704721FA02F39B
:10073000D040C2F120029140084319467047202A58
:1007400006DBCB17203A41FA02F043EAE07306E0F9
:1007500041FA02F3D040C2F1200291400843194609
:1007600070470029A8BF7047401C490008BF20F00F
:100770000100704710B4B0FA80FC00FA0CF050EAA7
:10078000010404BF10BC704749B1CCF1200421FA28
:1007900004F411FA0CF118BF012121430843A3EB23
:1007A0000C01CB1D4FEA00614FEA102042BF002030
:1007B00010BC704700EBC35010440029A4BF10BC0C
:1007C0007047401C490008BF20F0010010BC704772
:1007D00010B5141E73F1000408DA401C41F1000149
:1007E00092185B411A4301D120F0010010BD2DE9A0
:1007F000F04D92469B4611B1B1FA81F202E0B0FA97
:1008000080F220329046FFF77BFF04460F4640EA15
:100810000A0041EA0B0153465A46084313D01146D9
:1008200053EA010019D0C8F140025046FFF777FFA4
:1008300005460E46504659464246FFF761FF0843BB
:1008400005D0012004E020463946BDE8F08D0020A7
:10085000054346EAE0762C4337430A986305E40AE9
:10086000A0EB08000022FD0A44EA47540A3002D5F2
:1008700000200146E9E7010510196941DDE9084555
:1008800000196941BDE8F04DA2E72DE9F04D0023C4
:100890001A461B1A8A4103DB00200146BDE8F08D91
:1008A000C1F30A52C1F3130141F480154FF0000B5C
:1008B000D10702D100186D41521E0027044640F2B4
:1008C000FF11384601EB620A3E4680460246002090
:1008D0004FF48011FFF723FFC2197141BB1846EB9B
:1008E0000100B4EB030C75EB000C04D3E41A65EBC8
:1008F000000517460E46241908F101006D41804697
:100900003428E3DDF91946EB0600091BA84103D2A0
:100910004FF0FF32134601E0002213461BEB0700A5
:1009200046EB0A51BDE8F04DFFF752BF70B5C1F379
:100930000A5201F000450024C1F3130140F2FF33D5
:1009400041F480119A4201DA002070BD40F2334335
:100950009A42A2F2334203DC5242FFF7E0FE00E08B
:1009600090402C43F1D0404270BD000030B5041ED1
:1009700071F1000404DB4FF00044404264EB0101DC
:10098000141E73F1000405DB1C464FF00043524275
:1009900063EB04038B4208BF824230BD064C074D17
:1009A00006E0E06840F0010394E80700984710343F
:1009B000AC42F6D3FFF7FEFBE49300080494000872
:1009C00030B58C1810F8012B12F00F0301D110F87C
:1009D000013B120906D110F8012B03E010F8015B6E
:1009E00001F8015B5B1EF9D101E001F8013B521EE9
:1009F000FBD1A142E6D3002030BD000070B528B184
:100A000001282FD1BDE8704002F02CB900209FEDE5
:100A1000160A164A9FED161A322300BF00EB80011A
:100A200002EB011100F001046FF0180514FB05F44E
:100A300003EB840400EE904A401CC0B2F8EEE00ADA
:100A4000042881EC030AE9D30A48D0ED0C0A0A48CD
:100A500090ED0C0A054804F099FCBDE8704003488D
:100A600006F025BE70BD000000004843F4410020A0
:100A7000000000003443002068430020FEE700002F
:100A800038B5104C20680068C0061AD5204601F021
:100A900044FB206801684068009019220A492046FA
:100AA00001F076FC09490C46606808F0C1F820683E
:100AB000012806D1064900070860BFF34F8FBFF336
:100AC0006F8F38BDEC020020B84000207800002075
:100AD00004ED00E010B586B003220021012007F0EC
:100AE000D9FE114C606020B100231A46194607F068
:100AF000EFFF60680028FDD014220C496846FFF71C
:100B000000FC0021684605F04DFFA0600848006821
:100B1000C16841F01001C16019220649044801F082
:100B200037FC06B010BD0000780000208C90000853
:100B3000EC020020B8400020014800F0AFB80000EF
:100B40002C03002001681823CAB2103AB2FBF3F25A
:100B5000054B6FF30901032A9B5CC36500D9091D8E
:100B600081650846704700006C90000810B501468A
:100B700000208B698A6A4FF0C07453B1B3F5005FEF
:100B800015D072B1012A0CD0022A0AD0032A09D149
:100B900004E01AB1012A06D0022A03D1C96AC901A8
:100BA00000D5012010BDC96AA142FAD010BD002AAB
:100BB000F7D0012AF2D0022AF3D0032AF3D010BDD5
:100BC00030B50468256825F48025256004686360D5
:100BD0008368402B036803D099600068C26030BD11
:100BE0009A600068C16030BD70472DE9F04104464D
:100BF000876D00F0C7FA064694F8350000250228F4
:100C000006D08020606584F834500120BDE8F08172
:100C10002068016821F0160101602068416921F017
:100C200080014161206C08B9A06C20B12068016886
:100C300021F0080101602068016821F001010160D4
:100C40000BE000F09FFA801B052806D92020606584
:100C500004F8345F03206070D8E720680068C0079C
:100C6000EFD194F85C103F208840B86004F8345FFE
:100C7000012060700020C9E790F83510022903D0E8
:100C80008021416501207047052180F835100068FA
:100C9000016821F001010160002070472DE9F8434F
:100CA00004464FF00009CDF8009063484FF4165108
:100CB000A56D0068B0FBF1F72E6894F85C10082071
:100CC00000FA01F131420FD021680A6852070BD5B2
:100CD0000A6822F004020A6094F85C108840A86058
:100CE000606D40F00100606594F85C104FF0010801
:100CF00008FA01F0304208D021684969090604D594
:100D0000A860606D40F00200606594F85C100420FB
:100D10008840304208D021680968890704D5A86056
:100D2000606D40F00400606594F85C10102088400D
:100D3000304218D021680968090714D5A8602068D6
:100D40000168490304D50068000308D5A16C07E0D9
:100D50000168C90503D4016821F008010160216C14
:100D600009B12046884794F85C1020208840304222
:100D700031D021680968C9062DD5A86094F83500DE
:100D800005282068016806D0490347D5006800039C
:100D90001DD4616C1CE021F01601016020684169DE
:100DA00021F080014161206C08B9A06C20B120685D
:100DB000016821F00801016094F85C103F20884030
:100DC000A86084F8349084F83580216D1FE0E16BD1
:100DD00009B120468847606D00282BD0606DC007A0
:100DE00014D0052084F835002068016821F0010145
:100DF00001600098401C0090B84203D82068006849
:100E0000C007F6D184F8349084F83580E16C00296D
:100E100010D001B02046BDE8F04308470168C9057D
:100E2000D5D4016821F01001016084F8349084F871
:100E30003580CCE7BDE8F883140000202DE9F041AF
:100E4000044600F09FF906465CB1002584F8345052
:100E5000022084F835002068016821F0010101605A
:100E60000DE00120BDE8F08100F08CF9801B052821
:100E700005D920206065032084F83500F2E720685A
:100E80000068C007F0D12268116820480140D4E909
:100E900001031843D4E90336334318436369184305
:100EA000A3691843E3691843236A18430843616A36
:100EB000042903D1D4E90B131943084310602068B7
:100EC0004069666A20F0070130460E430127042876
:100ED0000CD1A06A0643E06A40B12046FFF746FE07
:100EE00020B14020606584F83570BAE7206846611B
:100EF0002046FFF727FE94F85C203F219140816057
:100F0000656584F835700020ACE700003F8010F084
:100F10002DE9F0410446866D90F834000025012843
:100F20000DD0012084F8340094F835700020012F92
:100F300007D084F8340002252846BDE8F08102205D
:100F4000FBE7022784F8357060652046FFF738FE1E
:100F500094F85C103F208840B0602068016841F040
:100F6000160101602068416941F080014161206CF7
:100F700020B12068016841F0080101602068016823
:100F800041F001010160D7E770B5044600F0FAF8BE
:100F90000546601C02D004480078044400F0F2F8D2
:100FA000401BA042FAD370BD080000202DE9F84F85
:100FB000DFF890B100224FF001084FF0030A4FF024
:100FC0000F090BF1040E00BF0B6808FA02F423406E
:100FD000A3426ED14D68022D01D0122D0ED1D5083D
:100FE00000EB850CDCF820505607F70E09FA07F6DF
:100FF000B5430E69BE402E43CCF82060066855000C
:101000000F790AFA05FC07F0030726EA0C06AF4041
:10101000374307604E68012E05D0022E03D0112EF3
:1010200001D0122E0ED18768CE6827EA0C07AE4099
:101030003E4386604668A6430C79C4F3001494408E
:1010400034434460C4688E6824EA0C04AE402643EE
:10105000C6604C68E4006FD53B4C256845F480457C
:101060002560246822F0030504F480440094374C82
:101070002E19D6F8084895072F0F09FA07F5AC4343
:10108000334DA84201D100252EE0324DA84201D1B6
:10109000012529E0304DA84201D1022524E02F4D41
:1010A000A84201D103251FE02D4DA84202D10425FD
:1010B0001AE041E02B4DA84201D1052514E02A4D4C
:1010C000A84201D106250FE0284DA84201D10725ED
:1010D0000AE0274DA84201D1082505E0254DA84288
:1010E00001D1092500E00A25BD402543C6F808586E
:1010F000DBF800405D464E689C43F60300D51C4378
:101100002C60DEF8004075464E689C43B60300D55F
:101110001C432C600B4D08352C684E689C43F6022E
:1011200000D51C432C60074D0C352C684E689C4341
:10113000B60200D51C432C60521C102AFFF444AFA9
:10114000BDE8F88F003C01404438024000300140C7
:10115000000002400004024000080240000C02406F
:10116000001002400014024000180240001C02401F
:1011700000200240002402400AB181617047090446
:10118000FBE700000148806870470000080000206D
:10119000024881680278114481607047080000208D
:1011A0000B4810B5016841F400710160016841F419
:1011B00080610160016841F480710160032000F0EA
:1011C000B1F8002000F006F800F03EF8002010BD55
:1011D000003C024010B5014688B00022192000F002
:1011E00081F8192000F072F813480024016841F0DA
:1011F00001010160006805A900F001000690684641
:1012000000F072F900F0A6F90C494000B0FBF1F1D2
:101210000C480B4A491E026040F2E732C0E9032441
:10122000C0E9011400F02FFD10B1012008B010BD7D
:10123000044800F044FDF9E74438024040420F0002
:10124000000001408C0300201F4808B5016841F4EC
:1012500080410160006800F4804000901A48001F3F
:10126000016841F080510160006800F080500090FA
:10127000032000F057F8002211466FF00B0000F039
:1012800031F8002211466FF00A0000F02BF800221E
:1012900011466FF0090000F025F800221146501F9A
:1012A00000F020F800221146101F00F01BF8002269
:1012B0000F21901E00F016F800220F21BDE8084013
:1012C000501E00F00FB800004438024000F01F022A
:1012D000012191404009800000F1E020C0F8001198
:1012E00070470000F0B40E4B1B680C46C3F302239A
:1012F000C3F10705042D00D90425191D072901D2C2
:10130000002300E0DB1E012606FA05F1491E2140FC
:1013100099409E40761E16403143F0BC01F079BCE6
:101320000CED00E0064900F0070208684FF6FF03E5
:10133000184040EA0220034A10430860704700004A
:101340000CED00E00000FA052DE9F84317480168AC
:1013500041F0805101600068154F00F08050012677
:1013600000903E64FFF70EFF05464FF47A78114C6B
:1013700005E000BFFFF706FF401B40450DD8606841
:10138000C003F7D57E64FFF7FDFE0546464607E03D
:10139000FFF7F8FE401BB04202D90320BDE8F883F6
:1013A00060688003F4D50020F8E700004038024070
:1013B00000000E42007000402DE9F0470E46050087
:1013C00065D0DFF81481D8F80000F7B200F00F0004
:1013D000B04207D288F80070D8F8000000F00F0083
:1013E000B04254D128683D4C810712D5400703D53F
:1013F000206840F4E05020602878000703D520687A
:1014000040F4604020602068A96820F0F0000843A4
:1014100020602878C0072DD0304968680839012835
:1014200012D0022813D0032811D009688907002997
:101430002DDA216821F0030101432160FFF7A2FEAC
:10144000814641F2883A0EE009688903EFE70968AE
:101450008901ECE7FFF796FEA0EB0901514502D99F
:101460000320BDE8F0872068696800F00C00B0EB4D
:10147000810FEFD1D8F80010404601F00F01B142C2
:1014800007D90770006800F00F00B04201D00120BA
:10149000E7E72878400705D52068E96820F4E050A0
:1014A000084320602878000706D52068296920F4C1
:1014B000604040EAC100206000F05CF82168084A02
:1014C000C1F30311515CC840064908600020FFF7D2
:1014D00081FE0020C5E70000003C024008380240C1
:1014E00074900008140000200F2202600C4A136858
:1014F00003F003034360136803F0F0038360136891
:1015000003F4E053C36012684FF4E05303EAD202DD
:1015100002610448006800F00F0008607047000096
:1015200008380240003C0240014800687047000053
:10153000140000200448054900680968044AC1F302
:101540008221515CC84070471400002008380240D6
:10155000849000080448054900680968044AC1F3FA
:101560004231515CC84070471400002008380240E6
:1015700084900008154810B5006810F00C0214485B
:1015800013D01449042A0FD0082A0ED10F4C241F5F
:101590002268236802F03F025B0207D52068C0F38F
:1015A0008810A0FB010106E0084610BD2168C1F3C8
:1015B0008811A1FB00010023FEF772FE2168C1F330
:1015C0000141491C4900B0FBF1F010BD0838024050
:1015D0000024F400001BB7002DE9F84F050076D079
:1015E0002878DFF8F8B2BE4CC00749D0DBF800100D
:1015F0005846C1F38101012908D00068C0F3810079
:1016000002280AD1201D0068400206D52068800308
:1016100036D568680028E2D032E06868B0F5803FCF
:1016200010D0B0F5A02F206810D020F480302060BA
:10163000206820F4802020606868A0B1FFF7A2FD38
:1016400006460CE0206840F48030F4E740F4802047
:101650002060F7E7FFF796FD801B642873D82068A9
:101660008003F7D50CE0FFF78DFD064605E000BFCF
:10167000FFF788FD801B6428F0D820688003F7D42A
:101680002878DFF8608280074FF000093ED5DBF84C
:101690000010584611F00C0F09D00068C0F381000B
:1016A00002280BD18D48001F0068400206D4206834
:1016B000800715D5E868012809D111E0E868B8B1BC
:1016C0000120C8F80000FFF75DFD064605E002E1D5
:1016D000FFF758FD801B0228C0D820688007F7D587
:1016E0002068296920F0F80040EAC10020600DE080
:1016F000C8F80090FFF746FD064604E0FFF742FDFC
:10170000801B02281FD820688007F7D4287800079C
:1017100022D5724E744869696C3671B1012101603D
:10172000FFF730FD074604E0FFF72CFDC01B022841
:1017300009D830688007F7D50EE0C0F80090FFF7B1
:1017400021FD074605E083E0FFF71CFDC01B0228D2
:101750007ED830688007F7D42878400768D5DFF84E
:101760007CA100270AF1380ADAF80000C0000BD487
:10177000DAF8001041F08051CAF80010DAF80000E1
:10178000012700F080500090584E3068C00510D4FA
:10179000306840F480703060FFF7F4FC009005E0A2
:1017A000FFF7F0FC0099401A022851D83068C005B4
:1017B000F6D54A4EA868683601280FD0052830684B
:1017C00010D020F001003060306820F0040030605C
:1017D000A868B8B1FFF7D6FC00900FE0306840F081
:1017E0000100F4E740F004003060F7E7FFF7CAFCBF
:1017F0000099411A41F28830814264D830688007EC
:10180000F4D50EE0FFF7BEFC009007E0FFF7BAFC4E
:101810000099411A41F28830814254D830688007DB
:10182000F4D42FB1DAF8001021F08051CAF800107A
:10183000A869C0B3DBF80010C1F3810102294AD0C6
:101840000228484607D0C8F86000FFF79BFC00E07C
:1018500039E005463AE04746C8F86000FFF792FCD9
:10186000064604E0FFF78EFC801B02282BD8206878
:101870008001F7D4D5E907010843A96A1C4A490841
:1018800002EB01416A6A41EA8211084395F82C1083
:1018900040EA01611148001F016001203866FFF72E
:1018A00071FC054605E014E0FFF76CFC401B0228C4
:1018B00009D820688001F7D50BE000BFFFF762FC74
:1018C000401B022802D90320BDE8F88F2068800160
:1018D000F4D40020F8E70120F6E7000008380240C1
:1018E0000038024000004742800E4742007000402E
:1018F0000000FFFF70B5040005D00025A56294F834
:10190000510010B106E0012070BD84F8505020460F
:1019100000F030F8022084F851002068016821F0BE
:1019200040010160D4E901010843D4E903121143E5
:10193000084361690843218B01F400710843E169A0
:101940000843216A0843A16A084321680860A06926
:10195000042101EA1040616A084321684860206858
:10196000C16921F40061C1616565012084F85100FD
:10197000002070BD00B500680E4987B0884217D1BD
:101980000D480021026842F480120260006800F4F1
:10199000801005904FF4607000900220CDE90101A5
:1019A000032003900520049069460448FFF7FEFADF
:1019B00007B000BD0050014044380240001402400E
:1019C0002DE9F84F044690F8500000260A9F9A46E9
:1019D00093460D464FF0010801280ED0012084F8EF
:1019E0005000FFF7CFFB814694F851006168012851
:1019F0000CD0B1F5827F07D102E00220BDE8F88F5C
:101A0000A16809B9042801D00226BDE055B1BBF197
:101A1000000F07D0BAF1000F04D094F8510001284C
:101A200002D004E00126AFE0052084F85100002038
:101A30006065C4F838B0A4F83EA0A4F83CA02563C3
:101A4000A4F836A0A4F834A020646064206801687B
:101A5000490603D4016841F040010160E068B0F537
:101A6000006F606804D0E8B3E08E01283BD06AE0E4
:101A700010B1E08E01282ED1216835F8020BC86024
:101A8000E08E401EE08626E0B8F1000F0DD0E08E1B
:101A900058B120688168890707D535F8021BC160F5
:101AA000E08E401EE0864FF00008E08F58B12068BD
:101AB0008168C90707D0C0682BF8020BE08F401E71
:101AC000E0874FF00108781C05D0FFF75BFBA0EB27
:101AD0000900B84246D2E08E0028D5D1E08F002818
:101AE000D2D136E0FFE7216815F8010B0873E08ECC
:101AF000401EE08627E000BFB8F1000F0DD0E08E59
:101B000058B120688168890707D515F8011B017352
:101B1000E08E401EE0864FF00008E08F58B120684C
:101B20008168C90707D0C0680BF8010BE08F401E21
:101B3000E0874FF00108781C05D0FFF723FBA0EBEE
:101B40000900B8420ED2E08E0028D5D1E08F0028DF
:101B5000D2D13B46012202212046CDF8009001F06F
:101B600003F908B103260FE04A463946204601F042
:101B7000EBF818B101262020606505E0A06818B9CF
:101B80002068C16880680090012084F8510000201E
:101B900084F85000304631E74FF0E021042808690E
:101BA00003D020F004000861704740F00400FAE719
:101BB00010B5401EB0F1807F01D3012010BD4FF061
:101BC000E02460610F21601701F023F80020A0617C
:101BD00007202061002010BD7047704710B590F8B5
:101BE0003820012A25D0012280F83820CA688C6864
:101BF00022F4407222434C6822F4806222430C6833
:101C000022F4006222430C6922F4805222434C6980
:101C100022F4005222438C6922F48042224322F4AF
:101C20000041026800232143516480F838300020CD
:101C300010BD022010BD30B590F83820012A20D008
:101C4000012280F83820022380F8393003685C686C
:101C500024F070045C6003685C680D682C435C6071
:101C600003689C6824F080049C6003689C68496851
:101C70000C439C6080F83920002180F83810084619
:101C800030BD022030BD10B5040003D094F83900F7
:101C900010B107E0012010BD002084F83800204674
:101CA00000F00CF8022084F83900211D206801F0B2
:101CB00055FA012084F83900002010BD70470168F2
:101CC000CA6842F00102CA600068016841F001017F
:101CD000016000207047704770B5044600680169D4
:101CE0004FF00005C943890715D4C168C943890766
:101CF00011D4E91E016101202076206880698007E7
:101D0000204602D0FFF7E7FF04E000F00BF9204681
:101D100000F0DAF9257620680169C943490717D42C
:101D2000C168C943490713D46FF00401016102205F
:101D300020762068806910F4407F204602D0FFF7AB
:101D4000CAFF04E000F0EEF8204600F0BDF9257669
:101D500020680169C943090716D4C168C943090746
:101D600012D46FF008010161042020762068C06958
:101D70008007204602D0FFF7AEFF04E000F0D2F863
:101D8000204600F0A1F9257620680169C943C906FB
:101D900017D4C168C943C90613D46FF0100101619B
:101DA000082020762068C06910F4407F204602D0C9
:101DB000FFF791FF04E000F0B5F8204600F084F949
:101DC000257620680169C943C90708D1C168C9439C
:101DD000C90704D1891E0161204600F093F92068EB
:101DE0000169C943090609D4C168C943090605D474
:101DF0006FF0800101612046FFF7EEFE2068016967
:101E0000C943490609D4C168C943490605D46FF0DE
:101E100040010161204600F07FF920680169C94353
:101E200089060BD4C168C943890607D46FF0200125
:101E300001612046BDE87040FFF7CFBE70BD0000D5
:101E400070B5016800240225012086B0B1F1804FF1
:101E500009D02A4A914213D120200090CDE90154A3
:101E6000694627482CE007210091CDE90154CDE9CE
:101E700003402448694600BFFFF798F806B070BDDC
:101E8000214A914207D14FF4E0400090CDE901543E
:101E900069461E4814E01E4B1E4A1F4E994212D13D
:101EA0000090CDE9015469461046CDE90345FFF79E
:101EB0007DF84FF4C0500090CDE90154694630469A
:101EC000CDE90345D8E71548814209D1C4200090E7
:101ED000CDE901540320CDE9034069461046CBE724
:101EE0000F488142CAD140200090CDE90154092019
:101EF000CDE9034069463046BEE7000000040040DB
:101F0000000402400000024000080040000C0240B3
:101F1000000C004000200240001C02400004014070
:101F200000180040704770B5044690F838000D4620
:101F300001280DD0012684F83860022084F8390089
:101F400042B1042A18D0082A2AD00C2A4DD139E0EF
:101F5000022070BD206801F06DF92068816941F0B0
:101F6000080181612068816921F004018161206894
:101F700081692A69114311E0206801F087F920681E
:101F8000816941F4006181612068816921F4806187
:101F90008161206881692A6941EA0221816124E026
:101FA000206801F0A5F92068C16941F00801C1610C
:101FB0002068C16921F00401C1612068C1692A69F2
:101FC000114311E0206801F0C3F92068C16941F4B0
:101FD0000061C1612068C16921F48061C16120682C
:101FE000C1692A6941EA0221C16184F8396000208F
:101FF00084F8380070BD10B5040003D094F839009F
:1020000010B107E0012010BD002084F83800204600
:1020100000F00CF8022084F83900211D206801F03E
:102020009DF8012084F83900002010BD08B5016832
:102030001F48B1F1804F0BD01E4A914210D1016868
:1020400041F002010160006800F00200009008BD4C
:10205000016841F001010160006800F00100F5E74E
:10206000154A914207D1016841F0040101600068FE
:1020700000F00400EAE7114A914207D1016841F0FB
:1020800008010160006800F00800DFE70C4A914297
:1020900002D10748001DD2E70A4A9142D7D1016810
:1020A00041F040010160006800F04000CEE7000010
:1020B000403802400004004000080040000C00408E
:1020C00000040140001800407047000010B50446AD
:1020D0000068012201F0A2F808492068884202D075
:1020E0000749884203D1416C41F4004141642068B2
:1020F000016841F001010160002010BD00000140B5
:102100000004014000680349884201D1FFF740B84C
:102110007047000000000140704710B50446006899
:10212000416994F83920C1F3C011212A0BD151B172
:10213000416921F080014161206B08B1FEF755FD36
:10214000204601F01FFA2068416994F83A20C1F353
:102150008011222A0BD151B1416921F04001416126
:10216000606B08B1FEF741FD204601F0FDF900204B
:1021700010BD704770B5026804461068D168536995
:1021800010F00F0F51D003F0010501F490763543A4
:102190005DD0C20705D0CA0503D5E26B42F001024B
:1021A000E263420705D5DA0703D0E26B42F0020290
:1021B000E263820705D5DA0703D0E26B42F004023E
:1021C000E263020705D5DA0703D0E26B42F00802AA
:1021D000E263E26B002A34D0800604D5880602D57B
:1021E000204601F0D8F920684069E16BC0F3801007
:1021F00001F008010143204624D001F0B5F9206820
:10220000416949061AD5416921F040014161606B7D
:10221000A0B11B490165606BFEF72EFD002810D0B0
:10222000606B016DBDE87040084783060FD58B06D3
:102230000DD52046BDE8704001F0ADB92046FFF74E
:1022400098FF70BDFFF795FF0020E06370BD0306A7
:1022500006D50B0604D52046BDE8704001F038BB1A
:102260004006F3D54806F1D5D168204621F040015B
:10227000D160202184F8391000F0D8F870BD00003A
:10228000C934000870B5040004D094F83900002562
:1022900010B106E0012070BD84F83850204600F0EF
:1022A00023F8242084F839002068C16821F4005103
:1022B000C160204601F0B6F92068016921F490411F
:1022C00001612068416921F02A0141612068C168EB
:1022D00041F40051C160E563202084F8390084F89E
:1022E0003A00002070BD000070B5064600681F4926
:1022F00086B0884238D11E480025016841F010019F
:1023000001600068694600F010000590C020009050
:1023100002200190012002900320039007200490E6
:102320001448FEF743FE154C134820604FF0006040
:10233000C4E901054014C4E903506561A561E56184
:10234000256220466562FEF779FD18B178210CA060
:1023500001F0FBFA7463002205212520A663FEF735
:10236000C1FF2520FEF7B2FF06B070BD001001408E
:102370004438024000040240406402402C03002024
:102380002E2E2F5372632F75736172742E630000AB
:10239000F8B5044690F83A0020283CD1C1B3BAB34E
:1023A00094F83800012836D0012084F83800A16262
:1023B000A2850025E563222084F83A00636B174864
:1023C000D863636B16481864636B1648D864606BF7
:1023D000134605650846666B216802463046091DAE
:1023E000FEF796FD206801684168009184F8385036
:1023F000C16841F48071C1602068416941F0010108
:1024000041612068416941F0400141610020F8BD0F
:10241000FFE70120FBE70220F9E700002335000871
:102420005F350008D9340008704770477047FEE7F1
:1024300010B503F0F5FFBDE8104003F0E3BB10B5A5
:1024400004F020F803F0CEF8BDE8104003F020BB04
:1024500090F82010F7EE001A51B9DFED180AC0ED20
:10246000001AC0ED020AC0ED031A012180F8201005
:10247000F0EE400AC0ED070A90ED002A90ED030A45
:1024800032EE000A82EE001A80ED041A90ED010A85
:1024900070EEC00A01EE200A71EEC10A60EE820AF7
:1024A00080ED050AC0ED060A80ED010A90ED021AE2
:1024B00070EE810AC0ED000A70470000ACC52737F6
:1024C000B4EEE00AF1EE10FA02DDB0EE600A7047F9
:1024D000B4EEC10AF1EE10FAF9D2B0EE410A70473B
:1024E000094808B5016841F48001016000680022D4
:1024F00000F48000009005213A20FEF7F3FEBDE8CD
:1025000008403A20FEF7E2BE3038024010B58AB0EB
:1025100014220B496846FDF7F4FE0021684604F0DA
:1025200041FA084C064914222060143105A8FDF731
:10253000E8FE002105A804F035FA60600AB010BD7D
:1025400044900008000000202DE9F047774886B04D
:102550000024016841F010010160016801F01001E0
:102560000591016841F002010160016801F002017A
:102570000591016841F040010160016801F04001EE
:102580000591016841F008010160016801F008014E
:102590000591016841F004010160016801F0040146
:1025A0000591016841F001010160016801F001013C
:1025B0000591016841F480710160016801F4807146
:1025C0000591016841F080010160016801F080011E
:1025D0000591016841F0200101600068DFF8508139
:1025E00000F020000590002204214046FEF7C4FDC3
:1025F000DFF840914FF4FF77012239464846FEF755
:10260000BBFDDFF834A1002240215046FEF7B4FDA7
:102610000122D1024046FEF7AFFD01229103504650
:10262000FEF7AAFD0820CDE9000469464046029461
:10263000FEF7BCFC40F6040000900126CDE90164E1
:10264000694640460394FEF7B1FC4FF2F370032550
:10265000CDE90005694602944046FEF7A7FC30022A
:10266000CDE90004DFF8D480694640460294FEF7C5
:102670009DFC4FF60160CDE900056946029448468D
:10268000FEF794FC4FF61F60CDE900056946029401
:102690004046FEF78BFC48F6FF70CDE90005694621
:1026A00002942748FEF782FC4FF6FF70CDE9000543
:1026B000694602942348FEF779FC49F6F870CDE9A3
:1026C0000005694602942048FEF770FC40F63A7017
:1026D000CDE90005694602941C48FEF767FC4EF2FE
:1026E000BC70CDE90005694602941948FEF75EFC0E
:1026F0004BF63F40CDE90005694602945046FEF78F
:1027000055FC0097CDE90164694648460394FEF7FD
:102710004DFC44F240000090CDE90164694650460A
:102720000394FEF743FC06B0BDE8F0873038024062
:102730000010024000180240001402400004024051
:10274000000C02400008024000000240002002404D
:10275000001C0240104810B50E4901604FF4827110
:10276000416000218160C1604FF400720161C0E9E5
:102770000512C1610162416281620A21C162FFF7F3
:10278000B9F8002805D0BDE810404F2103A001F0A2
:10279000DCB810BD005001402C0100202E2E2F531C
:1027A00072632F7370692E630000000010B5144827
:1027B00088B01249016059210024C0E90114C460A5
:1027C0000461FFF718FC20B14FF49A710DA001F0DD
:1027D000BCF86020CDE90004029400226946084854
:1027E0000494FFF7A0FB20B140F23D1105A001F0D9
:1027F000ACF80348FFF724FB08B010BD00180040F8
:10280000B00200202E2E2F5372632F74696D2E6339
:102810000000000010B523488AB04FF080410160ED
:1028200059210024C0E9011440F6D631C0E903144F
:10283000FFF7E1FB18B14D211BA001F086F80794CA
:1028400007A918480894FFF7F6F918B1542116A003
:1028500001F07BF86020CDE9000402940022694673
:1028600010480494FFF75FFB18B15D210EA001F042
:102870006CF8042269460B48FFF755FB18B162213A
:1028800009A001F062F8082269460648FFF74BFBF1
:1028900018B1672104A001F058F80248FFF7D0FAF8
:1028A0000AB010BD840100202E2E2F5372632F74A6
:1028B000696D2E630000000010B51A488AB01849EF
:1028C000016059210024C0E9011440F2E731C0E958
:1028D0000314FFF790FB18B17A2113A001F035F82B
:1028E000079407A90F480894FFF7A5F918B18121AB
:1028F0000DA001F02AF86020CDE900040294042222
:10290000694608480494FFF70EFB18B18A2106A017
:1029100001F01BF80348FFF793FA0AB010BD00005E
:1029200000040040C00100202E2E2F5372632F742C
:10293000696D2E630000000010B524488AB022495A
:10294000016059210024C0E9011440F6D631C0E9E4
:102950000314FFF750FB18B19D211DA000F0F5FFF7
:10296000079407A919480894FFF765F918B1A4213D
:1029700017A000F0EAFF6020CDE9000402940022D5
:10298000694612480494FFF7CEFA18B1AD2110A0A1
:1029900000F0DBFF042269460C48FFF7C4FA18B1C7
:1029A000B2210BA000F0D1FF082269460748FFF7CB
:1029B000BAFA18B1B72106A000F0C7FF0348FFF725
:1029C0003FFA0AB010BD000000080040FC010020E2
:1029D0002E2E2F5372632F74696D2E63000000003A
:1029E00010B524488AB02249016059210024C0E969
:1029F000011440F6D631C0E90314FFF7FCFA18B110
:102A0000CA211DA000F0A1FF079407A91948089446
:102A1000FFF711F918B1D12117A000F096FF60203F
:102A2000CDE9000402940422694612480494FFF799
:102A30007AFA18B1DA2110A000F087FF082269465F
:102A40000C48FFF770FA18B1DF210BA000F07DFFF2
:102A50000C2269460748FFF766FA18B1E42106A080
:102A600000F073FF0348FFF7EBF90AB010BD000058
:102A7000000C0040380200202E2E2F5372632F745A
:102A8000696D2E630000000010B5314890B02F49E9
:102A9000016059210024C0E9011440F6D631C0E993
:102AA00003144461FFF7A7FA18B1F92129A000F037
:102AB0004CFF0E940EA926480F94FFF7BCF820B1E6
:102AC0004FF4807123A000F040FF6020CDE90004A6
:102AD0000294039404940594042269461C480694C5
:102AE000FFF721FA20B14FF486711AA000F02DFFF4
:102AF000082269461648FFF716FA20B140F2111174
:102B000014A000F022FF0C2269461148FFF70BFACF
:102B100020B14FF48B710FA000F017FF07940894B9
:102B200009944FF400500A94CDE90B4007A90848D6
:102B30000D94FFF753F820B14FF4917105A000F008
:102B400004FF0348FFF77CF910B010BD00040140FA
:102B5000740200202E2E2F5372632F74696D2E6322
:102B6000000000000F4810B50D4901600E4941609A
:102B70004FF48051816000214FF48062C0E903125C
:102B80000C22C0E90521C161FFF77CFB002805D0BC
:102B9000BDE810404E2105A000F0D7BE10BD0000DA
:102BA00000100140EC020020A08601002E2E2F53C1
:102BB00072632F75736172742E630000FEE700006C
:102BC000162812D00BDC0C2818D003DC68B10B28B7
:102BD0000BD10DE00D280ED0152806D1704717280F
:102BE0000FD01F28FAD02028F8D0084600F008B9E6
:102BF000084600F0D5BB0846FDF700BF084600F0C8
:102C00000BBC0029EAD1014804F0D2BBF4410020FA
:102C100070470907090E002806DA00F00F0000F1DE
:102C2000E02080F8141D704700F1E02080F80014C7
:102C300070470000094A00B592ED0E0A02F120012A
:102C4000074803F0CBFE0549054892ED0F0A2431F1
:102C500034385DF804EB03F0C1BE0000F8400020FA
:102C60006843002023499FED220ADFED230A01F18A
:102C7000340218B1012816D0022838D181ED000A9B
:102C800081ED010A81ED020A81ED0A0AC1ED080A0F
:102C9000C1ED070AC1ED060A82ED000A82ED010AC4
:102CA00082ED020A1BE0DFED151AB0EE001A81EC8E
:102CB000021AFAEE001AC1ED021A81ED0A0AC1EDFC
:102CC000080AC1ED070AC1ED060AF7EE081AC2EDBF
:102CD000001ADFED0B1AC2ED011A82ED021A82ED25
:102CE0000A0AC2ED080AC2ED070AC2ED060A7047D9
:102CF0000000000034430020000034426F12033C07
:102D00008FC2753C0E4810B5417A007A0D4C00EB2D
:102D1000800001EB4000C0B22070627890420AD07F
:102D200002211046FFF74CFF01212078FFF748FFF2
:102D30002078607002E00021FFF742FF002010BD04
:102D4000D2400020EC00002038B50B46009204462B
:102D50000022802100F008F8002804D0606D40F0C7
:102D600020006065032038BD2DE9F0411D4617465F
:102D70000E460446DDF8188035E0681C33D02DB1CE
:102D8000FEF700FAA0EB0800A8422CD320684168A7
:102D900021F0E00141606068B0F5827F0BD1A0684E
:102DA000B0F5004F02D0B0F5806F04D12068016803
:102DB00021F040010160A06AB0F5005F0AD12068EF
:102DC00001684DF6FF72114001602068016841F40E
:102DD00000510160012084F85100002084F8500067
:102DE0000320BDE8F0812068806836EA000004D046
:102DF0000020B842C1D10020F3E70120F9E700002C
:102E000030B50F4900200A68D0630E4A1368D863B2
:102E10000D4B1C68A0630D4C256868630D68286421
:102E2000156828641D6868632568A8631B68D863F3
:102E30002368D863096888631168886330BD00001F
:102E40003802002074020020FC01002084010020D0
:102E5000534D524F4FF0FF39002605F11A0400235D
:102E60004A461946786805F039FD0020295C19B9F1
:102E7000401CC0B21228F9D31228F0D01220295CCD
:102E800031B112202E54401CC0B21928FAD3E6E703
:102E9000401CC0B21928F2D3E1D1288894F81880D8
:102EA00094F819A0E38BC0F30A0CA4F800C068786A
:102EB000ACF5806CC108A87841EA4011C1F30A0161
:102EC0006180EA78800940EA8202287942EA802219
:102ED000C2F30A02A28093466A79400840EAC2100F
:102EE000C0F30A00E080A4F80AC00CF1040CBCF1A5
:102EF000090F00D26681A1F58061A181091D092910
:102F000000D2A681ABF58061E181091D092900D2BB
:102F1000E681A0F580602082001D092800D226826B
:102F200090092072C2F301106072E88860822889DB
:102F3000A0826889E082297B2176687B6076EA89B5
:102F4000E28328B9BAF1000F02D04FF0010C01E082
:102F50004FF0000C84F81DC029B9B8F1000F02D061
:102F60004FF0010C01E04FF0000C84F81CC011B1CF
:102F7000B8F1000F0ED00021A17610B1BAF1000F08
:102F80000AD00020E07682EA0300904320849A432E
:102F9000628464E70121EFE70120F3E77800002075
:102FA000B8400020012003F0E7FCFBE710B58AB031
:102FB00000211A48FFF78AF8FDF78CFDFFF738FA71
:102FC000174804F06DFB01224FF4FF711548FEF71E
:102FD000D3F80122D1021448FEF7CEF80122910362
:102FE0001248FEF7C9F8142211496846FDF789F91D
:102FF0000021684603F0D6FC0E4C0D4914222060D7
:10300000143105A8FDF77DF9002105A803F0CAFCDD
:103010006060002003F0DDFC0AB010BDB0020020AB
:10302000F441002000180240001002400014024049
:10303000A090000884000020FFF701FAFFF7FAFDD6
:10304000FFF760FE012003F097FCF5E7052003F091
:1030500093FCFBE703F09CBC30B5264893B00025F9
:10306000016841F080510160006800F080501190CB
:103070002148016841F4404101600068022400F4E5
:103080004040119001200090000401908001CDE9A2
:10309000064008200890F020CDE9090404200B9098
:1030A0006846FEF799FA00B1FEE7FEF74DF900B168
:1030B000FEE70CA90F2081E831004FF4A0500F90DB
:1030C000109005210CA8FEF777F900B1FEE7FEF796
:1030D0002BFA4FF47A71B0FBF1F0FEF769FD042092
:1030E000FEF75AFD00220F21501EFEF7FBF813B029
:1030F00030BD0000403802400070004010480168B8
:1031000041F4700101600F48016841F00101016064
:103110000C4A00210832116002680B4B1A40026011
:10312000031D0A4A1A60026822F4802202600548E0
:103130000C30016002495806803908607047000071
:1031400088ED00E000380240FFFFF6FE103000245A
:103150000148FEF7C1BD00008C030020F0B50268F5
:10316000234B244D244E254F254C4FF0804C984244
:1031700009D0604507D0A84205D0B04203D0B8427C
:1031800001D0A04204D122F0700E4A6842EA0E0239
:1031900098421BD0604519D0A84217D0B04215D034
:1031A000B84213D0A04211D0164DA8420ED0164DF1
:1031B000A8420BD0154DA84208D0154DA84205D005
:1031C000144DA84202D0144DA84203D122F44075F8
:1031D000CA682A4302608A68C2620A6882629842A8
:1031E00001D0A04201D10969016301214161F0BD13
:1031F000000001400004004000080040000C0040B6
:1032000000040140004001400044014000480140EA
:1032100000180040001C00400020004010B50123B1
:10322000046A8B409C430462036A8A40134303622E
:1032300010BD000030B5026A22F001020262026A8B
:10324000436884690D6824F07304254322F0020466
:103250008A6822430B4CA04202D00B4CA0420BD1F7
:1032600022F00804CA6823F4407322434C6922F018
:1032700004021C438B6923434360856149684163B1
:10328000026230BD000001400004014030B5026A16
:1032900022F010020262026A436884690D6824F415
:1032A000E64444EA05248D6822F0200242EA051231
:1032B0000D4DA84202D00D4DA8420ED1CD6822F08E
:1032C000800242EA05124D6923F4406343EA850314
:1032D0008D6922F0400243EA8503436084614968B6
:1032E0008163026230BD0000000001400004014023
:1032F00030B5026A22F480720262036A4268C469CD
:1033000023F4007324F073050C682C438D6843EAA2
:1033100005230D4DA84202D00C4DA8420ED1CD6818
:1033200023F4006343EA05234D6922F4405242EA44
:1033300005128D6923F4806342EA05124260C4617C
:103340004968C163036230BD0000014000040140D0
:1033500030B5026A22F480520262046A4268C3698C
:103360000D6823F4E64343EA05238D6824F40054F2
:1033700044EA0534084DA84202D0084DA84204D1C1
:103380004D6922F4804242EA85124260C361496875
:103390000164046230BD00000000014000040140EF
:1033A00010B520B1012830D10020FFF75BFC174C8D
:1033B0009FED170A1749B4F90A301BB9E08908B91B
:1033C000208AB8B15FF0000000EB800201EB02122E
:1033D000401CC0B282ED0D0A0428F5D3B4F90E20CA
:1033E000B4F910100B4804F0A5F9BDE810400948E5
:1033F00004F05DB900EB800201EB0212401CC0B288
:1034000082ED0D0A0428F5D3E8E710BDD240002074
:10341000CDCC4C3DF441002070B530B101284AD1EB
:10342000BDE870400220FFF71DBC00209FED221A6E
:10343000224ADFED230A322300EB800102EB011167
:1034400000F0010481ED001A6FF0180514FB05F47B
:1034500003EB840400EE104A401CC0B2B8EEC00A70
:10346000042881ED010AC1ED020AE5D315481E22A8
:10347000B0F90A10494291FBF2F100EE101AB0F9CE
:103480000E10B0F910004A42142192FBF1F290FBA9
:10349000F1F0B8EEC01A00EE102AF8EEC00A00EE05
:1034A000100A0648B8EEC00A01F070FFBDE870408F
:1034B000024804F0FCB870BD00004843F44100200D
:1034C00000000000D240002010B5806B0021C185B3
:1034D000C184FEF74EFE10BD70B5846B2068406954
:1034E00094F83910C0F3C0100025212904D118B177
:1034F000E584204600F046F82068406994F83A10C8
:10350000C0F38010222904D118B1E585204600F0CF
:103510002BF8E06B40F01000E0632046FEF729FE38
:1035200070BD10B50146806B09680968C90513D4E0
:103530000021C1850168CA6822F48072CA600168EE
:103540004A6922F001024A6101684A6922F0400298
:103550004A61202180F83A10FEF766FF10BD10B5D1
:10356000806BFEF762FF10BD0168CA6822F490729A
:10357000CA6001684A6922F001024A61202180F88C
:103580003A1070470168CA6822F0C002CA60202160
:1035900080F83910704710B590F83A10222901D000
:1035A000022010BD8168B1F5805F11D0016900294A
:1035B00001681FD0496801F07F03816A4A1C82625A
:1035C0000B70C18D491E0904090CC18518D026E075
:1035D0000269816A002A0268526805D0D2B20A8064
:1035E000816A491C8162ECE7C2F308020A80816AA1
:1035F000891CF7E74A68816A4B1C83620A70E0E71E
:103600000168CA6822F49072CA6001684A6922F0AF
:1036100001024A61202180F83A10FEF705FF0020E0
:1036200010BD00002DE9F04104460068016921F455
:103630004052E168114301612168C86849F20C6297
:1036400090432369A268E5691A4363692B431A43CF
:103650000243CA602168486920F44072A06910439F
:103660004861E1696425B1F5004F9748974A2168A0
:103670004FF032083FD0914201D081427CD1FDF71A
:1036800069FF00EBC00101EB001061688900B0FB2D
:10369000F1F6FDF75FFF00EBC00101EB0010616880
:1036A0008900B0FBF1F0B0FBF5F06FF01801484372
:1036B00006EB800108EB0110B0FBF5F000F0F0061E
:1036C000FDF748FF00EBC00101EB001061688900C5
:1036D000B0FBF1F0B0FBF5F006EB0016FDF73AFF9A
:1036E00000EBC00101EB001061688900B0FBF1F74D
:1036F000FDF730FFD2E0914201D081423DD1FDF78C
:1037000029FF00EBC00101EB001061684900B0FB2C
:10371000F1F0B0FBF5F00601FDF71CFF00EBC00176
:1037200001EB001061684900B0FBF1F7FDF712FFF3
:1037300000EBC00101EB001061684900B0FBF1F043
:10374000B0FBF5F06FF01801484307EB800108EB80
:10375000C100B0FBF5F000F0F80006EB4006FDF705
:10376000F9FE00EBC00101EB001061684900B0FBFD
:10377000F1F7FDF7EFFE3CE055E0FDF7DBFE00EB77
:10378000C00101EB001061684900B0FBF1F0B0FB33
:10379000F5F00601FDF7CEFE00EBC00101EB0010D5
:1037A00061684900B0FBF1F7FDF7C4FE00EBC00112
:1037B00001EB001061684900B0FBF1F0B0FBF5F0DF
:1037C0006FF01801484307EB800108EBC100B0FB24
:1037D000F5F000F0F80006EB4006FDF7ABFE00EB5D
:1037E000C00101EB001061684900B0FBF1F7FDF783
:1037F000A1FE00EBC00101EB001061684900B0FBC5
:10380000F1F0B0FBF5F06FF01801484307EB8001D1
:1038100008EBC100B0FBF5F000F007002168304470
:103820008860BDE8F081FDF785FE00EBC00101EB8B
:10383000001061688900B0FBF1F6FDF77BFE00EB3C
:10384000C00101EB001061688900B0FBF1F0B0FB32
:10385000F5F06FF01801484306EB800108EB01100A
:10386000B0FBF5F000F0F006FDF764FE00EBC001E0
:1038700001EB001061688900B0FBF1F0B0FBF5F0DE
:1038800006EB0016FDF756FE00EBC00101EB001041
:1038900061688900B0FBF1F7FDF74CFE00EBC00159
:1038A00001EB001061688900B0FBF1F0B0FBF5F0AE
:1038B0006FF01801484307EB800108EB0110B0FBE3
:1038C000F5F000F00F00A9E70014014000100140DE
:1038D00090F83910212901D0022070478168B1F594
:1038E000805F016A0BD04A1C02620268097851604D
:1038F000C18C491E0904090CC1840ED017E0098847
:103900000268C1F30801516001690029016A02D00F
:10391000491C0162ECE7891CFBE70168CA6822F0D8
:103920008002CA600068C16841F04001C1600020A7
:103930007047000010B5FDF7A3F8BDE8104001483E
:10394000FEF718BCEC020020FEE7FEE703B4019886
:103950004100009850EAC12018BF04204A0D18BF4A
:1039600040F0010040F2FF72B2EB515F08BF40F03F
:103970000200012808BF052002B0704700000000C7
:1039800070B5C1482DED020B2DED0E8B82B0119D4F
:1039900025F000449FEDBEDB9FEDBFEB84423EDB94
:1039A000A4F140511098A1F17F6108430FD0BC48A9
:1039B000844202DC28D1109830B39DED100B02B088
:1039C000BDEC0E8B02B0BDE8704001F07DBC9DEDFA
:1039D000100B53EC1D2B51EC100BFCF74BFD9DED28
:1039E000100B41EC180B53EC1E2B51EC100BFCF799
:1039F00041FD53EC182BFCF796FC41EC100B02B088
:103A0000BDEC0E8B02B070BD012001F0B1FC02B024
:103A1000BDEC0E8B02B0BDE8704001F069BCA1485E
:103A20009FEDA18B844256DA9DED100BB4F1795FC6
:103A30000ADA51EC100BFFF789FF042808BF01F0E8
:103A400077FC9DED100BDAE753EC102B51EC100BCB
:103A5000FCF710FD41EC190B95480621B0EE490A20
:103A6000F0EE690A784401F073F953EC192B51EC2C
:103A7000100BFCF7FFFC41EC1A0B8E48B0EE490A24
:103A8000F0EE690A0421784401F062F953EC192B35
:103A900051EC100BFCF7EEFC53EC182BFCF743FC3D
:103AA00041EC100B51EC1A0B53EC102BFCF754FDAE
:103AB000CDE900019DED000B53EC102B9DED100B9B
:103AC00051EC100BFCF7D6FC9DED101B53EC112BA9
:103AD000FCF729FCD2E09DED100B51EC100B01F02E
:103AE00075FD53EC182BFCF7C2FC9FED730BCDE971
:103AF000000153EC102B9DED000B51EC100BFCF76B
:103B0000B9FC41EC190B6E480621B0EE490AF0EE03
:103B1000690A784401F01CF953EC192B51EC100B95
:103B2000FCF7A8FC41EC1B0B6648B0EE490AF0EE2E
:103B3000690A0421784401F00BF953EC192B51EC7C
:103B4000100BFCF797FC53EC182BFCF7ECFB41EC4B
:103B50001C0B51EC190B03F0B6FD41EC180B5A4845
:103B60009FED5BABA04222DC53EC1C2B51EC1B0BFA
:103B7000FCF7F2FCCDE900019DED000B51EC180BB8
:103B800053EC102BFCF776FC53EC182BFCF7CBFB1B
:103B900053EC1A2BFCF76EFC53EC1D2BFCF764FC6A
:103BA00053EC1E2BFCF763FC41EC100B5FE08DED3A
:103BB000008B002000909DED000B51EC180B53EC96
:103BC000102BFCF7B0FB9DED000B41EC1E0B53ECF2
:103BD000102B51EC100BFCF74DFC53EC192BFCF7A0
:103BE00046FC53EC1E2BFCF7B7FC41EC190B53ECD5
:103BF0001C2B51EC1B0BFCF7AFFC41EC1B0B53ECEB
:103C00001A2B51EC190BFCF735FC53EC1D2BFCF770
:103C10002EFC41EC190B53EC1A2B51EC180BFCF752
:103C200029FC53EC1B2BFCF725FC53EC192BFCF760
:103C30001BFC9DED000B41EC180B53EC1A2B51ECC7
:103C4000100BFCF717FC9FED249B53EC192BFCF792
:103C50000EFC41EC100B51EC180B53EC102BFCF745
:103C600003FC53EC192BFCF702FC41EC100B002D6C
:103C70003FF7C5AE51EC100B81F0004141EC100B49
:103C8000BDE60000000000000000F03F0000000062
:103C9000075C143326A6913C182D4454FB21F93FB0
:103CA0000000F07F0000E03F000000000000F03F57
:103CB0007856000086560000000000000000E03F3B
:103CC000CA550000D85500003333EF3F0000000014
:103CD0000000000000000040182D4454FB21E93F83
:103CE00070B59B482DED020B2DED068B079D25F041
:103CF0000044A04218DC9748844202DC0AD10698AE
:103D000040B19DED060BBDEC068B02B0BDE87040E6
:103D100001F0DABA002DCCBF9FED8F0B9FED900B19
:103D2000BDEC068B02B070BD8F48A04215DD8F48F8
:103D3000A042D8BF4FF0FF3458DD9DED060B51EC8B
:103D4000100BFFF703FE042808BF01F0F1FA9DED08
:103D5000060BBDEC068B02B070BD9DED060B51EC61
:103D6000100B01F033FCCDE9060181489FED828BF9
:103D7000A0423CDD8248A0421FDD00249FED82ABC3
:103D80009DED060B53EC1A2B51EC100BFCF7CBFA04
:103D90009DED060B41EC190B53EC1A2B51EC100B5B
:103DA000FCF768FB53EC182BFCF75EFB53EC192B6C
:103DB000FCF7D2FBCDE9060149E09DED060B01249D
:103DC00053EC182B51EC100BFCF7ADFA9DED060BE4
:103DD00041EC190B53EC182B51EC100BFCF744FB86
:103DE00053EC192BFCF7B8FBCDE906012FE068482E
:103DF000A0421FDD02249FED689B9DED060B53EC56
:103E0000192B51EC100BFCF735FB53EC182BFCF77E
:103E10008AFA9DED060B41EC180B53EC192B51EC73
:103E2000100BFCF721FB53EC182BFCF795FBCDE9AD
:103E300006010CE09DED060B032453EC102B9FEDC7
:103E4000580B51EC100BFCF787FBCDE906019DEDFB
:103E5000060B53EC102B51EC100BFCF70BFB41EC59
:103E6000180B53EC182BFCF705FB41EC190B4E48D3
:103E70000621B0EE490AF0EE690A784400F068FFC6
:103E800053EC182B51EC100BFCF7F4FA41EC180B27
:103E90004648B0EE490AF0EE690A0521784400F080
:103EA00057FF53EC192B51EC100BFCF7E3FA41ECE4
:103EB000100B51EC180B53EC102B002C0EDAFCF706
:103EC00032FA9DED061B53EC112BFCF7D3FA9DED56
:103ED000061B53EC112BFCF7CAFA35E0FCF723FA6A
:103EE0009DED061B53EC112BFCF7C4FA41EC100BB3
:103EF0002F48784400EBC40090ED001B51EC100BF0
:103F000053EC112BFCF7B0FA9DED061B53EC112B73
:103F1000FCF7AAFA41EC100B2648784400EBC400E9
:103F200090ED001B51EC100B53EC112BFCF79FFA9A
:103F300041EC100B002DA2BFBDEC068B02B070BD92
:103F400051EC100B81F0004141EC100B01E7000037
:103F5000000010440000F07F182D4454FB21F93F6D
:103F6000182D4454FB21F9BF0000DC3F0000203E27
:103F70000000F33F00000000000000000000F03FE0
:103F80000000E63F000000000000000000000040CC
:103F90000080034000000000000000000000F83F27
:103FA000000000000000F0BF725300002853000022
:103FB000B25200006A52000070B56B4E2DED040B3A
:103FC0002DED028B82B0DDF81CC0DDE905235C42DB
:103FD0002CF000411C4341EAD474049D22F00040BF
:103FE000B44205D86C422C4340EAD474B4420BD995
:103FF0009DED061B9DED040B02B0BDEC028B04B0E1
:10400000BDE8704001F06AB9ACF14054A4F17F649E
:104010001C430BD0022404EAAC7444EAD274054376
:104020009FED538B9FED542B07D015E09DED040BB6
:1040300051EC100B01F0A2F942E0002C11BF012C51
:104040009DED040B02B0BDEC028B04BF04B070BD4B
:10405000022C38D0032C3BD00B439FED491B9FED26
:104060004A0B0AD0B14218D1B04209D121F08041A7
:1040700020F08040079105900FE0002A15DA10E04B
:10408000434B7B44002C08BF93ED000B0DD0012C5B
:1040900010D0022C17D0032C1AD0B0421DD1002A08
:1040A00003DAB0EE410AF0EE610A02B0BDEC028B19
:1040B00004B070BD93ED000B51EC100B81F000418A
:1040C00041EC100BF1E7B0EE480AF0EE680AECE7BD
:1040D000B0EE420AF0EE620AE7E7401A00153C280B
:1040E000C8BF8DED000B19DCBCF1000FBEBF10F195
:1040F0003C0F9FED290B8DED000B0FDB9DED060BAB
:1041000053EC102B9DED040B51EC100BFCF724FA33
:1041100001F05CFA01F032F9CDE90001002C08BF92
:104120009DED000BC1D0012C10D0022C9FED1C0B7B
:1041300053EC102B9DED000B51EC100B0DD0FCF748
:1041400093F953EC182BFCF78FF9B9E7019880F03D
:10415000004001909DED000BA7E7FCF785F953ECBB
:10416000182BFCF784F9ABE70000F07F000000009B
:10417000182D4454FB210940182D4454FB2109C03B
:10418000182D4454FB21F9BF182D4454FB21F93F4D
:10419000CA51000000000000000000000000000004
:1041A000075C143326A6A13C10B52F499FED2C1BAC
:1041B0002DED020B84B0059820F000408842D8BF56
:1041C0009DED040B2DDD2949884209D1049840B9A1
:1041D0004FF0010001F0CCF801F08AF806B010BDF4
:1041E00005DB9DED040B01F06FF806B010BD6846CD
:1041F0009DED040B00F0D8FA10F0030004BF9DED14
:10420000021B9DED000B0CD001280ED09DED021B72
:104210009DED000B022817D0012000F015FE06B01E
:1042200010BD00F0DDFC06B010BD9DED021B9DED44
:10423000000B012000F008FE51EC100B81F0004152
:1042400006B041EC100B10BD00F0CAFC51EC100B95
:1042500081F0004106B041EC100B10BD00000000E1
:104260000000000000000000FB21E93F0000F07F9B
:1042700070B52DED020B2DED0A8B82B00D98C40F99
:1042800020F00045AE48854248D3AE48854219D358
:104290000C99C5F31300084309D09DED0C0B02B037
:1042A000BDEC0A8B02B0BDE8704001F00DB8002CE7
:1042B00014BF9FEDA50B9DED0C0B02B0BDEC0A8B5E
:1042C00002B070BD9FEDA20B53EC102B9DED0C0BBB
:1042D00051EC100BFCF7E0F90AD2022001F048F88B
:1042E00002B0BDEC0A8B02B0BDE8704001F010B81E
:1042F0009FED990B53EC102B9DED0C0B51EC100B1B
:10430000FCF734FB0AD2022001F032F802B0BDEC17
:104310000A8B02B0BDE8704001F00AB890489FEDEA
:1043200092BBA8425CD29248854219D29148784407
:1043300000EBC40090ED000B53EC102B9DED0C0B2B
:1043400051EC100BFCF790F841EC1A0B8A487844BA
:1043500000EBC40090ED009BC4F10100041B36E0AB
:104360009FED870B53EC102B9DED0C0B51EC100BBC
:10437000FCF780F841EC100B8348784400EBC40054
:1043800090ED001B51EC100B53EC112BFBF7CBFF06
:10439000FCF7CCFA0446FCF74EF941EC180B9FED04
:1043A0007C0B53EC102BFCF765F89DED0C1B53ECCC
:1043B000112BFCF75CF841EC1A0B9FED770B51ECDD
:1043C000180B53EC102BFCF755F841EC190B51EC82
:1043D0001A0B53EC192BFCF747F8CDE90C011BE045
:1043E0006F48854217D29FED700B53EC102B9DED5B
:1043F0000C0B51EC100BFBF796FF53EC1B2BFCF74F
:104400004BF908D29DED0C0B53EC1B2B51EC100B10
:10441000FBF789FF6EE000249DED0C0B53EC102B95
:1044200051EC100BFCF726F841EC180B6048052105
:10443000B0EE480AF0EE680A784400F089FC53ECCC
:10444000182B51EC100BFCF715F89DED0C1B53ECE1
:10445000112BFCF70CF841EC180B9FED570B5CB3DC
:1044600053EC182B51EC100BFBF7FEFF9DED0C0BE2
:1044700041EC1C0B53EC182B51EC100BFBF7FAFF23
:1044800053EC1C2BFCF768F853EC192BFBF7EFFFF0
:1044900053EC1A2BFBF7E8FF53EC1B2BFBF7E7FF62
:1044A000CDE900016FF47F70844226DB01EB0450FC
:1044B00001909DED000B00E753EC102B51EC180B15
:1044C000FBF7D2FF9DED0C0B41EC190B53EC182BB5
:1044D00051EC100BFBF7CEFF53EC192BFCF73CF81B
:1044E0009DED0C1B53EC112BFBF7BEFF53EC1B2B6C
:1044F000FBF7BDFF41EC100BDFE608464FF07A51A9
:1045000001EB04519FED2E0B084453EC102B01904E
:104510009DED000B51EC100BFBF7ACFF0D4645EC8D
:10452000100B044651EC100BFFF710FA042808BFDB
:1045300000F0FEFE45EC104BBFE60000000000005E
:10454000422E86400000F07F0000000000000000C6
:10455000EF39FAFE422E864051302DD5104987C0E2
:10456000422ED63F00000000000000000000F03F97
:10457000B2A2F03F0E4E0000FE4D00000000000011
:10458000FE822B654715F73FB24D0000000000008A
:104590000000E0FE422EE63F763C7935EF39EA3DF9
:1045A0000000303E000000009C7500883CE4377E2F
:1045B000244D00000000000000000000000000404A
:1045C00000000000000070012DED020B019820F0AA
:1045D000004001909DED000B02B07047000000000C
:1045E00010B52F499FED2C1B2DED020B84B00598C3
:1045F00020F000408842DCBF00209DED040B32DD3E
:104600002849884209D1049840B94FF0010000F0D0
:10461000AFFE00F06DFE06B010BD05DB9DED040B96
:1046200000F052FE06B010BD68469DED040B00F090
:10463000BBF810F0030011D0012818D09DED021B2B
:104640009DED000B02281AD000F0CAFA51EC100BB5
:1046500081F0004106B041EC100B10BD9DED021B36
:104660009DED000B012000F0EFFB06B010BD9DEDAD
:10467000021B9DED000B00F0B3FA06B010BD012047
:1046800000F0E2FB51EC100B81F0004106B041EC70
:10469000100B10BD00000000000000000000000032
:1046A000FB21E93F0000F07F00B52DED048BB0EE5B
:1046B000409AF0EE609A83B051EC190BFCF7E5F8E4
:1046C00041EC180B18EE100A18EE901A8DED008BC5
:1046D000002818BF0120084320F00040C0F17F608F
:1046E00000F1E040C00F14D019EE101A19EE900A34
:1046F0008DED009B002918BF0121084320F00040E8
:10470000C0F17F6000F1E040C00F04BF012000F065
:104710002FFEB0EE480A03B0F0EE680ABDEC048B41
:1047200000BD00000000000010B51D499FED1A1BE0
:104730002DED020B84B0059820F000408842DCBFCC
:1047400001209DED040B21DD1649884209D1049812
:1047500040B94FF0010000F00BFE00F0C9FD06B0BB
:1047600010BD05DB9DED040B00F0AEFD06B010BDE5
:1047700068469DED040B00F017F800F001000121E0
:10478000A1EB40009DED021B9DED000B00F0F4FB42
:1047900006B010BD00000000000000000000000096
:1047A000FB21E93F0000F07F2DE9F14F04462DED9C
:1047B000020B2DED088B8AB09FEDE70B80ED020B0D
:1047C000139EE74826F0004585420ADC9DED120B5A
:1047D000002084ED000B0AB0BDEC088B03B0BDE8EF
:1047E000F08FE0489FEDE0AB9FEDE1BBA84247DDD5
:1047F000E14F9FEDE39B9FEDE48B9DED120B53EC9E
:104800001A2B51EC100B002E1CDDFBF72DFE41EC9A
:10481000100BBD4208D053EC1B2B51EC100BFBF7D7
:1048200023FEC4E900010BE053EC192B51EC100BF3
:10483000FBF71AFE53EC182BFBF716FEC4E9000138
:104840000120C8E7FBF76FFD41EC100BBD4208D01B
:1048500053EC1B2B51EC100BFBF765FDC4E9000179
:104860000BE053EC192B51EC100BFBF75CFD53ECF8
:10487000182BFBF758FDC4E900014FF0FF30AAE701
:10488000C348A84279DB9DED120B51EC100B00F0F0
:104890009DFE41EC180B9FEDC00B53EC102BFBF76A
:1048A000E9FD9FEDBF1B53EC112BFBF73CFDFCF723
:1048B0003DF80746FBF7BFFE41EC190B53EC1A2BF2
:1048C000FBF7D8FD53EC182BFBF7D1FD41EC180B8F
:1048D00053EC1B2B51EC190BFBF7CCFDDFF8C8A2F6
:1048E00041EC100B4FEA15580125FA4453EC102BFC
:1048F00051EC180BFBF7B8FD032DC4E900013DD0C6
:10490000C1F30A5005EB4511A8EB000011398142B3
:1049100034DA0AEB051BB0EE48AA9BED000BF0EE73
:1049200068AA53EC102B51EC190BFBF7A3FD41ECDB
:104930001B0B51EC1A0B53EC1B2BFBF795FD41ECB9
:10494000180B51EC1A0B53EC182BFBF78DFD53ECA5
:104950001B2BFBF789FD9BED020B41EC1A0B53EC73
:10496000102B51EC190BFBF785FD53EC1A2BFBF7C1
:104970007BFD41EC100B6D1CB8E70EE0002EA8BFCC
:104980003846BFF628AF94ED000B51EC100B81F0C8
:104990000041C4E9000178421DE7C6F3130040F46A
:1049A000801EC6F30A50A0F2F530471100F01F0533
:1049B000C5F12000DDF848B008900020069007906F
:1049C0000520EC467949002D07EB0002794408BF29
:1049D00051F8221009D051F8223001EB8201AB408E
:1049E0004A68089922FA01F11943A1FB0E26A1FB9E
:1049F0000B131A449A4234BF0123002303EB060829
:104A00000CEB8003D3E901A60E448E4234BF012192
:104A1000002192448A4411B1924502D903E09245A3
:104A200001D2012100E00021C3E901A641444CF874
:104A30002010011EA0F10100C4DC029800F100501A
:104A4000850F0298DDE903678000DDF81480FBF72D
:104A5000F2FD41EC1A0B3046FBF7FEFD9FED541BB7
:104A600053EC112BFBF706FD41EC1B0B3846FBF713
:104A7000F3FD9FED511B53EC112BFBF7FBFC41ECBD
:104A8000180B4046FBF7E8FD9FED4D1B53EC112B37
:104A9000FBF7F0FC41EC190B51EC180B53EC192B04
:104AA000FBF741FC53EC1B2BFBF73DFC53EC1A2BA3
:104AB000FBF739FCCDE90801002008909DED080BBB
:104AC00053EC1A2B51EC100BFBF7CEFC53EC1B2BC9
:104AD000FBF7CAFC53EC182BFBF7C6FC53EC192B65
:104AE000FBF7C5FC9FED381B53EC112BFBF7C2FC09
:104AF0009FED370B41EC180B53EC102B9DED080B81
:104B000051EC100BFBF7B6FC53EC182BFBF70BFC2E
:104B10009FED310B41EC180B53EC102B9DED080B66
:104B200051EC100BFBF7A6FC53EC182BFBF7FBFB2F
:104B300041EC100B139810F0004F06D06D4251EC71
:104B4000100B81F0004141EC100B284684ED000B66
:104B500041E600000000000000000000000000002E
:104B6000FB21E93F7CD9024000004054FB21F93F82
:104B70003163621A61B4D03DFB21F93F00000000AF
:104B80000000601A61B4D03D7370032E8A19A33BF4
:104B9000FB2139410000000083C8C96D305FE43F4C
:104BA000000000000000E03F6A490000B848000033
:104BB000000000000000103E000000000000103C5B
:104BC000000000000000103A182D4454FB21F93D6C
:104BD0003326A611460B113C00000054FB21F93D81
:104BE00010B52DED040B2DED088B82B0B0EE419A7F
:104BF000F0EE619A0B9820F000449FED4BABB4F1BE
:104C0000795F11DA9DED0A0B51EC100BFBF78EFE6C
:104C1000002801BFB0EE4A0AF0EE6A0A02B0BDEC0D
:104C2000088B04BF04B010BD9DED0A0B53EC102B94
:104C300051EC100BFBF71EFC41EC180B3C48062115
:104C4000B0EE480AF0EE680A784400F081F853ECC0
:104C5000182B51EC100BFBF70DFC9DED0A0B41ECF2
:104C60001B0B53EC192B51EC100BFBF703FC41EC25
:104C7000190B53EC1B2B51EC180BFBF7FBFB53EC04
:104C8000192BFBF7F1FB9FED2C0B41EC190B53ECAF
:104C9000102B51EC180BFBF7EDFB41EC100B2848E7
:104CA000844210DA53EC192B51EC100BFBF7DCFBB0
:104CB00053EC1A2BFBF7DBFB41EC100B02B0BDEC05
:104CC000088B04B010BD1F48A042BCBF9FED1E1B47
:104CD0008DED001B06DBA4F5001001900020009074
:104CE0009DED001B51EC100B53EC112BFBF7BCFBA3
:104CF0009DED000B41EC180B53EC102B51EC1A0BF3
:104D0000FBF7B2FB41EC1A0B53EC192B51EC180BCF
:104D1000FBF7AAFB53EC1A2BFBF7A9FB41EC100B9A
:104D2000CCE7000000000000000000000000F03FA1
:104D3000D445000000000000000000000000E03F3B
:104D40003333D33F0000E93F000000000000D23FB2
:104D500070B504462DED028B4D1E00EBC500B0EE84
:104D6000408AF0EE608A90ED000B35F0060017D017
:104D700053EC182B51EC100BFBF77CFB41EC100BA8
:104D80006D1E04EBC50090ED001B51EC100B53ECB5
:104D9000112BFBF7C8FA41EC100B35F00600E7D1F8
:104DA000022D36D0042D1CD0062D1CBFBDEC028B6D
:104DB00070BD53EC182B51EC100BFBF75BFB94ED23
:104DC0000A1B53EC112BFBF7AEFA53EC182BFBF735
:104DD00051FB94ED081B53EC112BFBF7A4FA41ECAB
:104DE000100B53EC182B51EC100BFBF743FB94ED1D
:104DF000061B53EC112BFBF796FA53EC182BFBF721
:104E000039FB94ED040B53EC102BFBF78CFA41ECBF
:104E1000100B53EC182B51EC100BFBF72BFB94ED04
:104E2000021B53EC112BFBF77EFA53EC182BFBF70C
:104E300021FB94ED001B53EC112BFBF774FABDEC36
:104E4000028B41EC100B70BD31B504462DED040B07
:104E50002DED0A8BB0EE41BAF0EE61BA0B989DEDE4
:104E60000A0B20F00040B0F1795F0DDA51EC100B25
:104E7000FEF76CFD042808BF00F05AFA9DED0A0BFE
:104E8000BDEC0A8B05B030BD53EC102B51EC100B70
:104E9000FBF7F0FA41EC180B9DED0A0B53EC182BC5
:104EA00051EC100BFBF7E6FA41EC190B2C48B0EE75
:104EB000480AF0EE680A05217844FFF749FF9FEDA4
:104EC0002ACBB0EE40AAF0EE60AA9CB353EC1C2BA8
:104ED00051EC190BFBF7CEFA41EC1C0B53EC1A2BDF
:104EE00051EC190BFBF7C6FA9FED210B41EC190BA6
:104EF00053EC102B51EC1B0BFBF7BCFA53EC192BAA
:104F0000FBF7B2FA53EC182BFBF7B4FA53EC1B2B5C
:104F1000FBF7AAFA53EC1C2BFBF7A6FA9DED0A1B34
:104F200053EC112BFBF7A3FABDEC0A8B05B041EC57
:104F3000100B30BDFFE753EC1A2B51EC180BFBF7AD
:104F400099FA53EC1C2BFBF7EEF953EC192BFBF7FA
:104F500091FA9DED0A1B53EC112BFBF7E4F9E3E703
:104F60006444000000000000495555555555C5BF23
:104F7000000000000000E03FF1B506462DED040BF7
:104F8000BD482DED0C8B8AB0B0EE418AF0EE618AFF
:104F9000179D25F000449FEDBABB9FEDBBCB84422B
:104FA00008DA9DED160B51EC100BFBF7BFFC002847
:104FB00000F0E980B64FA74231DC002D0DDA9DEDFF
:104FC000160B51EC100B81F00041CDE9160151ECAC
:104FD000180B81F0004141EC180B9FEDAF0B53EC27
:104FE000102B9DED160B51EC100BFBF740FA53EC18
:104FF000182B9FEDAB0BCDE9040151EC100BFBF727
:1050000033FA41EC100B53EC102B9DED040B51ECDB
:10501000100BFBF788F99FEDA48BCDE916019DEDF0
:10502000160B53EC102B51EC100BFBF723FACDE9C8
:1050300004019DED040B53EC102B51EC100BFBF70E
:1050400019FA41EC190B9A480621B0EE490AF0EE24
:10505000690A7844FFF77CFE9648B0EE40DAF0EE3D
:1050600060DAB0EE490AF0EE690A06217844FFF7EB
:105070006FFE9DED041B51EC100B53EC112BFBF755
:10508000F9F99DED040B41EC1A0B53EC102B9DED3F
:10509000160B51EC100BFBF7EDF941EC190B53EC2F
:1050A0001A2B51EC1D0BFBF73EF953EC192BFBF7B8
:1050B000E1F953EC182BFBF736F99DED041B53EC8B
:1050C000112BFBF7D7F953EC182BFBF72CF941EC1C
:1050D000180B9FED790B51EC190B53EC102BFBF7D0
:1050E000C9F953EC182BFBF71EF941EC190B9DED98
:1050F000160B53EC192B51EC100BFBF714F941EC88
:10510000180BA74269DC3046FBF795FA41EC1A0B05
:1051100051EC180B53EC1A2BFBF705F941EC1B0B68
:1051200053EC182B51EC180BFBF7A4F953EC1B2B89
:10513000FBF712FA53EC192BFBF796F99DED161BB2
:1051400053EC112BFBF793F99FED5D1B53EC112BE7
:10515000FBF790F953EC1A2BFBF789F941EC180B8C
:10516000022000EAA570C0F10100FBF764FA53ECDD
:10517000182BFBF77FF900BF41EC100B0AB0BDEC18
:105180000C8B05B0F0BD711C1698214308430CD060
:105190009DED160B012E1CBF53EC102B51EC1C0B7C
:1051A00010D000BFFBF7D8F9E6E79DED160B51ECE8
:1051B000100B00F00BFA41EC100B51EC1B0B53ECF5
:1051C000102BEFE751EC100BFEF7C0FB042808BFD3
:1051D00000F0AEF89DED160BD0E7012E04BFB0EE47
:1051E000480AF0EE680AC9D08DED048B00240494BF
:1051F0009DED040B53EC102B9DED160B51EC100B99
:10520000FBF735F953EC192BFBF731F941EC190B8E
:1052100053EC182B51EC1C0BFBF79EF941EC180BCF
:105220008DED008B00949DED040B53EC102B9DED48
:10523000000B51EC100BFBF71DF953EC1B2BFBF78C
:1052400072F89DED000B41EC1A0B53EC192B51EC4D
:10525000100BFBF70FF953EC1A2BFBF764F853EC28
:10526000182BFBF707F99DED001B53EC112BFBF7F7
:105270005AF881E7000000000000303E0000000006
:10528000000000000000F03F000000000000F0BF40
:105290002894E53F00000000182D4454FB21E93F0D
:1052A000075C143326A6813C0000000000000000CB
:1052B000F242000008430000635555555555D53F4F
:1052C000000000000000004010B553EC102B51EC22
:1052D000100BFBF728F841EC100B10BD10B553EC88
:1052E000112B51EC100BFBF71EF841EC100B10BD0D
:1052F0009FED050B10B553EC102B51EC100BFBF789
:105300002BF941EC100B10BD000000000000000064
:105310009FED050B10B553EC102B51EC100BFBF768
:10532000A9F841EC100B10BD000000000000007057
:105330009FED050B10B553EC102B51EC100BFBF748
:1053400099F841EC100B10BD0000000000000010A7
:1053500002E008C8121F08C1002AFAD1704770473E
:10536000002001E001C1121F002AFBD1704700009C
:1053700001490860704700002801002010B541EC89
:10538000100BFEF7ADFC51EC100B10BD70B50446D0
:105390002DED088BB0EE609A96B0F0EE41BA9FED1D
:1053A0006CAAC0EE0A0A9FED6BBA20EE8B8A18EE4B
:1053B000100AFBF75EF941EC100BFEF7F5FE51EC1D
:1053C000100BFBF781F90AEE900A18EE100AFBF7B2
:1053D00050F941EC100BFFF703F951EC100BFBF700
:1053E00073F989EE0A0A08EE900A20EE0B8A18EE8D
:1053F000100AFBF73EF941EC100BFEF7D5FE51EC1D
:10540000100BFBF761F909EE900A18EE100AFBF792
:1054100030F941EC100BFFF7E3F851EC100BFBF700
:1054200053F98BEE8A0A09EE100A20EE0B8A18EE69
:10543000100AFBF71EF941EC100BFEF7B5FE51EC1C
:10544000100BFBF741F90AEE100A18EE100AFBF7F1
:1054500010F941EC100BFFF7C3F851EC100BFBF700
:1054600033F96AEEA90A00EE100A6AEE891ACDED48
:10547000000A28EE801A6AEE8A0A204600EEC91A4F
:105480008DED011A2AEE281A01EE801A6AEE091A29
:105490008DED021A29EE8A1A8DED039A8DED041A0C
:1054A00029EEC01A8DED051A28EEE91A8DED061ABF
:1054B0002AEE801A01EEA81A8DED071A29EE281A95
:1054C00041EE400ACDED080A01F0F8FA00216E46DF
:1054D00009AD01EB810004EB00100022D0ED030ABE
:1054E000D0ED041A90ED051A02EB420306EB83039C
:1054F00093ED000A93ED012A20EE200A02EE210A24
:1055000093ED022A05EB021303EB8103521CD2B286
:1055100002EE010A032A83ED000AE5D305EB8102BE
:10552000491C92ED000AC9B280ED030A92ED040A0B
:10553000042980ED040A92ED080A80ED050AC8D31B
:10554000204601F005FB16B0BDEC088B70BD0000D5
:1055500000003443DA0F494010B5144C9FED120A95
:1055600084ED000A9FED120BFEF782FE51EC100B4A
:10557000FBF7AAF89FED100B6060FEF779FE51EC87
:10558000100BFBF7A1F89FED0E0AA06084ED070A4F
:105590009FED0C0A84ED080A84ED090A9FED0A0AC2
:1055A00084ED0A0A10BD00000000C843D04300206B
:1055B000000000606666E63F000000606666E6BFC9
:1055C0003480B73AD053FB41DA0FC94082B0CDE9FD
:1055D000000121F0004001909DED000B02B051EC64
:1055E000100B704710B5FF4CFF482DED108B94ED5C
:1055F000010AD4ED010A20EE20FA94ED010AD4ED5F
:10560000020A20EE20CA94ED010AD4ED030A60EEEE
:1056100020BA94ED010AD4ED040A60EE20CA94ED9C
:10562000020AD4ED020A20EE20DA94ED020AD4ED4B
:10563000030A20EE209A94ED020AD4ED040A20EE2B
:1056400020BA94ED030AD4ED030A60EE20AA94ED8B
:10565000030AD4ED040A20EE20AA94ED040AD4ED46
:10566000040A60EE209A90ED080A84ED080A90ED95
:10567000090A84ED090A90ED0A0A84ED0A0AB0F9D4
:10568000001000EE101AB8EEC00A84ED0B0AB0F953
:10569000021000EE101AB8EEC00A84ED0C0AB0F940
:1056A000041000EE101AB8EEC00A84ED0D0AB0F92D
:1056B000141000EE101AB8EEC00A84ED0E0AB0F90C
:1056C000161000EE101AB8EEC00A84ED0F0AB0F9F9
:1056D000180000EE100AB8EEC00A84ED100AFBF7BD
:1056E00051FDA064A06C616C401A00EE100AB8EE87
:1056F000400ADFEDBE0AA06CC0EE208A606494ED23
:105700000B0AD4ED0B0A94ED0C1A20EE200AD4ED0E
:105710000C0A00EE810AD4ED0D0A94ED0D1A00EE8C
:10572000810A00F055FBD4ED0B0A60EE800AC4ED4F
:105730000B0AD4ED0C0A60EE800AC4ED0C0AD4ED1D
:105740000D0A20EE800A84ED0D0A94ED0E0AD4EDC8
:105750000E0A94ED0F1A20EE200AD4ED0F0A00EE87
:10576000810AD4ED100A94ED101A00EE810A00F0BF
:105770002FFBD4ED0E0AB6EE001AB0EE008A60EEF2
:10578000800A39EE6CEA7BEE2B1AC4ED0E0AD4EDDA
:105790000F0A60EE800AC4ED0F0AD4ED100A20EE65
:1057A000800A71EE6A0A31EE4D1A84ED100A94ED0A
:1057B0000E0A70EEE9EA31EE692A20EE080A71EE6F
:1057C0006ADA60EE2E0A94ED0F0A20EE080A40EE27
:1057D0000E0A94ED100A20EE080A40EE210A94ED1C
:1057E0000E0A79EE2C1A7BEE6BCA20EE080A60EEE8
:1057F000A00A20EE210AD4ED0F1A61EE881A01EEFC
:10580000820AD4ED101A3AEE4C2A61EE881A01EEA3
:10581000820AD4ED0E1A3AEE0C2A61EE881A40EE96
:10582000000A21EEAC9AD4ED0F1A10EE900A61EE48
:10583000881A01EE829AD4ED101A61EE881A01EEF0
:10584000AD9AFAF716FF41EC100BFEF72DFF51EC65
:10585000100BFAF739FF00EE900A7CEE0A2A3FEEB1
:105860004D1A60EE880A69EE083A22EE880A31EE97
:105870006A1A60EE8E1A94ED104A2CEE882A31EEE8
:10588000293A43EEA21A7BEE8B2A20EEAE1A60EE86
:10589000A22AD4ED0C0A03EEAC1A43EEAD2A60EE58
:1058A000830AD4ED0D3A43EEC00AD4ED0F3A63EE0D
:1058B000A23A44EE613A94ED0B4A70EEA30AD4ED9D
:1058C0000D3A63EE823AF5EEC00A44EE433A94EDA7
:1058D000103A94ED0E4A23EE013A04EE623A73EE6A
:1058E000832A94ED0B3A23EE000A94ED0C3A03EE72
:1058F000420A94ED0E2A62EE211A94ED0F2A42EE2E
:10590000411A30EE210AF1EE10FA41D0F5EEC02A2C
:10591000F1EE10FA3CD0B5EEC00AF1EE10FA37D035
:10592000D4ED051A9FED321A20EE812A42EE281A94
:1059300022EE812AC4ED051AD4ED061A42EE281A89
:10594000C4ED061A60EE011A94ED071A01EEA81ACA
:1059500084ED071A94ED081A00EE881AD4ED050AB2
:1059600071EE200AC4ED080AD4ED090A94ED061A76
:1059700042EE880A70EE810AC4ED090AD4ED0A0AE3
:1059800040EE080A94ED070A30EE800A84ED0A0A18
:1059900094ED020AD4ED080A94ED091A94ED013A47
:1059A00020EEC00AD4ED030A00EEC10AD4ED040AC9
:1059B00094ED0A1A00EEC10AD4ED080A94ED0A1A11
:1059C00000EE283A94ED010A20EE200AD4ED030AF5
:1059D00000EE810AD4ED040A94ED091A00EEC10A22
:1059E00008E000008C000020F84000200000FA448D
:1059F0000AD7233CD4ED021AD4ED090A94ED0A1A11
:105A000040EE281A94ED010A94ED032AD4ED042AFD
:105A100020EE200AD4ED020A00EEC10AD4ED040AF9
:105A200094ED081A00EE810AD4ED0A0A94ED091AE1
:105A300000EE282A94ED010A20EE200AD4ED020A95
:105A400000EE810AD4ED030A94ED081A00EEC10AB3
:105A500040EE282A23EE030A01EEA10A02EE020A12
:105A600002EEA20A00F0B4F963EE000AC4ED010AE6
:105A700061EE800AC4ED020A62EE000A22EE800A9C
:105A8000C4ED030A84ED040ABDEC108B10BD0000C8
:105A900070B5564C2DED068BF8EE008AB0EE008AFC
:105AA000B7EE00AA94ED030AD4ED030A94ED041AAC
:105AB00020EE280A20EE200AD4ED040A60EE880ABF
:105AC00000EEC10A30EE0A0A10EE100AFAF7D1FD14
:105AD00094ED020AD4ED030A94ED041A20EE080AAC
